{
	"contracts/SampleERC721Attachment.sol": {
		"SampleERC721Attachment": {
			"abi": [
				{
					"inputs": [
						{
							"internalType": "string",
							"name": "tokenName",
							"type": "string"
						},
						{
							"internalType": "string",
							"name": "tokenSymbol",
							"type": "string"
						},
						{
							"internalType": "address",
							"name": "refreeToken",
							"type": "address"
						}
					],
					"stateMutability": "nonpayable",
					"type": "constructor"
				},
				{
					"anonymous": false,
					"inputs": [
						{
							"indexed": true,
							"internalType": "address",
							"name": "owner",
							"type": "address"
						},
						{
							"indexed": true,
							"internalType": "address",
							"name": "approved",
							"type": "address"
						},
						{
							"indexed": true,
							"internalType": "uint256",
							"name": "tokenId",
							"type": "uint256"
						}
					],
					"name": "Approval",
					"type": "event"
				},
				{
					"anonymous": false,
					"inputs": [
						{
							"indexed": true,
							"internalType": "address",
							"name": "owner",
							"type": "address"
						},
						{
							"indexed": true,
							"internalType": "address",
							"name": "operator",
							"type": "address"
						},
						{
							"indexed": false,
							"internalType": "bool",
							"name": "approved",
							"type": "bool"
						}
					],
					"name": "ApprovalForAll",
					"type": "event"
				},
				{
					"anonymous": false,
					"inputs": [
						{
							"indexed": true,
							"internalType": "address",
							"name": "from",
							"type": "address"
						},
						{
							"indexed": true,
							"internalType": "address",
							"name": "to",
							"type": "address"
						},
						{
							"indexed": true,
							"internalType": "uint256",
							"name": "tokenId",
							"type": "uint256"
						}
					],
					"name": "Transfer",
					"type": "event"
				},
				{
					"inputs": [
						{
							"internalType": "address",
							"name": "to",
							"type": "address"
						},
						{
							"internalType": "uint256",
							"name": "tokenId",
							"type": "uint256"
						}
					],
					"name": "approve",
					"outputs": [],
					"stateMutability": "nonpayable",
					"type": "function"
				},
				{
					"inputs": [
						{
							"internalType": "address",
							"name": "owner",
							"type": "address"
						}
					],
					"name": "balanceOf",
					"outputs": [
						{
							"internalType": "uint256",
							"name": "",
							"type": "uint256"
						}
					],
					"stateMutability": "view",
					"type": "function"
				},
				{
					"inputs": [
						{
							"internalType": "uint256",
							"name": "tokenId",
							"type": "uint256"
						}
					],
					"name": "getApproved",
					"outputs": [
						{
							"internalType": "address",
							"name": "",
							"type": "address"
						}
					],
					"stateMutability": "view",
					"type": "function"
				},
				{
					"inputs": [
						{
							"internalType": "address",
							"name": "owner",
							"type": "address"
						},
						{
							"internalType": "address",
							"name": "operator",
							"type": "address"
						}
					],
					"name": "isApprovedForAll",
					"outputs": [
						{
							"internalType": "bool",
							"name": "",
							"type": "bool"
						}
					],
					"stateMutability": "view",
					"type": "function"
				},
				{
					"inputs": [],
					"name": "mint",
					"outputs": [],
					"stateMutability": "nonpayable",
					"type": "function"
				},
				{
					"inputs": [],
					"name": "name",
					"outputs": [
						{
							"internalType": "string",
							"name": "",
							"type": "string"
						}
					],
					"stateMutability": "view",
					"type": "function"
				},
				{
					"inputs": [
						{
							"internalType": "uint256",
							"name": "tokenId",
							"type": "uint256"
						}
					],
					"name": "ownerOf",
					"outputs": [
						{
							"internalType": "address",
							"name": "",
							"type": "address"
						}
					],
					"stateMutability": "view",
					"type": "function"
				},
				{
					"inputs": [
						{
							"internalType": "address",
							"name": "from",
							"type": "address"
						},
						{
							"internalType": "address",
							"name": "to",
							"type": "address"
						},
						{
							"internalType": "uint256",
							"name": "tokenId",
							"type": "uint256"
						}
					],
					"name": "safeTransferFrom",
					"outputs": [],
					"stateMutability": "nonpayable",
					"type": "function"
				},
				{
					"inputs": [
						{
							"internalType": "address",
							"name": "from",
							"type": "address"
						},
						{
							"internalType": "address",
							"name": "to",
							"type": "address"
						},
						{
							"internalType": "uint256",
							"name": "tokenId",
							"type": "uint256"
						},
						{
							"internalType": "bytes",
							"name": "data",
							"type": "bytes"
						}
					],
					"name": "safeTransferFrom",
					"outputs": [],
					"stateMutability": "nonpayable",
					"type": "function"
				},
				{
					"inputs": [
						{
							"internalType": "address",
							"name": "operator",
							"type": "address"
						},
						{
							"internalType": "bool",
							"name": "approved",
							"type": "bool"
						}
					],
					"name": "setApprovalForAll",
					"outputs": [],
					"stateMutability": "nonpayable",
					"type": "function"
				},
				{
					"inputs": [
						{
							"internalType": "uint256",
							"name": "_tokenId",
							"type": "uint256"
						},
						{
							"internalType": "string",
							"name": "_message",
							"type": "string"
						}
					],
					"name": "setTokenURI",
					"outputs": [],
					"stateMutability": "nonpayable",
					"type": "function"
				},
				{
					"inputs": [
						{
							"internalType": "bytes4",
							"name": "interfaceId",
							"type": "bytes4"
						}
					],
					"name": "supportsInterface",
					"outputs": [
						{
							"internalType": "bool",
							"name": "",
							"type": "bool"
						}
					],
					"stateMutability": "view",
					"type": "function"
				},
				{
					"inputs": [],
					"name": "symbol",
					"outputs": [
						{
							"internalType": "string",
							"name": "",
							"type": "string"
						}
					],
					"stateMutability": "view",
					"type": "function"
				},
				{
					"inputs": [
						{
							"internalType": "uint256",
							"name": "tokenId",
							"type": "uint256"
						}
					],
					"name": "tokenURI",
					"outputs": [
						{
							"internalType": "string",
							"name": "",
							"type": "string"
						}
					],
					"stateMutability": "view",
					"type": "function"
				},
				{
					"inputs": [
						{
							"internalType": "address",
							"name": "from",
							"type": "address"
						},
						{
							"internalType": "address",
							"name": "to",
							"type": "address"
						},
						{
							"internalType": "uint256",
							"name": "tokenId",
							"type": "uint256"
						}
					],
					"name": "transferFrom",
					"outputs": [],
					"stateMutability": "nonpayable",
					"type": "function"
				}
			],
			"devdoc": {
				"details": "Create a sample ERC721 standard token",
				"kind": "dev",
				"methods": {
					"approve(address,uint256)": {
						"details": "See {IERC721-approve}."
					},
					"balanceOf(address)": {
						"details": "See {IERC721-balanceOf}."
					},
					"getApproved(uint256)": {
						"details": "See {IERC721-getApproved}."
					},
					"isApprovedForAll(address,address)": {
						"details": "See {IERC721-isApprovedForAll}."
					},
					"name()": {
						"details": "See {IERC721Metadata-name}."
					},
					"ownerOf(uint256)": {
						"details": "See {IERC721-ownerOf}."
					},
					"safeTransferFrom(address,address,uint256)": {
						"details": "See {IERC721-safeTransferFrom}."
					},
					"safeTransferFrom(address,address,uint256,bytes)": {
						"details": "See {IERC721-safeTransferFrom}."
					},
					"setApprovalForAll(address,bool)": {
						"details": "See {IERC721-setApprovalForAll}."
					},
					"supportsInterface(bytes4)": {
						"details": "See {IERC165-supportsInterface}."
					},
					"symbol()": {
						"details": "See {IERC721Metadata-symbol}."
					},
					"tokenURI(uint256)": {
						"details": "See {IERC721Metadata-tokenURI}."
					},
					"transferFrom(address,address,uint256)": {
						"details": "See {IERC721-transferFrom}."
					}
				},
				"title": "SampleERC721",
				"version": 1
			},
			"evm": {
				"assembly": "    /* \"contracts/SampleERC721Attachment.sol\":181:753  contract SampleERC721Attachment is ERC721Attachment {... */\n  mstore(0x40, 0x80)\n    /* \"contracts/SampleERC721Attachment.sol\":271:272  1 */\n  0x01\n    /* \"contracts/SampleERC721Attachment.sol\":240:272  uint256 internal nextTokenId = 1 */\n  0x04\n  sstore\n    /* \"contracts/SampleERC721Attachment.sol\":279:420  constructor(string memory tokenName, string memory tokenSymbol, address refreeToken) ERC721Attachment(tokenName, tokenSymbol, refreeToken) {} */\n  callvalue\n  dup1\n  iszero\n  tag_1\n  jumpi\n  0x00\n  dup1\n  revert\ntag_1:\n  pop\n  mload(0x40)\n  sub(codesize, bytecodeSize)\n  dup1\n  bytecodeSize\n  dup4\n  codecopy\n  dup2\n  dup2\n  add\n  0x40\n  mstore\n  dup2\n  add\n  swap1\n  tag_2\n  swap2\n  swap1\n  tag_3\n  jump\t// in\ntag_2:\n    /* \"contracts/SampleERC721Attachment.sol\":381:390  tokenName */\n  dup3\n    /* \"contracts/SampleERC721Attachment.sol\":392:403  tokenSymbol */\n  dup3\n    /* \"contracts/SampleERC721Attachment.sol\":405:416  refreeToken */\n  dup3\n    /* \"contracts/ERC721Attachment.sol\":892:897  name_ */\n  dup3\n    /* \"contracts/ERC721Attachment.sol\":884:889  _name */\n  0x00\n    /* \"contracts/ERC721Attachment.sol\":884:897  _name = name_ */\n  swap1\n  dup1\n  mload\n  swap1\n  0x20\n  add\n  swap1\n  tag_7\n  swap3\n  swap2\n  swap1\n  tag_8\n  jump\t// in\ntag_7:\n  pop\n    /* \"contracts/ERC721Attachment.sol\":917:924  symbol_ */\n  dup2\n    /* \"contracts/ERC721Attachment.sol\":907:914  _symbol */\n  0x01\n    /* \"contracts/ERC721Attachment.sol\":907:924  _symbol = symbol_ */\n  swap1\n  dup1\n  mload\n  swap1\n  0x20\n  add\n  swap1\n  tag_9\n  swap3\n  swap2\n  swap1\n  tag_8\n  jump\t// in\ntag_9:\n  pop\n    /* \"contracts/ERC721Attachment.sol\":950:962  refreeToken_ */\n  dup1\n    /* \"contracts/ERC721Attachment.sol\":935:947  _refreeToken */\n  0x02\n  0x00\n    /* \"contracts/ERC721Attachment.sol\":935:962  _refreeToken = refreeToken_ */\n  0x0100\n  exp\n  dup2\n  sload\n  dup2\n  0xffffffffffffffffffffffffffffffffffffffff\n  mul\n  not\n  and\n  swap1\n  dup4\n  0xffffffffffffffffffffffffffffffffffffffff\n  and\n  mul\n  or\n  swap1\n  sstore\n  pop\n    /* \"contracts/ERC721Attachment.sol\":796:969  constructor(string memory name_, string memory symbol_, address refreeToken_) {... */\n  pop\n  pop\n  pop\n    /* \"contracts/SampleERC721Attachment.sol\":279:420  constructor(string memory tokenName, string memory tokenSymbol, address refreeToken) ERC721Attachment(tokenName, tokenSymbol, refreeToken) {} */\n  pop\n  pop\n  pop\n    /* \"contracts/SampleERC721Attachment.sol\":181:753  contract SampleERC721Attachment is ERC721Attachment {... */\n  jump(tag_11)\ntag_8:\n  dup3\n  dup1\n  sload\n  tag_12\n  swap1\n  tag_13\n  jump\t// in\ntag_12:\n  swap1\n  0x00\n  mstore\n  keccak256(0x00, 0x20)\n  swap1\n  0x1f\n  add\n  0x20\n  swap1\n  div\n  dup2\n  add\n  swap3\n  dup3\n  tag_15\n  jumpi\n  0x00\n  dup6\n  sstore\n  jump(tag_14)\ntag_15:\n  dup3\n  0x1f\n  lt\n  tag_16\n  jumpi\n  dup1\n  mload\n  not(0xff)\n  and\n  dup4\n  dup1\n  add\n  or\n  dup6\n  sstore\n  jump(tag_14)\ntag_16:\n  dup3\n  dup1\n  add\n  0x01\n  add\n  dup6\n  sstore\n  dup3\n  iszero\n  tag_14\n  jumpi\n  swap2\n  dup3\n  add\ntag_17:\n  dup3\n  dup2\n  gt\n  iszero\n  tag_18\n  jumpi\n  dup3\n  mload\n  dup3\n  sstore\n  swap2\n  0x20\n  add\n  swap2\n  swap1\n  0x01\n  add\n  swap1\n  jump(tag_17)\ntag_18:\ntag_14:\n  pop\n  swap1\n  pop\n  tag_19\n  swap2\n  swap1\n  tag_20\n  jump\t// in\ntag_19:\n  pop\n  swap1\n  jump\t// out\ntag_20:\ntag_21:\n  dup1\n  dup3\n  gt\n  iszero\n  tag_22\n  jumpi\n  0x00\n  dup2\n  0x00\n  swap1\n  sstore\n  pop\n  0x01\n  add\n  jump(tag_21)\ntag_22:\n  pop\n  swap1\n  jump\t// out\n    /* \"#utility.yul\":7:428   */\ntag_24:\n    /* \"#utility.yul\":96:101   */\n  0x00\n    /* \"#utility.yul\":121:187   */\n  tag_26\n    /* \"#utility.yul\":137:186   */\n  tag_27\n    /* \"#utility.yul\":179:185   */\n  dup5\n    /* \"#utility.yul\":137:186   */\n  tag_28\n  jump\t// in\ntag_27:\n    /* \"#utility.yul\":121:187   */\n  tag_29\n  jump\t// in\ntag_26:\n    /* \"#utility.yul\":112:187   */\n  swap1\n  pop\n    /* \"#utility.yul\":210:216   */\n  dup3\n    /* \"#utility.yul\":203:208   */\n  dup2\n    /* \"#utility.yul\":196:217   */\n  mstore\n    /* \"#utility.yul\":248:252   */\n  0x20\n    /* \"#utility.yul\":241:246   */\n  dup2\n    /* \"#utility.yul\":237:253   */\n  add\n    /* \"#utility.yul\":286:289   */\n  dup5\n    /* \"#utility.yul\":277:283   */\n  dup5\n    /* \"#utility.yul\":272:275   */\n  dup5\n    /* \"#utility.yul\":268:284   */\n  add\n    /* \"#utility.yul\":265:290   */\n  gt\n    /* \"#utility.yul\":262:374   */\n  iszero\n  tag_30\n  jumpi\n    /* \"#utility.yul\":293:372   */\n  tag_31\n  tag_32\n  jump\t// in\ntag_31:\n    /* \"#utility.yul\":262:374   */\ntag_30:\n    /* \"#utility.yul\":383:422   */\n  tag_33\n    /* \"#utility.yul\":415:421   */\n  dup5\n    /* \"#utility.yul\":410:413   */\n  dup3\n    /* \"#utility.yul\":405:408   */\n  dup6\n    /* \"#utility.yul\":383:422   */\n  tag_34\n  jump\t// in\ntag_33:\n    /* \"#utility.yul\":102:428   */\n  pop\n    /* \"#utility.yul\":7:428   */\n  swap4\n  swap3\n  pop\n  pop\n  pop\n  jump\t// out\n    /* \"#utility.yul\":434:577   */\ntag_35:\n    /* \"#utility.yul\":491:496   */\n  0x00\n    /* \"#utility.yul\":522:528   */\n  dup2\n    /* \"#utility.yul\":516:529   */\n  mload\n    /* \"#utility.yul\":507:529   */\n  swap1\n  pop\n    /* \"#utility.yul\":538:571   */\n  tag_37\n    /* \"#utility.yul\":565:570   */\n  dup2\n    /* \"#utility.yul\":538:571   */\n  tag_38\n  jump\t// in\ntag_37:\n    /* \"#utility.yul\":434:577   */\n  swap3\n  swap2\n  pop\n  pop\n  jump\t// out\n    /* \"#utility.yul\":597:952   */\ntag_39:\n    /* \"#utility.yul\":664:669   */\n  0x00\n    /* \"#utility.yul\":713:716   */\n  dup3\n    /* \"#utility.yul\":706:710   */\n  0x1f\n    /* \"#utility.yul\":698:704   */\n  dup4\n    /* \"#utility.yul\":694:711   */\n  add\n    /* \"#utility.yul\":690:717   */\n  slt\n    /* \"#utility.yul\":680:802   */\n  tag_41\n  jumpi\n    /* \"#utility.yul\":721:800   */\n  tag_42\n  tag_43\n  jump\t// in\ntag_42:\n    /* \"#utility.yul\":680:802   */\ntag_41:\n    /* \"#utility.yul\":831:837   */\n  dup2\n    /* \"#utility.yul\":825:838   */\n  mload\n    /* \"#utility.yul\":856:946   */\n  tag_44\n    /* \"#utility.yul\":942:945   */\n  dup5\n    /* \"#utility.yul\":934:940   */\n  dup3\n    /* \"#utility.yul\":927:931   */\n  0x20\n    /* \"#utility.yul\":919:925   */\n  dup7\n    /* \"#utility.yul\":915:932   */\n  add\n    /* \"#utility.yul\":856:946   */\n  tag_24\n  jump\t// in\ntag_44:\n    /* \"#utility.yul\":847:946   */\n  swap2\n  pop\n    /* \"#utility.yul\":670:952   */\n  pop\n    /* \"#utility.yul\":597:952   */\n  swap3\n  swap2\n  pop\n  pop\n  jump\t// out\n    /* \"#utility.yul\":958:1967   */\ntag_3:\n    /* \"#utility.yul\":1066:1072   */\n  0x00\n    /* \"#utility.yul\":1074:1080   */\n  dup1\n    /* \"#utility.yul\":1082:1088   */\n  0x00\n    /* \"#utility.yul\":1131:1133   */\n  0x60\n    /* \"#utility.yul\":1119:1128   */\n  dup5\n    /* \"#utility.yul\":1110:1117   */\n  dup7\n    /* \"#utility.yul\":1106:1129   */\n  sub\n    /* \"#utility.yul\":1102:1134   */\n  slt\n    /* \"#utility.yul\":1099:1218   */\n  iszero\n  tag_46\n  jumpi\n    /* \"#utility.yul\":1137:1216   */\n  tag_47\n  tag_48\n  jump\t// in\ntag_47:\n    /* \"#utility.yul\":1099:1218   */\ntag_46:\n    /* \"#utility.yul\":1278:1279   */\n  0x00\n    /* \"#utility.yul\":1267:1276   */\n  dup5\n    /* \"#utility.yul\":1263:1280   */\n  add\n    /* \"#utility.yul\":1257:1281   */\n  mload\n    /* \"#utility.yul\":1308:1326   */\n  0xffffffffffffffff\n    /* \"#utility.yul\":1300:1306   */\n  dup2\n    /* \"#utility.yul\":1297:1327   */\n  gt\n    /* \"#utility.yul\":1294:1411   */\n  iszero\n  tag_49\n  jumpi\n    /* \"#utility.yul\":1330:1409   */\n  tag_50\n  tag_51\n  jump\t// in\ntag_50:\n    /* \"#utility.yul\":1294:1411   */\ntag_49:\n    /* \"#utility.yul\":1435:1509   */\n  tag_52\n    /* \"#utility.yul\":1501:1508   */\n  dup7\n    /* \"#utility.yul\":1492:1498   */\n  dup3\n    /* \"#utility.yul\":1481:1490   */\n  dup8\n    /* \"#utility.yul\":1477:1499   */\n  add\n    /* \"#utility.yul\":1435:1509   */\n  tag_39\n  jump\t// in\ntag_52:\n    /* \"#utility.yul\":1425:1509   */\n  swap4\n  pop\n    /* \"#utility.yul\":1228:1519   */\n  pop\n    /* \"#utility.yul\":1579:1581   */\n  0x20\n    /* \"#utility.yul\":1568:1577   */\n  dup5\n    /* \"#utility.yul\":1564:1582   */\n  add\n    /* \"#utility.yul\":1558:1583   */\n  mload\n    /* \"#utility.yul\":1610:1628   */\n  0xffffffffffffffff\n    /* \"#utility.yul\":1602:1608   */\n  dup2\n    /* \"#utility.yul\":1599:1629   */\n  gt\n    /* \"#utility.yul\":1596:1713   */\n  iszero\n  tag_53\n  jumpi\n    /* \"#utility.yul\":1632:1711   */\n  tag_54\n  tag_51\n  jump\t// in\ntag_54:\n    /* \"#utility.yul\":1596:1713   */\ntag_53:\n    /* \"#utility.yul\":1737:1811   */\n  tag_55\n    /* \"#utility.yul\":1803:1810   */\n  dup7\n    /* \"#utility.yul\":1794:1800   */\n  dup3\n    /* \"#utility.yul\":1783:1792   */\n  dup8\n    /* \"#utility.yul\":1779:1801   */\n  add\n    /* \"#utility.yul\":1737:1811   */\n  tag_39\n  jump\t// in\ntag_55:\n    /* \"#utility.yul\":1727:1811   */\n  swap3\n  pop\n    /* \"#utility.yul\":1529:1821   */\n  pop\n    /* \"#utility.yul\":1860:1862   */\n  0x40\n    /* \"#utility.yul\":1886:1950   */\n  tag_56\n    /* \"#utility.yul\":1942:1949   */\n  dup7\n    /* \"#utility.yul\":1933:1939   */\n  dup3\n    /* \"#utility.yul\":1922:1931   */\n  dup8\n    /* \"#utility.yul\":1918:1940   */\n  add\n    /* \"#utility.yul\":1886:1950   */\n  tag_35\n  jump\t// in\ntag_56:\n    /* \"#utility.yul\":1876:1950   */\n  swap2\n  pop\n    /* \"#utility.yul\":1831:1960   */\n  pop\n    /* \"#utility.yul\":958:1967   */\n  swap3\n  pop\n  swap3\n  pop\n  swap3\n  jump\t// out\n    /* \"#utility.yul\":1973:2102   */\ntag_29:\n    /* \"#utility.yul\":2007:2013   */\n  0x00\n    /* \"#utility.yul\":2034:2054   */\n  tag_58\n  tag_59\n  jump\t// in\ntag_58:\n    /* \"#utility.yul\":2024:2054   */\n  swap1\n  pop\n    /* \"#utility.yul\":2063:2096   */\n  tag_60\n    /* \"#utility.yul\":2091:2095   */\n  dup3\n    /* \"#utility.yul\":2083:2089   */\n  dup3\n    /* \"#utility.yul\":2063:2096   */\n  tag_61\n  jump\t// in\ntag_60:\n    /* \"#utility.yul\":1973:2102   */\n  swap2\n  swap1\n  pop\n  jump\t// out\n    /* \"#utility.yul\":2108:2183   */\ntag_59:\n    /* \"#utility.yul\":2141:2147   */\n  0x00\n    /* \"#utility.yul\":2174:2176   */\n  0x40\n    /* \"#utility.yul\":2168:2177   */\n  mload\n    /* \"#utility.yul\":2158:2177   */\n  swap1\n  pop\n    /* \"#utility.yul\":2108:2183   */\n  swap1\n  jump\t// out\n    /* \"#utility.yul\":2189:2497   */\ntag_28:\n    /* \"#utility.yul\":2251:2255   */\n  0x00\n    /* \"#utility.yul\":2341:2359   */\n  0xffffffffffffffff\n    /* \"#utility.yul\":2333:2339   */\n  dup3\n    /* \"#utility.yul\":2330:2360   */\n  gt\n    /* \"#utility.yul\":2327:2383   */\n  iszero\n  tag_64\n  jumpi\n    /* \"#utility.yul\":2363:2381   */\n  tag_65\n  tag_66\n  jump\t// in\ntag_65:\n    /* \"#utility.yul\":2327:2383   */\ntag_64:\n    /* \"#utility.yul\":2401:2430   */\n  tag_67\n    /* \"#utility.yul\":2423:2429   */\n  dup3\n    /* \"#utility.yul\":2401:2430   */\n  tag_68\n  jump\t// in\ntag_67:\n    /* \"#utility.yul\":2393:2430   */\n  swap1\n  pop\n    /* \"#utility.yul\":2485:2489   */\n  0x20\n    /* \"#utility.yul\":2479:2483   */\n  dup2\n    /* \"#utility.yul\":2475:2490   */\n  add\n    /* \"#utility.yul\":2467:2490   */\n  swap1\n  pop\n    /* \"#utility.yul\":2189:2497   */\n  swap2\n  swap1\n  pop\n  jump\t// out\n    /* \"#utility.yul\":2503:2599   */\ntag_69:\n    /* \"#utility.yul\":2540:2547   */\n  0x00\n    /* \"#utility.yul\":2569:2593   */\n  tag_71\n    /* \"#utility.yul\":2587:2592   */\n  dup3\n    /* \"#utility.yul\":2569:2593   */\n  tag_72\n  jump\t// in\ntag_71:\n    /* \"#utility.yul\":2558:2593   */\n  swap1\n  pop\n    /* \"#utility.yul\":2503:2599   */\n  swap2\n  swap1\n  pop\n  jump\t// out\n    /* \"#utility.yul\":2605:2731   */\ntag_72:\n    /* \"#utility.yul\":2642:2649   */\n  0x00\n    /* \"#utility.yul\":2682:2724   */\n  0xffffffffffffffffffffffffffffffffffffffff\n    /* \"#utility.yul\":2675:2680   */\n  dup3\n    /* \"#utility.yul\":2671:2725   */\n  and\n    /* \"#utility.yul\":2660:2725   */\n  swap1\n  pop\n    /* \"#utility.yul\":2605:2731   */\n  swap2\n  swap1\n  pop\n  jump\t// out\n    /* \"#utility.yul\":2737:3044   */\ntag_34:\n    /* \"#utility.yul\":2805:2806   */\n  0x00\n    /* \"#utility.yul\":2815:2928   */\ntag_75:\n    /* \"#utility.yul\":2829:2835   */\n  dup4\n    /* \"#utility.yul\":2826:2827   */\n  dup2\n    /* \"#utility.yul\":2823:2836   */\n  lt\n    /* \"#utility.yul\":2815:2928   */\n  iszero\n  tag_77\n  jumpi\n    /* \"#utility.yul\":2914:2915   */\n  dup1\n    /* \"#utility.yul\":2909:2912   */\n  dup3\n    /* \"#utility.yul\":2905:2916   */\n  add\n    /* \"#utility.yul\":2899:2917   */\n  mload\n    /* \"#utility.yul\":2895:2896   */\n  dup2\n    /* \"#utility.yul\":2890:2893   */\n  dup5\n    /* \"#utility.yul\":2886:2897   */\n  add\n    /* \"#utility.yul\":2879:2918   */\n  mstore\n    /* \"#utility.yul\":2851:2853   */\n  0x20\n    /* \"#utility.yul\":2848:2849   */\n  dup2\n    /* \"#utility.yul\":2844:2854   */\n  add\n    /* \"#utility.yul\":2839:2854   */\n  swap1\n  pop\n    /* \"#utility.yul\":2815:2928   */\n  jump(tag_75)\ntag_77:\n    /* \"#utility.yul\":2946:2952   */\n  dup4\n    /* \"#utility.yul\":2943:2944   */\n  dup2\n    /* \"#utility.yul\":2940:2953   */\n  gt\n    /* \"#utility.yul\":2937:3038   */\n  iszero\n  tag_78\n  jumpi\n    /* \"#utility.yul\":3026:3027   */\n  0x00\n    /* \"#utility.yul\":3017:3023   */\n  dup5\n    /* \"#utility.yul\":3012:3015   */\n  dup5\n    /* \"#utility.yul\":3008:3024   */\n  add\n    /* \"#utility.yul\":3001:3028   */\n  mstore\n    /* \"#utility.yul\":2937:3038   */\ntag_78:\n    /* \"#utility.yul\":2786:3044   */\n  pop\n    /* \"#utility.yul\":2737:3044   */\n  pop\n  pop\n  pop\n  jump\t// out\n    /* \"#utility.yul\":3050:3370   */\ntag_13:\n    /* \"#utility.yul\":3094:3100   */\n  0x00\n    /* \"#utility.yul\":3131:3132   */\n  0x02\n    /* \"#utility.yul\":3125:3129   */\n  dup3\n    /* \"#utility.yul\":3121:3133   */\n  div\n    /* \"#utility.yul\":3111:3133   */\n  swap1\n  pop\n    /* \"#utility.yul\":3178:3179   */\n  0x01\n    /* \"#utility.yul\":3172:3176   */\n  dup3\n    /* \"#utility.yul\":3168:3180   */\n  and\n    /* \"#utility.yul\":3199:3217   */\n  dup1\n    /* \"#utility.yul\":3189:3270   */\n  tag_80\n  jumpi\n    /* \"#utility.yul\":3255:3259   */\n  0x7f\n    /* \"#utility.yul\":3247:3253   */\n  dup3\n    /* \"#utility.yul\":3243:3260   */\n  and\n    /* \"#utility.yul\":3233:3260   */\n  swap2\n  pop\n    /* \"#utility.yul\":3189:3270   */\ntag_80:\n    /* \"#utility.yul\":3317:3319   */\n  0x20\n    /* \"#utility.yul\":3309:3315   */\n  dup3\n    /* \"#utility.yul\":3306:3320   */\n  lt\n    /* \"#utility.yul\":3286:3304   */\n  dup2\n    /* \"#utility.yul\":3283:3321   */\n  eq\n    /* \"#utility.yul\":3280:3364   */\n  iszero\n  tag_81\n  jumpi\n    /* \"#utility.yul\":3336:3354   */\n  tag_82\n  tag_83\n  jump\t// in\ntag_82:\n    /* \"#utility.yul\":3280:3364   */\ntag_81:\n    /* \"#utility.yul\":3101:3370   */\n  pop\n    /* \"#utility.yul\":3050:3370   */\n  swap2\n  swap1\n  pop\n  jump\t// out\n    /* \"#utility.yul\":3376:3657   */\ntag_61:\n    /* \"#utility.yul\":3459:3486   */\n  tag_85\n    /* \"#utility.yul\":3481:3485   */\n  dup3\n    /* \"#utility.yul\":3459:3486   */\n  tag_68\n  jump\t// in\ntag_85:\n    /* \"#utility.yul\":3451:3457   */\n  dup2\n    /* \"#utility.yul\":3447:3487   */\n  add\n    /* \"#utility.yul\":3589:3595   */\n  dup2\n    /* \"#utility.yul\":3577:3587   */\n  dup2\n    /* \"#utility.yul\":3574:3596   */\n  lt\n    /* \"#utility.yul\":3553:3571   */\n  0xffffffffffffffff\n    /* \"#utility.yul\":3541:3551   */\n  dup3\n    /* \"#utility.yul\":3538:3572   */\n  gt\n    /* \"#utility.yul\":3535:3597   */\n  or\n    /* \"#utility.yul\":3532:3620   */\n  iszero\n  tag_86\n  jumpi\n    /* \"#utility.yul\":3600:3618   */\n  tag_87\n  tag_66\n  jump\t// in\ntag_87:\n    /* \"#utility.yul\":3532:3620   */\ntag_86:\n    /* \"#utility.yul\":3640:3650   */\n  dup1\n    /* \"#utility.yul\":3636:3638   */\n  0x40\n    /* \"#utility.yul\":3629:3651   */\n  mstore\n    /* \"#utility.yul\":3419:3657   */\n  pop\n    /* \"#utility.yul\":3376:3657   */\n  pop\n  pop\n  jump\t// out\n    /* \"#utility.yul\":3663:3843   */\ntag_83:\n    /* \"#utility.yul\":3711:3788   */\n  0x4e487b7100000000000000000000000000000000000000000000000000000000\n    /* \"#utility.yul\":3708:3709   */\n  0x00\n    /* \"#utility.yul\":3701:3789   */\n  mstore\n    /* \"#utility.yul\":3808:3812   */\n  0x22\n    /* \"#utility.yul\":3805:3806   */\n  0x04\n    /* \"#utility.yul\":3798:3813   */\n  mstore\n    /* \"#utility.yul\":3832:3836   */\n  0x24\n    /* \"#utility.yul\":3829:3830   */\n  0x00\n    /* \"#utility.yul\":3822:3837   */\n  revert\n    /* \"#utility.yul\":3849:4029   */\ntag_66:\n    /* \"#utility.yul\":3897:3974   */\n  0x4e487b7100000000000000000000000000000000000000000000000000000000\n    /* \"#utility.yul\":3894:3895   */\n  0x00\n    /* \"#utility.yul\":3887:3975   */\n  mstore\n    /* \"#utility.yul\":3994:3998   */\n  0x41\n    /* \"#utility.yul\":3991:3992   */\n  0x04\n    /* \"#utility.yul\":3984:3999   */\n  mstore\n    /* \"#utility.yul\":4018:4022   */\n  0x24\n    /* \"#utility.yul\":4015:4016   */\n  0x00\n    /* \"#utility.yul\":4008:4023   */\n  revert\n    /* \"#utility.yul\":4035:4152   */\ntag_43:\n    /* \"#utility.yul\":4144:4145   */\n  0x00\n    /* \"#utility.yul\":4141:4142   */\n  dup1\n    /* \"#utility.yul\":4134:4146   */\n  revert\n    /* \"#utility.yul\":4158:4275   */\ntag_32:\n    /* \"#utility.yul\":4267:4268   */\n  0x00\n    /* \"#utility.yul\":4264:4265   */\n  dup1\n    /* \"#utility.yul\":4257:4269   */\n  revert\n    /* \"#utility.yul\":4281:4398   */\ntag_51:\n    /* \"#utility.yul\":4390:4391   */\n  0x00\n    /* \"#utility.yul\":4387:4388   */\n  dup1\n    /* \"#utility.yul\":4380:4392   */\n  revert\n    /* \"#utility.yul\":4404:4521   */\ntag_48:\n    /* \"#utility.yul\":4513:4514   */\n  0x00\n    /* \"#utility.yul\":4510:4511   */\n  dup1\n    /* \"#utility.yul\":4503:4515   */\n  revert\n    /* \"#utility.yul\":4527:4629   */\ntag_68:\n    /* \"#utility.yul\":4568:4574   */\n  0x00\n    /* \"#utility.yul\":4619:4621   */\n  0x1f\n    /* \"#utility.yul\":4615:4622   */\n  not\n    /* \"#utility.yul\":4610:4612   */\n  0x1f\n    /* \"#utility.yul\":4603:4608   */\n  dup4\n    /* \"#utility.yul\":4599:4613   */\n  add\n    /* \"#utility.yul\":4595:4623   */\n  and\n    /* \"#utility.yul\":4585:4623   */\n  swap1\n  pop\n    /* \"#utility.yul\":4527:4629   */\n  swap2\n  swap1\n  pop\n  jump\t// out\n    /* \"#utility.yul\":4635:4757   */\ntag_38:\n    /* \"#utility.yul\":4708:4732   */\n  tag_96\n    /* \"#utility.yul\":4726:4731   */\n  dup2\n    /* \"#utility.yul\":4708:4732   */\n  tag_69\n  jump\t// in\ntag_96:\n    /* \"#utility.yul\":4701:4706   */\n  dup2\n    /* \"#utility.yul\":4698:4733   */\n  eq\n    /* \"#utility.yul\":4688:4751   */\n  tag_97\n  jumpi\n    /* \"#utility.yul\":4747:4748   */\n  0x00\n    /* \"#utility.yul\":4744:4745   */\n  dup1\n    /* \"#utility.yul\":4737:4749   */\n  revert\n    /* \"#utility.yul\":4688:4751   */\ntag_97:\n    /* \"#utility.yul\":4635:4757   */\n  pop\n  jump\t// out\n    /* \"contracts/SampleERC721Attachment.sol\":181:753  contract SampleERC721Attachment is ERC721Attachment {... */\ntag_11:\n  dataSize(sub_0)\n  dup1\n  dataOffset(sub_0)\n  0x00\n  codecopy\n  0x00\n  return\nstop\n\nsub_0: assembly {\n        /* \"contracts/SampleERC721Attachment.sol\":181:753  contract SampleERC721Attachment is ERC721Attachment {... */\n      mstore(0x40, 0x80)\n      callvalue\n      dup1\n      iszero\n      tag_1\n      jumpi\n      0x00\n      dup1\n      revert\n    tag_1:\n      pop\n      jumpi(tag_2, lt(calldatasize, 0x04))\n      shr(0xe0, calldataload(0x00))\n      dup1\n      0x42842e0e\n      gt\n      tag_18\n      jumpi\n      dup1\n      0xa22cb465\n      gt\n      tag_19\n      jumpi\n      dup1\n      0xa22cb465\n      eq\n      tag_14\n      jumpi\n      dup1\n      0xb88d4fde\n      eq\n      tag_15\n      jumpi\n      dup1\n      0xc87b56dd\n      eq\n      tag_16\n      jumpi\n      dup1\n      0xe985e9c5\n      eq\n      tag_17\n      jumpi\n      jump(tag_2)\n    tag_19:\n      dup1\n      0x42842e0e\n      eq\n      tag_10\n      jumpi\n      dup1\n      0x6352211e\n      eq\n      tag_11\n      jumpi\n      dup1\n      0x70a08231\n      eq\n      tag_12\n      jumpi\n      dup1\n      0x95d89b41\n      eq\n      tag_13\n      jumpi\n      jump(tag_2)\n    tag_18:\n      dup1\n      0x095ea7b3\n      gt\n      tag_20\n      jumpi\n      dup1\n      0x095ea7b3\n      eq\n      tag_6\n      jumpi\n      dup1\n      0x1249c58b\n      eq\n      tag_7\n      jumpi\n      dup1\n      0x162094c4\n      eq\n      tag_8\n      jumpi\n      dup1\n      0x23b872dd\n      eq\n      tag_9\n      jumpi\n      jump(tag_2)\n    tag_20:\n      dup1\n      0x01ffc9a7\n      eq\n      tag_3\n      jumpi\n      dup1\n      0x06fdde03\n      eq\n      tag_4\n      jumpi\n      dup1\n      0x081812fc\n      eq\n      tag_5\n      jumpi\n    tag_2:\n      0x00\n      dup1\n      revert\n        /* \"contracts/ERC721Attachment.sol\":1042:1342  function supportsInterface(bytes4 interfaceId) public view virtual override(ERC165, IERC165) returns (bool) {... */\n    tag_3:\n      tag_21\n      0x04\n      dup1\n      calldatasize\n      sub\n      dup2\n      add\n      swap1\n      tag_22\n      swap2\n      swap1\n      tag_23\n      jump\t// in\n    tag_22:\n      tag_24\n      jump\t// in\n    tag_21:\n      mload(0x40)\n      tag_25\n      swap2\n      swap1\n      tag_26\n      jump\t// in\n    tag_25:\n      mload(0x40)\n      dup1\n      swap2\n      sub\n      swap1\n      return\n        /* \"contracts/ERC721Attachment.sol\":1986:2084  function name() public view virtual override returns (string memory) {... */\n    tag_4:\n      tag_27\n      tag_28\n      jump\t// in\n    tag_27:\n      mload(0x40)\n      tag_29\n      swap2\n      swap1\n      tag_30\n      jump\t// in\n    tag_29:\n      mload(0x40)\n      dup1\n      swap2\n      sub\n      swap1\n      return\n        /* \"contracts/ERC721Attachment.sol\":3817:3936  function getApproved(uint256 tokenId) public view virtual override returns (address) {... */\n    tag_5:\n      tag_31\n      0x04\n      dup1\n      calldatasize\n      sub\n      dup2\n      add\n      swap1\n      tag_32\n      swap2\n      swap1\n      tag_33\n      jump\t// in\n    tag_32:\n      tag_34\n      jump\t// in\n    tag_31:\n      mload(0x40)\n      tag_35\n      swap2\n      swap1\n      tag_36\n      jump\t// in\n    tag_35:\n      mload(0x40)\n      dup1\n      swap2\n      sub\n      swap1\n      return\n        /* \"contracts/ERC721Attachment.sol\":3356:3756  function approve(address to, uint256 tokenId) public virtual override {... */\n    tag_6:\n      tag_37\n      0x04\n      dup1\n      calldatasize\n      sub\n      dup2\n      add\n      swap1\n      tag_38\n      swap2\n      swap1\n      tag_39\n      jump\t// in\n    tag_38:\n      tag_40\n      jump\t// in\n    tag_37:\n      stop\n        /* \"contracts/SampleERC721Attachment.sol\":426:564  function mint() external {... */\n    tag_7:\n      tag_41\n      tag_42\n      jump\t// in\n    tag_41:\n      stop\n        /* \"contracts/SampleERC721Attachment.sol\":570:751  function setTokenURI(uint256 _tokenId, string memory _message) external {... */\n    tag_8:\n      tag_43\n      0x04\n      dup1\n      calldatasize\n      sub\n      dup2\n      add\n      swap1\n      tag_44\n      swap2\n      swap1\n      tag_45\n      jump\t// in\n    tag_44:\n      tag_46\n      jump\t// in\n    tag_43:\n      stop\n        /* \"contracts/ERC721Attachment.sol\":4394:4721  function transferFrom(... */\n    tag_9:\n      tag_47\n      0x04\n      dup1\n      calldatasize\n      sub\n      dup2\n      add\n      swap1\n      tag_48\n      swap2\n      swap1\n      tag_49\n      jump\t// in\n    tag_48:\n      tag_50\n      jump\t// in\n    tag_47:\n      stop\n        /* \"contracts/ERC721Attachment.sol\":4787:4966  function safeTransferFrom(... */\n    tag_10:\n      tag_51\n      0x04\n      dup1\n      calldatasize\n      sub\n      dup2\n      add\n      swap1\n      tag_52\n      swap2\n      swap1\n      tag_49\n      jump\t// in\n    tag_52:\n      tag_53\n      jump\t// in\n    tag_51:\n      stop\n        /* \"contracts/ERC721Attachment.sol\":1684:1924  function ownerOf(uint256 tokenId) public view virtual override returns (address) {... */\n    tag_11:\n      tag_54\n      0x04\n      dup1\n      calldatasize\n      sub\n      dup2\n      add\n      swap1\n      tag_55\n      swap2\n      swap1\n      tag_33\n      jump\t// in\n    tag_55:\n      tag_56\n      jump\t// in\n    tag_54:\n      mload(0x40)\n      tag_57\n      swap2\n      swap1\n      tag_36\n      jump\t// in\n    tag_57:\n      mload(0x40)\n      dup1\n      swap2\n      sub\n      swap1\n      return\n        /* \"contracts/ERC721Attachment.sol\":1401:1627  function balanceOf(address owner) public view virtual override returns (uint256) {... */\n    tag_12:\n      tag_58\n      0x04\n      dup1\n      calldatasize\n      sub\n      dup2\n      add\n      swap1\n      tag_59\n      swap2\n      swap1\n      tag_60\n      jump\t// in\n    tag_59:\n      tag_61\n      jump\t// in\n    tag_58:\n      mload(0x40)\n      tag_62\n      swap2\n      swap1\n      tag_63\n      jump\t// in\n    tag_62:\n      mload(0x40)\n      dup1\n      swap2\n      sub\n      swap1\n      return\n        /* \"contracts/ERC721Attachment.sol\":2148:2250  function symbol() public view virtual override returns (string memory) {... */\n    tag_13:\n      tag_64\n      tag_65\n      jump\t// in\n    tag_64:\n      mload(0x40)\n      tag_66\n      swap2\n      swap1\n      tag_30\n      jump\t// in\n    tag_66:\n      mload(0x40)\n      dup1\n      swap2\n      sub\n      swap1\n      return\n        /* \"contracts/ERC721Attachment.sol\":4003:4156  function setApprovalForAll(address operator, bool approved) public virtual override {... */\n    tag_14:\n      tag_67\n      0x04\n      dup1\n      calldatasize\n      sub\n      dup2\n      add\n      swap1\n      tag_68\n      swap2\n      swap1\n      tag_69\n      jump\t// in\n    tag_68:\n      tag_70\n      jump\t// in\n    tag_67:\n      stop\n        /* \"contracts/ERC721Attachment.sol\":5032:5347  function safeTransferFrom(... */\n    tag_15:\n      tag_71\n      0x04\n      dup1\n      calldatasize\n      sub\n      dup2\n      add\n      swap1\n      tag_72\n      swap2\n      swap1\n      tag_73\n      jump\t// in\n    tag_72:\n      tag_74\n      jump\t// in\n    tag_71:\n      stop\n        /* \"contracts/ERC721Attachment.sol\":2316:2592  function tokenURI(uint256 tokenId) public view virtual override returns (string memory) {... */\n    tag_16:\n      tag_75\n      0x04\n      dup1\n      calldatasize\n      sub\n      dup2\n      add\n      swap1\n      tag_76\n      swap2\n      swap1\n      tag_33\n      jump\t// in\n    tag_76:\n      tag_77\n      jump\t// in\n    tag_75:\n      mload(0x40)\n      tag_78\n      swap2\n      swap1\n      tag_30\n      jump\t// in\n    tag_78:\n      mload(0x40)\n      dup1\n      swap2\n      sub\n      swap1\n      return\n        /* \"contracts/ERC721Attachment.sol\":4222:4332  function isApprovedForAll(address owner, address operator) public view virtual override returns (bool) {... */\n    tag_17:\n      tag_79\n      0x04\n      dup1\n      calldatasize\n      sub\n      dup2\n      add\n      swap1\n      tag_80\n      swap2\n      swap1\n      tag_81\n      jump\t// in\n    tag_80:\n      tag_82\n      jump\t// in\n    tag_79:\n      mload(0x40)\n      tag_83\n      swap2\n      swap1\n      tag_26\n      jump\t// in\n    tag_83:\n      mload(0x40)\n      dup1\n      swap2\n      sub\n      swap1\n      return\n        /* \"contracts/ERC721Attachment.sol\":1042:1342  function supportsInterface(bytes4 interfaceId) public view virtual override(ERC165, IERC165) returns (bool) {... */\n    tag_24:\n        /* \"contracts/ERC721Attachment.sol\":1144:1148  bool */\n      0x00\n        /* \"contracts/ERC721Attachment.sol\":1194:1219  type(IERC721).interfaceId */\n      0x80ac58cd00000000000000000000000000000000000000000000000000000000\n        /* \"contracts/ERC721Attachment.sol\":1179:1219  interfaceId == type(IERC721).interfaceId */\n      not(0xffffffffffffffffffffffffffffffffffffffffffffffffffffffff)\n      and\n        /* \"contracts/ERC721Attachment.sol\":1179:1190  interfaceId */\n      dup3\n        /* \"contracts/ERC721Attachment.sol\":1179:1219  interfaceId == type(IERC721).interfaceId */\n      not(0xffffffffffffffffffffffffffffffffffffffffffffffffffffffff)\n      and\n      eq\n        /* \"contracts/ERC721Attachment.sol\":1179:1283  interfaceId == type(IERC721).interfaceId ||... */\n      dup1\n      tag_85\n      jumpi\n      pop\n        /* \"contracts/ERC721Attachment.sol\":1250:1283  type(IERC721Metadata).interfaceId */\n      0x5b5e139f00000000000000000000000000000000000000000000000000000000\n        /* \"contracts/ERC721Attachment.sol\":1235:1283  interfaceId == type(IERC721Metadata).interfaceId */\n      not(0xffffffffffffffffffffffffffffffffffffffffffffffffffffffff)\n      and\n        /* \"contracts/ERC721Attachment.sol\":1235:1246  interfaceId */\n      dup3\n        /* \"contracts/ERC721Attachment.sol\":1235:1283  interfaceId == type(IERC721Metadata).interfaceId */\n      not(0xffffffffffffffffffffffffffffffffffffffffffffffffffffffff)\n      and\n      eq\n        /* \"contracts/ERC721Attachment.sol\":1179:1283  interfaceId == type(IERC721).interfaceId ||... */\n    tag_85:\n        /* \"contracts/ERC721Attachment.sol\":1179:1335  interfaceId == type(IERC721).interfaceId ||... */\n      dup1\n      tag_86\n      jumpi\n      pop\n        /* \"contracts/ERC721Attachment.sol\":1299:1335  super.supportsInterface(interfaceId) */\n      tag_87\n        /* \"contracts/ERC721Attachment.sol\":1323:1334  interfaceId */\n      dup3\n        /* \"contracts/ERC721Attachment.sol\":1299:1322  super.supportsInterface */\n      tag_88\n        /* \"contracts/ERC721Attachment.sol\":1299:1335  super.supportsInterface(interfaceId) */\n      jump\t// in\n    tag_87:\n        /* \"contracts/ERC721Attachment.sol\":1179:1335  interfaceId == type(IERC721).interfaceId ||... */\n    tag_86:\n        /* \"contracts/ERC721Attachment.sol\":1160:1335  return... */\n      swap1\n      pop\n        /* \"contracts/ERC721Attachment.sol\":1042:1342  function supportsInterface(bytes4 interfaceId) public view virtual override(ERC165, IERC165) returns (bool) {... */\n      swap2\n      swap1\n      pop\n      jump\t// out\n        /* \"contracts/ERC721Attachment.sol\":1986:2084  function name() public view virtual override returns (string memory) {... */\n    tag_28:\n        /* \"contracts/ERC721Attachment.sol\":2040:2053  string memory */\n      0x60\n        /* \"contracts/ERC721Attachment.sol\":2072:2077  _name */\n      0x00\n        /* \"contracts/ERC721Attachment.sol\":2065:2077  return _name */\n      dup1\n      sload\n      tag_90\n      swap1\n      tag_91\n      jump\t// in\n    tag_90:\n      dup1\n      0x1f\n      add\n      0x20\n      dup1\n      swap2\n      div\n      mul\n      0x20\n      add\n      mload(0x40)\n      swap1\n      dup2\n      add\n      0x40\n      mstore\n      dup1\n      swap3\n      swap2\n      swap1\n      dup2\n      dup2\n      mstore\n      0x20\n      add\n      dup3\n      dup1\n      sload\n      tag_92\n      swap1\n      tag_91\n      jump\t// in\n    tag_92:\n      dup1\n      iszero\n      tag_93\n      jumpi\n      dup1\n      0x1f\n      lt\n      tag_94\n      jumpi\n      0x0100\n      dup1\n      dup4\n      sload\n      div\n      mul\n      dup4\n      mstore\n      swap2\n      0x20\n      add\n      swap2\n      jump(tag_93)\n    tag_94:\n      dup3\n      add\n      swap2\n      swap1\n      0x00\n      mstore\n      keccak256(0x00, 0x20)\n      swap1\n    tag_95:\n      dup2\n      sload\n      dup2\n      mstore\n      swap1\n      0x01\n      add\n      swap1\n      0x20\n      add\n      dup1\n      dup4\n      gt\n      tag_95\n      jumpi\n      dup3\n      swap1\n      sub\n      0x1f\n      and\n      dup3\n      add\n      swap2\n    tag_93:\n      pop\n      pop\n      pop\n      pop\n      pop\n      swap1\n      pop\n        /* \"contracts/ERC721Attachment.sol\":1986:2084  function name() public view virtual override returns (string memory) {... */\n      swap1\n      jump\t// out\n        /* \"contracts/ERC721Attachment.sol\":3817:3936  function getApproved(uint256 tokenId) public view virtual override returns (address) {... */\n    tag_34:\n        /* \"contracts/ERC721Attachment.sol\":3893:3900  address */\n      0x00\n        /* \"contracts/ERC721Attachment.sol\":3817:3936  function getApproved(uint256 tokenId) public view virtual override returns (address) {... */\n      swap2\n      swap1\n      pop\n      jump\t// out\n        /* \"contracts/ERC721Attachment.sol\":3356:3756  function approve(address to, uint256 tokenId) public virtual override {... */\n    tag_40:\n        /* \"contracts/ERC721Attachment.sol\":3436:3449  address owner */\n      0x00\n        /* \"contracts/ERC721Attachment.sol\":3452:3468  ownerOf(tokenId) */\n      tag_98\n        /* \"contracts/ERC721Attachment.sol\":3460:3467  tokenId */\n      dup3\n        /* \"contracts/ERC721Attachment.sol\":3452:3459  ownerOf */\n      tag_56\n        /* \"contracts/ERC721Attachment.sol\":3452:3468  ownerOf(tokenId) */\n      jump\t// in\n    tag_98:\n        /* \"contracts/ERC721Attachment.sol\":3436:3468  address owner = ownerOf(tokenId) */\n      swap1\n      pop\n        /* \"contracts/ERC721Attachment.sol\":3492:3497  owner */\n      dup1\n        /* \"contracts/ERC721Attachment.sol\":3486:3497  to != owner */\n      0xffffffffffffffffffffffffffffffffffffffff\n      and\n        /* \"contracts/ERC721Attachment.sol\":3486:3488  to */\n      dup4\n        /* \"contracts/ERC721Attachment.sol\":3486:3497  to != owner */\n      0xffffffffffffffffffffffffffffffffffffffff\n      and\n      eq\n      iszero\n        /* \"contracts/ERC721Attachment.sol\":3478:3535  require(to != owner, \"ERC721: approval to current owner\") */\n      tag_99\n      jumpi\n      mload(0x40)\n      0x08c379a000000000000000000000000000000000000000000000000000000000\n      dup2\n      mstore\n      0x04\n      add\n      tag_100\n      swap1\n      tag_101\n      jump\t// in\n    tag_100:\n      mload(0x40)\n      dup1\n      swap2\n      sub\n      swap1\n      revert\n    tag_99:\n        /* \"contracts/ERC721Attachment.sol\":3583:3588  owner */\n      dup1\n        /* \"contracts/ERC721Attachment.sol\":3567:3588  _msgSender() == owner */\n      0xffffffffffffffffffffffffffffffffffffffff\n      and\n        /* \"contracts/ERC721Attachment.sol\":3567:3579  _msgSender() */\n      tag_102\n        /* \"contracts/ERC721Attachment.sol\":3567:3577  _msgSender */\n      tag_103\n        /* \"contracts/ERC721Attachment.sol\":3567:3579  _msgSender() */\n      jump\t// in\n    tag_102:\n        /* \"contracts/ERC721Attachment.sol\":3567:3588  _msgSender() == owner */\n      0xffffffffffffffffffffffffffffffffffffffff\n      and\n      eq\n        /* \"contracts/ERC721Attachment.sol\":3567:3629  _msgSender() == owner || isApprovedForAll(owner, _msgSender()) */\n      dup1\n      tag_104\n      jumpi\n      pop\n        /* \"contracts/ERC721Attachment.sol\":3592:3629  isApprovedForAll(owner, _msgSender()) */\n      tag_105\n        /* \"contracts/ERC721Attachment.sol\":3609:3614  owner */\n      dup2\n        /* \"contracts/ERC721Attachment.sol\":3616:3628  _msgSender() */\n      tag_106\n        /* \"contracts/ERC721Attachment.sol\":3616:3626  _msgSender */\n      tag_103\n        /* \"contracts/ERC721Attachment.sol\":3616:3628  _msgSender() */\n      jump\t// in\n    tag_106:\n        /* \"contracts/ERC721Attachment.sol\":3592:3608  isApprovedForAll */\n      tag_82\n        /* \"contracts/ERC721Attachment.sol\":3592:3629  isApprovedForAll(owner, _msgSender()) */\n      jump\t// in\n    tag_105:\n        /* \"contracts/ERC721Attachment.sol\":3567:3629  _msgSender() == owner || isApprovedForAll(owner, _msgSender()) */\n    tag_104:\n        /* \"contracts/ERC721Attachment.sol\":3546:3717  require(... */\n      tag_107\n      jumpi\n      mload(0x40)\n      0x08c379a000000000000000000000000000000000000000000000000000000000\n      dup2\n      mstore\n      0x04\n      add\n      tag_108\n      swap1\n      tag_109\n      jump\t// in\n    tag_108:\n      mload(0x40)\n      dup1\n      swap2\n      sub\n      swap1\n      revert\n    tag_107:\n        /* \"contracts/ERC721Attachment.sol\":3728:3749  _approve(to, tokenId) */\n      tag_110\n        /* \"contracts/ERC721Attachment.sol\":3737:3739  to */\n      dup4\n        /* \"contracts/ERC721Attachment.sol\":3741:3748  tokenId */\n      dup4\n        /* \"contracts/ERC721Attachment.sol\":3728:3736  _approve */\n      tag_111\n        /* \"contracts/ERC721Attachment.sol\":3728:3749  _approve(to, tokenId) */\n      jump\t// in\n    tag_110:\n        /* \"contracts/ERC721Attachment.sol\":3426:3756  {... */\n      pop\n        /* \"contracts/ERC721Attachment.sol\":3356:3756  function approve(address to, uint256 tokenId) public virtual override {... */\n      pop\n      pop\n      jump\t// out\n        /* \"contracts/SampleERC721Attachment.sol\":426:564  function mint() external {... */\n    tag_42:\n        /* \"contracts/SampleERC721Attachment.sol\":461:476  uint256 tokenId */\n      0x00\n        /* \"contracts/SampleERC721Attachment.sol\":479:490  nextTokenId */\n      sload(0x04)\n        /* \"contracts/SampleERC721Attachment.sol\":461:490  uint256 tokenId = nextTokenId */\n      swap1\n      pop\n        /* \"contracts/SampleERC721Attachment.sol\":528:529  1 */\n      0x01\n        /* \"contracts/SampleERC721Attachment.sol\":514:525  nextTokenId */\n      sload(0x04)\n        /* \"contracts/SampleERC721Attachment.sol\":514:529  nextTokenId + 1 */\n      tag_113\n      swap2\n      swap1\n      tag_114\n      jump\t// in\n    tag_113:\n        /* \"contracts/SampleERC721Attachment.sol\":500:511  nextTokenId */\n      0x04\n        /* \"contracts/SampleERC721Attachment.sol\":500:529  nextTokenId = nextTokenId + 1 */\n      dup2\n      swap1\n      sstore\n      pop\n        /* \"contracts/SampleERC721Attachment.sol\":539:559  super._mint(tokenId) */\n      tag_115\n        /* \"contracts/SampleERC721Attachment.sol\":551:558  tokenId */\n      dup2\n        /* \"contracts/SampleERC721Attachment.sol\":539:550  super._mint */\n      tag_116\n        /* \"contracts/SampleERC721Attachment.sol\":539:559  super._mint(tokenId) */\n      jump\t// in\n    tag_115:\n        /* \"contracts/SampleERC721Attachment.sol\":451:564  {... */\n      pop\n        /* \"contracts/SampleERC721Attachment.sol\":426:564  function mint() external {... */\n      jump\t// out\n        /* \"contracts/SampleERC721Attachment.sol\":570:751  function setTokenURI(uint256 _tokenId, string memory _message) external {... */\n    tag_46:\n        /* \"contracts/SampleERC721Attachment.sol\":674:697  super.ownerOf(_tokenId) */\n      tag_118\n        /* \"contracts/SampleERC721Attachment.sol\":688:696  _tokenId */\n      dup3\n        /* \"contracts/SampleERC721Attachment.sol\":674:687  super.ownerOf */\n      tag_56\n        /* \"contracts/SampleERC721Attachment.sol\":674:697  super.ownerOf(_tokenId) */\n      jump\t// in\n    tag_118:\n        /* \"contracts/SampleERC721Attachment.sol\":660:697  msg.sender == super.ownerOf(_tokenId) */\n      0xffffffffffffffffffffffffffffffffffffffff\n      and\n        /* \"contracts/SampleERC721Attachment.sol\":660:670  msg.sender */\n      caller\n        /* \"contracts/SampleERC721Attachment.sol\":660:697  msg.sender == super.ownerOf(_tokenId) */\n      0xffffffffffffffffffffffffffffffffffffffff\n      and\n      eq\n        /* \"contracts/SampleERC721Attachment.sol\":652:698  require(msg.sender == super.ownerOf(_tokenId)) */\n      tag_119\n      jumpi\n      0x00\n      dup1\n      revert\n    tag_119:\n        /* \"contracts/SampleERC721Attachment.sol\":708:746  super._setTokenURI(_tokenId, _message) */\n      tag_120\n        /* \"contracts/SampleERC721Attachment.sol\":727:735  _tokenId */\n      dup3\n        /* \"contracts/SampleERC721Attachment.sol\":737:745  _message */\n      dup3\n        /* \"contracts/SampleERC721Attachment.sol\":708:726  super._setTokenURI */\n      tag_121\n        /* \"contracts/SampleERC721Attachment.sol\":708:746  super._setTokenURI(_tokenId, _message) */\n      jump\t// in\n    tag_120:\n        /* \"contracts/SampleERC721Attachment.sol\":570:751  function setTokenURI(uint256 _tokenId, string memory _message) external {... */\n      pop\n      pop\n      jump\t// out\n        /* \"contracts/ERC721Attachment.sol\":4394:4721  function transferFrom(... */\n    tag_50:\n        /* \"contracts/ERC721Attachment.sol\":4583:4624  _isApprovedOrOwner(_msgSender(), tokenId) */\n      tag_123\n        /* \"contracts/ERC721Attachment.sol\":4602:4614  _msgSender() */\n      tag_124\n        /* \"contracts/ERC721Attachment.sol\":4602:4612  _msgSender */\n      tag_103\n        /* \"contracts/ERC721Attachment.sol\":4602:4614  _msgSender() */\n      jump\t// in\n    tag_124:\n        /* \"contracts/ERC721Attachment.sol\":4616:4623  tokenId */\n      dup3\n        /* \"contracts/ERC721Attachment.sol\":4583:4601  _isApprovedOrOwner */\n      tag_125\n        /* \"contracts/ERC721Attachment.sol\":4583:4624  _isApprovedOrOwner(_msgSender(), tokenId) */\n      jump\t// in\n    tag_123:\n        /* \"contracts/ERC721Attachment.sol\":4575:4675  require(_isApprovedOrOwner(_msgSender(), tokenId), \"ERC721: caller is not token owner nor approved\") */\n      tag_126\n      jumpi\n      mload(0x40)\n      0x08c379a000000000000000000000000000000000000000000000000000000000\n      dup2\n      mstore\n      0x04\n      add\n      tag_127\n      swap1\n      tag_128\n      jump\t// in\n    tag_127:\n      mload(0x40)\n      dup1\n      swap2\n      sub\n      swap1\n      revert\n    tag_126:\n        /* \"contracts/ERC721Attachment.sol\":4686:4714  _transfer(from, to, tokenId) */\n      tag_129\n        /* \"contracts/ERC721Attachment.sol\":4696:4700  from */\n      dup4\n        /* \"contracts/ERC721Attachment.sol\":4702:4704  to */\n      dup4\n        /* \"contracts/ERC721Attachment.sol\":4706:4713  tokenId */\n      dup4\n        /* \"contracts/ERC721Attachment.sol\":4686:4695  _transfer */\n      tag_130\n        /* \"contracts/ERC721Attachment.sol\":4686:4714  _transfer(from, to, tokenId) */\n      jump\t// in\n    tag_129:\n        /* \"contracts/ERC721Attachment.sol\":4394:4721  function transferFrom(... */\n      pop\n      pop\n      pop\n      jump\t// out\n        /* \"contracts/ERC721Attachment.sol\":4787:4966  function safeTransferFrom(... */\n    tag_53:\n        /* \"contracts/ERC721Attachment.sol\":4920:4959  safeTransferFrom(from, to, tokenId, \"\") */\n      tag_132\n        /* \"contracts/ERC721Attachment.sol\":4937:4941  from */\n      dup4\n        /* \"contracts/ERC721Attachment.sol\":4943:4945  to */\n      dup4\n        /* \"contracts/ERC721Attachment.sol\":4947:4954  tokenId */\n      dup4\n        /* \"contracts/ERC721Attachment.sol\":4920:4959  safeTransferFrom(from, to, tokenId, \"\") */\n      mload(0x40)\n      dup1\n      0x20\n      add\n      0x40\n      mstore\n      dup1\n      0x00\n      dup2\n      mstore\n      pop\n        /* \"contracts/ERC721Attachment.sol\":4920:4936  safeTransferFrom */\n      tag_74\n        /* \"contracts/ERC721Attachment.sol\":4920:4959  safeTransferFrom(from, to, tokenId, \"\") */\n      jump\t// in\n    tag_132:\n        /* \"contracts/ERC721Attachment.sol\":4787:4966  function safeTransferFrom(... */\n      pop\n      pop\n      pop\n      jump\t// out\n        /* \"contracts/ERC721Attachment.sol\":1684:1924  function ownerOf(uint256 tokenId) public view virtual override returns (address) {... */\n    tag_56:\n        /* \"contracts/ERC721Attachment.sol\":1756:1763  address */\n      0x00\n        /* \"contracts/ERC721Attachment.sol\":1775:1788  address owner */\n      dup1\n        /* \"contracts/ERC721Attachment.sol\":1799:1811  _refreeToken */\n      0x02\n      0x00\n      swap1\n      sload\n      swap1\n      0x0100\n      exp\n      swap1\n      div\n      0xffffffffffffffffffffffffffffffffffffffff\n      and\n        /* \"contracts/ERC721Attachment.sol\":1791:1820  IERC721(_refreeToken).ownerOf */\n      0xffffffffffffffffffffffffffffffffffffffff\n      and\n      0x6352211e\n        /* \"contracts/ERC721Attachment.sol\":1821:1828  tokenId */\n      dup5\n        /* \"contracts/ERC721Attachment.sol\":1791:1829  IERC721(_refreeToken).ownerOf(tokenId) */\n      mload(0x40)\n      dup3\n      0xffffffff\n      and\n      0xe0\n      shl\n      dup2\n      mstore\n      0x04\n      add\n      tag_134\n      swap2\n      swap1\n      tag_63\n      jump\t// in\n    tag_134:\n      0x20\n      mload(0x40)\n      dup1\n      dup4\n      sub\n      dup2\n      dup7\n      dup1\n      extcodesize\n      iszero\n      dup1\n      iszero\n      tag_135\n      jumpi\n      0x00\n      dup1\n      revert\n    tag_135:\n      pop\n      gas\n      staticcall\n      iszero\n      dup1\n      iszero\n      tag_137\n      jumpi\n      returndatasize\n      0x00\n      dup1\n      returndatacopy\n      revert(0x00, returndatasize)\n    tag_137:\n      pop\n      pop\n      pop\n      pop\n      mload(0x40)\n      returndatasize\n      not(0x1f)\n      0x1f\n      dup3\n      add\n      and\n      dup3\n      add\n      dup1\n      0x40\n      mstore\n      pop\n      dup2\n      add\n      swap1\n      tag_138\n      swap2\n      swap1\n      tag_139\n      jump\t// in\n    tag_138:\n        /* \"contracts/ERC721Attachment.sol\":1775:1829  address owner = IERC721(_refreeToken).ownerOf(tokenId) */\n      swap1\n      pop\n        /* \"contracts/ERC721Attachment.sol\":1864:1865  0 */\n      0x00\n        /* \"contracts/ERC721Attachment.sol\":1847:1866  owner != address(0) */\n      0xffffffffffffffffffffffffffffffffffffffff\n      and\n        /* \"contracts/ERC721Attachment.sol\":1847:1852  owner */\n      dup2\n        /* \"contracts/ERC721Attachment.sol\":1847:1866  owner != address(0) */\n      0xffffffffffffffffffffffffffffffffffffffff\n      and\n      eq\n      iszero\n        /* \"contracts/ERC721Attachment.sol\":1839:1895  require(owner != address(0), \"ERC721: invalid token ID\") */\n      tag_140\n      jumpi\n      mload(0x40)\n      0x08c379a000000000000000000000000000000000000000000000000000000000\n      dup2\n      mstore\n      0x04\n      add\n      tag_141\n      swap1\n      tag_142\n      jump\t// in\n    tag_141:\n      mload(0x40)\n      dup1\n      swap2\n      sub\n      swap1\n      revert\n    tag_140:\n        /* \"contracts/ERC721Attachment.sol\":1912:1917  owner */\n      dup1\n        /* \"contracts/ERC721Attachment.sol\":1905:1917  return owner */\n      swap2\n      pop\n      pop\n        /* \"contracts/ERC721Attachment.sol\":1684:1924  function ownerOf(uint256 tokenId) public view virtual override returns (address) {... */\n      swap2\n      swap1\n      pop\n      jump\t// out\n        /* \"contracts/ERC721Attachment.sol\":1401:1627  function balanceOf(address owner) public view virtual override returns (uint256) {... */\n    tag_61:\n        /* \"contracts/ERC721Attachment.sol\":1473:1480  uint256 */\n      0x00\n        /* \"contracts/ERC721Attachment.sol\":1517:1518  0 */\n      dup1\n        /* \"contracts/ERC721Attachment.sol\":1500:1519  owner != address(0) */\n      0xffffffffffffffffffffffffffffffffffffffff\n      and\n        /* \"contracts/ERC721Attachment.sol\":1500:1505  owner */\n      dup3\n        /* \"contracts/ERC721Attachment.sol\":1500:1519  owner != address(0) */\n      0xffffffffffffffffffffffffffffffffffffffff\n      and\n      eq\n      iszero\n        /* \"contracts/ERC721Attachment.sol\":1492:1565  require(owner != address(0), \"ERC721: address zero is not a valid owner\") */\n      tag_144\n      jumpi\n      mload(0x40)\n      0x08c379a000000000000000000000000000000000000000000000000000000000\n      dup2\n      mstore\n      0x04\n      add\n      tag_145\n      swap1\n      tag_146\n      jump\t// in\n    tag_145:\n      mload(0x40)\n      dup1\n      swap2\n      sub\n      swap1\n      revert\n    tag_144:\n        /* \"contracts/ERC721Attachment.sol\":1590:1602  _refreeToken */\n      0x02\n      0x00\n      swap1\n      sload\n      swap1\n      0x0100\n      exp\n      swap1\n      div\n      0xffffffffffffffffffffffffffffffffffffffff\n      and\n        /* \"contracts/ERC721Attachment.sol\":1582:1613  IERC721(_refreeToken).balanceOf */\n      0xffffffffffffffffffffffffffffffffffffffff\n      and\n      0x70a08231\n        /* \"contracts/ERC721Attachment.sol\":1614:1619  owner */\n      dup4\n        /* \"contracts/ERC721Attachment.sol\":1582:1620  IERC721(_refreeToken).balanceOf(owner) */\n      mload(0x40)\n      dup3\n      0xffffffff\n      and\n      0xe0\n      shl\n      dup2\n      mstore\n      0x04\n      add\n      tag_147\n      swap2\n      swap1\n      tag_36\n      jump\t// in\n    tag_147:\n      0x20\n      mload(0x40)\n      dup1\n      dup4\n      sub\n      dup2\n      dup7\n      dup1\n      extcodesize\n      iszero\n      dup1\n      iszero\n      tag_148\n      jumpi\n      0x00\n      dup1\n      revert\n    tag_148:\n      pop\n      gas\n      staticcall\n      iszero\n      dup1\n      iszero\n      tag_150\n      jumpi\n      returndatasize\n      0x00\n      dup1\n      returndatacopy\n      revert(0x00, returndatasize)\n    tag_150:\n      pop\n      pop\n      pop\n      pop\n      mload(0x40)\n      returndatasize\n      not(0x1f)\n      0x1f\n      dup3\n      add\n      and\n      dup3\n      add\n      dup1\n      0x40\n      mstore\n      pop\n      dup2\n      add\n      swap1\n      tag_151\n      swap2\n      swap1\n      tag_152\n      jump\t// in\n    tag_151:\n        /* \"contracts/ERC721Attachment.sol\":1575:1620  return IERC721(_refreeToken).balanceOf(owner) */\n      swap1\n      pop\n        /* \"contracts/ERC721Attachment.sol\":1401:1627  function balanceOf(address owner) public view virtual override returns (uint256) {... */\n      swap2\n      swap1\n      pop\n      jump\t// out\n        /* \"contracts/ERC721Attachment.sol\":2148:2250  function symbol() public view virtual override returns (string memory) {... */\n    tag_65:\n        /* \"contracts/ERC721Attachment.sol\":2204:2217  string memory */\n      0x60\n        /* \"contracts/ERC721Attachment.sol\":2236:2243  _symbol */\n      0x01\n        /* \"contracts/ERC721Attachment.sol\":2229:2243  return _symbol */\n      dup1\n      sload\n      tag_154\n      swap1\n      tag_91\n      jump\t// in\n    tag_154:\n      dup1\n      0x1f\n      add\n      0x20\n      dup1\n      swap2\n      div\n      mul\n      0x20\n      add\n      mload(0x40)\n      swap1\n      dup2\n      add\n      0x40\n      mstore\n      dup1\n      swap3\n      swap2\n      swap1\n      dup2\n      dup2\n      mstore\n      0x20\n      add\n      dup3\n      dup1\n      sload\n      tag_155\n      swap1\n      tag_91\n      jump\t// in\n    tag_155:\n      dup1\n      iszero\n      tag_156\n      jumpi\n      dup1\n      0x1f\n      lt\n      tag_157\n      jumpi\n      0x0100\n      dup1\n      dup4\n      sload\n      div\n      mul\n      dup4\n      mstore\n      swap2\n      0x20\n      add\n      swap2\n      jump(tag_156)\n    tag_157:\n      dup3\n      add\n      swap2\n      swap1\n      0x00\n      mstore\n      keccak256(0x00, 0x20)\n      swap1\n    tag_158:\n      dup2\n      sload\n      dup2\n      mstore\n      swap1\n      0x01\n      add\n      swap1\n      0x20\n      add\n      dup1\n      dup4\n      gt\n      tag_158\n      jumpi\n      dup3\n      swap1\n      sub\n      0x1f\n      and\n      dup3\n      add\n      swap2\n    tag_156:\n      pop\n      pop\n      pop\n      pop\n      pop\n      swap1\n      pop\n        /* \"contracts/ERC721Attachment.sol\":2148:2250  function symbol() public view virtual override returns (string memory) {... */\n      swap1\n      jump\t// out\n        /* \"contracts/ERC721Attachment.sol\":4003:4156  function setApprovalForAll(address operator, bool approved) public virtual override {... */\n    tag_70:\n        /* \"contracts/ERC721Attachment.sol\":4097:4149  _setApprovalForAll(_msgSender(), operator, approved) */\n      tag_160\n        /* \"contracts/ERC721Attachment.sol\":4116:4128  _msgSender() */\n      tag_161\n        /* \"contracts/ERC721Attachment.sol\":4116:4126  _msgSender */\n      tag_103\n        /* \"contracts/ERC721Attachment.sol\":4116:4128  _msgSender() */\n      jump\t// in\n    tag_161:\n        /* \"contracts/ERC721Attachment.sol\":4130:4138  operator */\n      dup4\n        /* \"contracts/ERC721Attachment.sol\":4140:4148  approved */\n      dup4\n        /* \"contracts/ERC721Attachment.sol\":4097:4115  _setApprovalForAll */\n      tag_162\n        /* \"contracts/ERC721Attachment.sol\":4097:4149  _setApprovalForAll(_msgSender(), operator, approved) */\n      jump\t// in\n    tag_160:\n        /* \"contracts/ERC721Attachment.sol\":4003:4156  function setApprovalForAll(address operator, bool approved) public virtual override {... */\n      pop\n      pop\n      jump\t// out\n        /* \"contracts/ERC721Attachment.sol\":5032:5347  function safeTransferFrom(... */\n    tag_74:\n        /* \"contracts/ERC721Attachment.sol\":5200:5241  _isApprovedOrOwner(_msgSender(), tokenId) */\n      tag_164\n        /* \"contracts/ERC721Attachment.sol\":5219:5231  _msgSender() */\n      tag_165\n        /* \"contracts/ERC721Attachment.sol\":5219:5229  _msgSender */\n      tag_103\n        /* \"contracts/ERC721Attachment.sol\":5219:5231  _msgSender() */\n      jump\t// in\n    tag_165:\n        /* \"contracts/ERC721Attachment.sol\":5233:5240  tokenId */\n      dup4\n        /* \"contracts/ERC721Attachment.sol\":5200:5218  _isApprovedOrOwner */\n      tag_125\n        /* \"contracts/ERC721Attachment.sol\":5200:5241  _isApprovedOrOwner(_msgSender(), tokenId) */\n      jump\t// in\n    tag_164:\n        /* \"contracts/ERC721Attachment.sol\":5192:5292  require(_isApprovedOrOwner(_msgSender(), tokenId), \"ERC721: caller is not token owner nor approved\") */\n      tag_166\n      jumpi\n      mload(0x40)\n      0x08c379a000000000000000000000000000000000000000000000000000000000\n      dup2\n      mstore\n      0x04\n      add\n      tag_167\n      swap1\n      tag_128\n      jump\t// in\n    tag_167:\n      mload(0x40)\n      dup1\n      swap2\n      sub\n      swap1\n      revert\n    tag_166:\n        /* \"contracts/ERC721Attachment.sol\":5302:5340  _safeTransfer(from, to, tokenId, data) */\n      tag_168\n        /* \"contracts/ERC721Attachment.sol\":5316:5320  from */\n      dup5\n        /* \"contracts/ERC721Attachment.sol\":5322:5324  to */\n      dup5\n        /* \"contracts/ERC721Attachment.sol\":5326:5333  tokenId */\n      dup5\n        /* \"contracts/ERC721Attachment.sol\":5335:5339  data */\n      dup5\n        /* \"contracts/ERC721Attachment.sol\":5302:5315  _safeTransfer */\n      tag_169\n        /* \"contracts/ERC721Attachment.sol\":5302:5340  _safeTransfer(from, to, tokenId, data) */\n      jump\t// in\n    tag_168:\n        /* \"contracts/ERC721Attachment.sol\":5032:5347  function safeTransferFrom(... */\n      pop\n      pop\n      pop\n      pop\n      jump\t// out\n        /* \"contracts/ERC721Attachment.sol\":2316:2592  function tokenURI(uint256 tokenId) public view virtual override returns (string memory) {... */\n    tag_77:\n        /* \"contracts/ERC721Attachment.sol\":2389:2402  string memory */\n      0x60\n        /* \"contracts/ERC721Attachment.sol\":2414:2437  _requireMinted(tokenId) */\n      tag_171\n        /* \"contracts/ERC721Attachment.sol\":2429:2436  tokenId */\n      dup3\n        /* \"contracts/ERC721Attachment.sol\":2414:2428  _requireMinted */\n      tag_172\n        /* \"contracts/ERC721Attachment.sol\":2414:2437  _requireMinted(tokenId) */\n      jump\t// in\n    tag_171:\n        /* \"contracts/ERC721Attachment.sol\":2448:2469  string memory baseURI */\n      0x00\n        /* \"contracts/ERC721Attachment.sol\":2472:2482  _baseURI() */\n      tag_173\n        /* \"contracts/ERC721Attachment.sol\":2472:2480  _baseURI */\n      tag_174\n        /* \"contracts/ERC721Attachment.sol\":2472:2482  _baseURI() */\n      jump\t// in\n    tag_173:\n        /* \"contracts/ERC721Attachment.sol\":2448:2482  string memory baseURI = _baseURI() */\n      swap1\n      pop\n        /* \"contracts/ERC721Attachment.sol\":2523:2524  0 */\n      0x00\n        /* \"contracts/ERC721Attachment.sol\":2505:2512  baseURI */\n      dup2\n        /* \"contracts/ERC721Attachment.sol\":2499:2520  bytes(baseURI).length */\n      mload\n        /* \"contracts/ERC721Attachment.sol\":2499:2524  bytes(baseURI).length > 0 */\n      gt\n        /* \"contracts/ERC721Attachment.sol\":2499:2585  bytes(baseURI).length > 0 ? string(abi.encodePacked(baseURI, tokenId.toString())) : \"\" */\n      tag_175\n      jumpi\n      mload(0x40)\n      dup1\n      0x20\n      add\n      0x40\n      mstore\n      dup1\n      0x00\n      dup2\n      mstore\n      pop\n      jump(tag_176)\n    tag_175:\n        /* \"contracts/ERC721Attachment.sol\":2551:2558  baseURI */\n      dup1\n        /* \"contracts/ERC721Attachment.sol\":2560:2578  tokenId.toString() */\n      tag_177\n        /* \"contracts/ERC721Attachment.sol\":2560:2567  tokenId */\n      dup5\n        /* \"contracts/ERC721Attachment.sol\":2560:2576  tokenId.toString */\n      tag_178\n        /* \"contracts/ERC721Attachment.sol\":2560:2578  tokenId.toString() */\n      jump\t// in\n    tag_177:\n        /* \"contracts/ERC721Attachment.sol\":2534:2579  abi.encodePacked(baseURI, tokenId.toString()) */\n      add(0x20, mload(0x40))\n      tag_179\n      swap3\n      swap2\n      swap1\n      tag_180\n      jump\t// in\n    tag_179:\n      mload(0x40)\n      0x20\n      dup2\n      dup4\n      sub\n      sub\n      dup2\n      mstore\n      swap1\n      0x40\n      mstore\n        /* \"contracts/ERC721Attachment.sol\":2499:2585  bytes(baseURI).length > 0 ? string(abi.encodePacked(baseURI, tokenId.toString())) : \"\" */\n    tag_176:\n        /* \"contracts/ERC721Attachment.sol\":2492:2585  return bytes(baseURI).length > 0 ? string(abi.encodePacked(baseURI, tokenId.toString())) : \"\" */\n      swap2\n      pop\n      pop\n        /* \"contracts/ERC721Attachment.sol\":2316:2592  function tokenURI(uint256 tokenId) public view virtual override returns (string memory) {... */\n      swap2\n      swap1\n      pop\n      jump\t// out\n        /* \"contracts/ERC721Attachment.sol\":4222:4332  function isApprovedForAll(address owner, address operator) public view virtual override returns (bool) {... */\n    tag_82:\n        /* \"contracts/ERC721Attachment.sol\":4319:4323  bool */\n      0x00\n        /* \"contracts/ERC721Attachment.sol\":4222:4332  function isApprovedForAll(address owner, address operator) public view virtual override returns (bool) {... */\n      swap3\n      swap2\n      pop\n      pop\n      jump\t// out\n        /* \"@openzeppelin/contracts/utils/introspection/ERC165.sol\":829:984  function supportsInterface(bytes4 interfaceId) public view virtual override returns (bool) {... */\n    tag_88:\n        /* \"@openzeppelin/contracts/utils/introspection/ERC165.sol\":914:918  bool */\n      0x00\n        /* \"@openzeppelin/contracts/utils/introspection/ERC165.sol\":952:977  type(IERC165).interfaceId */\n      0x01ffc9a700000000000000000000000000000000000000000000000000000000\n        /* \"@openzeppelin/contracts/utils/introspection/ERC165.sol\":937:977  interfaceId == type(IERC165).interfaceId */\n      not(0xffffffffffffffffffffffffffffffffffffffffffffffffffffffff)\n      and\n        /* \"@openzeppelin/contracts/utils/introspection/ERC165.sol\":937:948  interfaceId */\n      dup3\n        /* \"@openzeppelin/contracts/utils/introspection/ERC165.sol\":937:977  interfaceId == type(IERC165).interfaceId */\n      not(0xffffffffffffffffffffffffffffffffffffffffffffffffffffffff)\n      and\n      eq\n        /* \"@openzeppelin/contracts/utils/introspection/ERC165.sol\":930:977  return interfaceId == type(IERC165).interfaceId */\n      swap1\n      pop\n        /* \"@openzeppelin/contracts/utils/introspection/ERC165.sol\":829:984  function supportsInterface(bytes4 interfaceId) public view virtual override returns (bool) {... */\n      swap2\n      swap1\n      pop\n      jump\t// out\n        /* \"@openzeppelin/contracts/utils/Context.sol\":640:736  function _msgSender() internal view virtual returns (address) {... */\n    tag_103:\n        /* \"@openzeppelin/contracts/utils/Context.sol\":693:700  address */\n      0x00\n        /* \"@openzeppelin/contracts/utils/Context.sol\":719:729  msg.sender */\n      caller\n        /* \"@openzeppelin/contracts/utils/Context.sol\":712:729  return msg.sender */\n      swap1\n      pop\n        /* \"@openzeppelin/contracts/utils/Context.sol\":640:736  function _msgSender() internal view virtual returns (address) {... */\n      swap1\n      jump\t// out\n        /* \"contracts/ERC721Attachment.sol\":8778:8903  function _approve(address to, uint256 tokenId) internal virtual {... */\n    tag_111:\n        /* \"contracts/ERC721Attachment.sol\":8888:8895  tokenId */\n      dup1\n        /* \"contracts/ERC721Attachment.sol\":8884:8886  to */\n      dup3\n        /* \"contracts/ERC721Attachment.sol\":8857:8896  Approval(ownerOf(tokenId), to, tokenId) */\n      0xffffffffffffffffffffffffffffffffffffffff\n      and\n        /* \"contracts/ERC721Attachment.sol\":8866:8882  ownerOf(tokenId) */\n      tag_185\n        /* \"contracts/ERC721Attachment.sol\":8874:8881  tokenId */\n      dup4\n        /* \"contracts/ERC721Attachment.sol\":8866:8873  ownerOf */\n      tag_56\n        /* \"contracts/ERC721Attachment.sol\":8866:8882  ownerOf(tokenId) */\n      jump\t// in\n    tag_185:\n        /* \"contracts/ERC721Attachment.sol\":8857:8896  Approval(ownerOf(tokenId), to, tokenId) */\n      0xffffffffffffffffffffffffffffffffffffffff\n      and\n      0x8c5be1e5ebec7d5bd14f71427d1e84f3dd0314c0f7b2291e5b200ac8c7c3b925\n      mload(0x40)\n      mload(0x40)\n      dup1\n      swap2\n      sub\n      swap1\n      log4\n        /* \"contracts/ERC721Attachment.sol\":8778:8903  function _approve(address to, uint256 tokenId) internal virtual {... */\n      pop\n      pop\n      jump\t// out\n        /* \"contracts/ERC721Attachment.sol\":7059:7278  function _mint(uint256 tokenId) internal virtual {... */\n    tag_116:\n        /* \"contracts/ERC721Attachment.sol\":7136:7152  _exists(tokenId) */\n      tag_187\n        /* \"contracts/ERC721Attachment.sol\":7144:7151  tokenId */\n      dup2\n        /* \"contracts/ERC721Attachment.sol\":7136:7143  _exists */\n      tag_188\n        /* \"contracts/ERC721Attachment.sol\":7136:7152  _exists(tokenId) */\n      jump\t// in\n    tag_187:\n        /* \"contracts/ERC721Attachment.sol\":7135:7152  !_exists(tokenId) */\n      iszero\n        /* \"contracts/ERC721Attachment.sol\":7127:7185  require(!_exists(tokenId), \"ERC721: token already minted\") */\n      tag_189\n      jumpi\n      mload(0x40)\n      0x08c379a000000000000000000000000000000000000000000000000000000000\n      dup2\n      mstore\n      0x04\n      add\n      tag_190\n      swap1\n      tag_191\n      jump\t// in\n    tag_190:\n      mload(0x40)\n      dup1\n      swap2\n      sub\n      swap1\n      revert\n    tag_189:\n        /* \"contracts/ERC721Attachment.sol\":7262:7269  tokenId */\n      dup1\n        /* \"contracts/ERC721Attachment.sol\":7230:7242  _refreeToken */\n      0x02\n      0x00\n      swap1\n      sload\n      swap1\n      0x0100\n      exp\n      swap1\n      div\n      0xffffffffffffffffffffffffffffffffffffffff\n      and\n        /* \"contracts/ERC721Attachment.sol\":7222:7251  IERC721(_refreeToken).ownerOf */\n      0xffffffffffffffffffffffffffffffffffffffff\n      and\n      0x6352211e\n        /* \"contracts/ERC721Attachment.sol\":7252:7259  tokenId */\n      dup4\n        /* \"contracts/ERC721Attachment.sol\":7222:7260  IERC721(_refreeToken).ownerOf(tokenId) */\n      mload(0x40)\n      dup3\n      0xffffffff\n      and\n      0xe0\n      shl\n      dup2\n      mstore\n      0x04\n      add\n      tag_192\n      swap2\n      swap1\n      tag_63\n      jump\t// in\n    tag_192:\n      0x20\n      mload(0x40)\n      dup1\n      dup4\n      sub\n      dup2\n      dup7\n      dup1\n      extcodesize\n      iszero\n      dup1\n      iszero\n      tag_193\n      jumpi\n      0x00\n      dup1\n      revert\n    tag_193:\n      pop\n      gas\n      staticcall\n      iszero\n      dup1\n      iszero\n      tag_195\n      jumpi\n      returndatasize\n      0x00\n      dup1\n      returndatacopy\n      revert(0x00, returndatasize)\n    tag_195:\n      pop\n      pop\n      pop\n      pop\n      mload(0x40)\n      returndatasize\n      not(0x1f)\n      0x1f\n      dup3\n      add\n      and\n      dup3\n      add\n      dup1\n      0x40\n      mstore\n      pop\n      dup2\n      add\n      swap1\n      tag_196\n      swap2\n      swap1\n      tag_139\n      jump\t// in\n    tag_196:\n        /* \"contracts/ERC721Attachment.sol\":7201:7270  Transfer(address(0), IERC721(_refreeToken).ownerOf(tokenId), tokenId) */\n      0xffffffffffffffffffffffffffffffffffffffff\n      and\n        /* \"contracts/ERC721Attachment.sol\":7218:7219  0 */\n      0x00\n        /* \"contracts/ERC721Attachment.sol\":7201:7270  Transfer(address(0), IERC721(_refreeToken).ownerOf(tokenId), tokenId) */\n      0xffffffffffffffffffffffffffffffffffffffff\n      and\n      0xddf252ad1be2c89b69c2b068fc378daa952ba7f163c4a11628f55a4df523b3ef\n      mload(0x40)\n      mload(0x40)\n      dup1\n      swap2\n      sub\n      swap1\n      log4\n        /* \"contracts/ERC721Attachment.sol\":7059:7278  function _mint(uint256 tokenId) internal virtual {... */\n      pop\n      jump\t// out\n        /* \"contracts/ERC721Attachment.sol\":10234:10372  function _setTokenURI(uint256 _tokenId, string memory _uri) internal {... */\n    tag_121:\n        /* \"contracts/ERC721Attachment.sol\":10317:10334  _exists(_tokenId) */\n      tag_198\n        /* \"contracts/ERC721Attachment.sol\":10325:10333  _tokenId */\n      dup3\n        /* \"contracts/ERC721Attachment.sol\":10317:10324  _exists */\n      tag_188\n        /* \"contracts/ERC721Attachment.sol\":10317:10334  _exists(_tokenId) */\n      jump\t// in\n    tag_198:\n        /* \"contracts/ERC721Attachment.sol\":10309:10335  require(_exists(_tokenId)) */\n      tag_199\n      jumpi\n      0x00\n      dup1\n      revert\n    tag_199:\n        /* \"contracts/ERC721Attachment.sol\":10363:10367  _uri */\n      dup1\n        /* \"contracts/ERC721Attachment.sol\":10341:10350  tokenURIs */\n      0x03\n        /* \"contracts/ERC721Attachment.sol\":10341:10360  tokenURIs[_tokenId] */\n      0x00\n        /* \"contracts/ERC721Attachment.sol\":10351:10359  _tokenId */\n      dup5\n        /* \"contracts/ERC721Attachment.sol\":10341:10360  tokenURIs[_tokenId] */\n      dup2\n      mstore\n      0x20\n      add\n      swap1\n      dup2\n      mstore\n      0x20\n      add\n      0x00\n      keccak256\n        /* \"contracts/ERC721Attachment.sol\":10341:10367  tokenURIs[_tokenId] = _uri */\n      swap1\n      dup1\n      mload\n      swap1\n      0x20\n      add\n      swap1\n      tag_200\n      swap3\n      swap2\n      swap1\n      tag_201\n      jump\t// in\n    tag_200:\n      pop\n        /* \"contracts/ERC721Attachment.sol\":10234:10372  function _setTokenURI(uint256 _tokenId, string memory _uri) internal {... */\n      pop\n      pop\n      jump\t// out\n        /* \"contracts/ERC721Attachment.sol\":6551:6805  function _isApprovedOrOwner(address spender, uint256 tokenId) internal view virtual returns (bool) {... */\n    tag_125:\n        /* \"contracts/ERC721Attachment.sol\":6644:6648  bool */\n      0x00\n        /* \"contracts/ERC721Attachment.sol\":6660:6673  address owner */\n      dup1\n        /* \"contracts/ERC721Attachment.sol\":6676:6692  ownerOf(tokenId) */\n      tag_203\n        /* \"contracts/ERC721Attachment.sol\":6684:6691  tokenId */\n      dup4\n        /* \"contracts/ERC721Attachment.sol\":6676:6683  ownerOf */\n      tag_56\n        /* \"contracts/ERC721Attachment.sol\":6676:6692  ownerOf(tokenId) */\n      jump\t// in\n    tag_203:\n        /* \"contracts/ERC721Attachment.sol\":6660:6692  address owner = ownerOf(tokenId) */\n      swap1\n      pop\n        /* \"contracts/ERC721Attachment.sol\":6721:6726  owner */\n      dup1\n        /* \"contracts/ERC721Attachment.sol\":6710:6726  spender == owner */\n      0xffffffffffffffffffffffffffffffffffffffff\n      and\n        /* \"contracts/ERC721Attachment.sol\":6710:6717  spender */\n      dup5\n        /* \"contracts/ERC721Attachment.sol\":6710:6726  spender == owner */\n      0xffffffffffffffffffffffffffffffffffffffff\n      and\n      eq\n        /* \"contracts/ERC721Attachment.sol\":6710:6762  spender == owner || isApprovedForAll(owner, spender) */\n      dup1\n      tag_204\n      jumpi\n      pop\n        /* \"contracts/ERC721Attachment.sol\":6730:6762  isApprovedForAll(owner, spender) */\n      tag_205\n        /* \"contracts/ERC721Attachment.sol\":6747:6752  owner */\n      dup2\n        /* \"contracts/ERC721Attachment.sol\":6754:6761  spender */\n      dup6\n        /* \"contracts/ERC721Attachment.sol\":6730:6746  isApprovedForAll */\n      tag_82\n        /* \"contracts/ERC721Attachment.sol\":6730:6762  isApprovedForAll(owner, spender) */\n      jump\t// in\n    tag_205:\n        /* \"contracts/ERC721Attachment.sol\":6710:6762  spender == owner || isApprovedForAll(owner, spender) */\n    tag_204:\n        /* \"contracts/ERC721Attachment.sol\":6710:6797  spender == owner || isApprovedForAll(owner, spender) || getApproved(tokenId) == spender */\n      dup1\n      tag_206\n      jumpi\n      pop\n        /* \"contracts/ERC721Attachment.sol\":6790:6797  spender */\n      dup4\n        /* \"contracts/ERC721Attachment.sol\":6766:6797  getApproved(tokenId) == spender */\n      0xffffffffffffffffffffffffffffffffffffffff\n      and\n        /* \"contracts/ERC721Attachment.sol\":6766:6786  getApproved(tokenId) */\n      tag_207\n        /* \"contracts/ERC721Attachment.sol\":6778:6785  tokenId */\n      dup5\n        /* \"contracts/ERC721Attachment.sol\":6766:6777  getApproved */\n      tag_34\n        /* \"contracts/ERC721Attachment.sol\":6766:6786  getApproved(tokenId) */\n      jump\t// in\n    tag_207:\n        /* \"contracts/ERC721Attachment.sol\":6766:6797  getApproved(tokenId) == spender */\n      0xffffffffffffffffffffffffffffffffffffffff\n      and\n      eq\n        /* \"contracts/ERC721Attachment.sol\":6710:6797  spender == owner || isApprovedForAll(owner, spender) || getApproved(tokenId) == spender */\n    tag_206:\n        /* \"contracts/ERC721Attachment.sol\":6702:6798  return (spender == owner || isApprovedForAll(owner, spender) || getApproved(tokenId) == spender) */\n      swap2\n      pop\n      pop\n        /* \"contracts/ERC721Attachment.sol\":6551:6805  function _isApprovedOrOwner(address spender, uint256 tokenId) internal view virtual returns (bool) {... */\n      swap3\n      swap2\n      pop\n      pop\n      jump\t// out\n        /* \"contracts/ERC721Attachment.sol\":8158:8666  function _transfer(... */\n    tag_130:\n        /* \"contracts/ERC721Attachment.sol\":8305:8309  from */\n      dup3\n        /* \"contracts/ERC721Attachment.sol\":8285:8309  ownerOf(tokenId) == from */\n      0xffffffffffffffffffffffffffffffffffffffff\n      and\n        /* \"contracts/ERC721Attachment.sol\":8285:8301  ownerOf(tokenId) */\n      tag_209\n        /* \"contracts/ERC721Attachment.sol\":8293:8300  tokenId */\n      dup3\n        /* \"contracts/ERC721Attachment.sol\":8285:8292  ownerOf */\n      tag_56\n        /* \"contracts/ERC721Attachment.sol\":8285:8301  ownerOf(tokenId) */\n      jump\t// in\n    tag_209:\n        /* \"contracts/ERC721Attachment.sol\":8285:8309  ownerOf(tokenId) == from */\n      0xffffffffffffffffffffffffffffffffffffffff\n      and\n      eq\n        /* \"contracts/ERC721Attachment.sol\":8277:8351  require(ownerOf(tokenId) == from, \"ERC721: transfer from incorrect owner\") */\n      tag_210\n      jumpi\n      mload(0x40)\n      0x08c379a000000000000000000000000000000000000000000000000000000000\n      dup2\n      mstore\n      0x04\n      add\n      tag_211\n      swap1\n      tag_212\n      jump\t// in\n    tag_211:\n      mload(0x40)\n      dup1\n      swap2\n      sub\n      swap1\n      revert\n    tag_210:\n        /* \"contracts/ERC721Attachment.sol\":8383:8384  0 */\n      0x00\n        /* \"contracts/ERC721Attachment.sol\":8369:8385  to != address(0) */\n      0xffffffffffffffffffffffffffffffffffffffff\n      and\n        /* \"contracts/ERC721Attachment.sol\":8369:8371  to */\n      dup3\n        /* \"contracts/ERC721Attachment.sol\":8369:8385  to != address(0) */\n      0xffffffffffffffffffffffffffffffffffffffff\n      and\n      eq\n      iszero\n        /* \"contracts/ERC721Attachment.sol\":8361:8426  require(to != address(0), \"ERC721: transfer to the zero address\") */\n      tag_213\n      jumpi\n      mload(0x40)\n      0x08c379a000000000000000000000000000000000000000000000000000000000\n      dup2\n      mstore\n      0x04\n      add\n      tag_214\n      swap1\n      tag_215\n      jump\t// in\n    tag_214:\n      mload(0x40)\n      dup1\n      swap2\n      sub\n      swap1\n      revert\n    tag_213:\n        /* \"contracts/ERC721Attachment.sol\":8437:8476  _beforeTokenTransfer(from, to, tokenId) */\n      tag_216\n        /* \"contracts/ERC721Attachment.sol\":8458:8462  from */\n      dup4\n        /* \"contracts/ERC721Attachment.sol\":8464:8466  to */\n      dup4\n        /* \"contracts/ERC721Attachment.sol\":8468:8475  tokenId */\n      dup4\n        /* \"contracts/ERC721Attachment.sol\":8437:8457  _beforeTokenTransfer */\n      tag_217\n        /* \"contracts/ERC721Attachment.sol\":8437:8476  _beforeTokenTransfer(from, to, tokenId) */\n      jump\t// in\n    tag_216:\n        /* \"contracts/ERC721Attachment.sol\":8538:8567  _approve(address(0), tokenId) */\n      tag_218\n        /* \"contracts/ERC721Attachment.sol\":8555:8556  0 */\n      0x00\n        /* \"contracts/ERC721Attachment.sol\":8559:8566  tokenId */\n      dup3\n        /* \"contracts/ERC721Attachment.sol\":8538:8546  _approve */\n      tag_111\n        /* \"contracts/ERC721Attachment.sol\":8538:8567  _approve(address(0), tokenId) */\n      jump\t// in\n    tag_218:\n        /* \"contracts/ERC721Attachment.sol\":8602:8609  tokenId */\n      dup1\n        /* \"contracts/ERC721Attachment.sol\":8598:8600  to */\n      dup3\n        /* \"contracts/ERC721Attachment.sol\":8583:8610  Transfer(from, to, tokenId) */\n      0xffffffffffffffffffffffffffffffffffffffff\n      and\n        /* \"contracts/ERC721Attachment.sol\":8592:8596  from */\n      dup5\n        /* \"contracts/ERC721Attachment.sol\":8583:8610  Transfer(from, to, tokenId) */\n      0xffffffffffffffffffffffffffffffffffffffff\n      and\n      0xddf252ad1be2c89b69c2b068fc378daa952ba7f163c4a11628f55a4df523b3ef\n      mload(0x40)\n      mload(0x40)\n      dup1\n      swap2\n      sub\n      swap1\n      log4\n        /* \"contracts/ERC721Attachment.sol\":8621:8659  _afterTokenTransfer(from, to, tokenId) */\n      tag_219\n        /* \"contracts/ERC721Attachment.sol\":8641:8645  from */\n      dup4\n        /* \"contracts/ERC721Attachment.sol\":8647:8649  to */\n      dup4\n        /* \"contracts/ERC721Attachment.sol\":8651:8658  tokenId */\n      dup4\n        /* \"contracts/ERC721Attachment.sol\":8621:8640  _afterTokenTransfer */\n      tag_220\n        /* \"contracts/ERC721Attachment.sol\":8621:8659  _afterTokenTransfer(from, to, tokenId) */\n      jump\t// in\n    tag_219:\n        /* \"contracts/ERC721Attachment.sol\":8158:8666  function _transfer(... */\n      pop\n      pop\n      pop\n      jump\t// out\n        /* \"contracts/ERC721Attachment.sol\":9039:9290  function _setApprovalForAll(... */\n    tag_162:\n        /* \"contracts/ERC721Attachment.sol\":9189:9197  operator */\n      dup2\n        /* \"contracts/ERC721Attachment.sol\":9180:9197  owner != operator */\n      0xffffffffffffffffffffffffffffffffffffffff\n      and\n        /* \"contracts/ERC721Attachment.sol\":9180:9185  owner */\n      dup4\n        /* \"contracts/ERC721Attachment.sol\":9180:9197  owner != operator */\n      0xffffffffffffffffffffffffffffffffffffffff\n      and\n      eq\n      iszero\n        /* \"contracts/ERC721Attachment.sol\":9172:9227  require(owner != operator, \"ERC721: approve to caller\") */\n      tag_222\n      jumpi\n      mload(0x40)\n      0x08c379a000000000000000000000000000000000000000000000000000000000\n      dup2\n      mstore\n      0x04\n      add\n      tag_223\n      swap1\n      tag_224\n      jump\t// in\n    tag_223:\n      mload(0x40)\n      dup1\n      swap2\n      sub\n      swap1\n      revert\n    tag_222:\n        /* \"contracts/ERC721Attachment.sol\":9264:9272  operator */\n      dup2\n        /* \"contracts/ERC721Attachment.sol\":9242:9283  ApprovalForAll(owner, operator, approved) */\n      0xffffffffffffffffffffffffffffffffffffffff\n      and\n        /* \"contracts/ERC721Attachment.sol\":9257:9262  owner */\n      dup4\n        /* \"contracts/ERC721Attachment.sol\":9242:9283  ApprovalForAll(owner, operator, approved) */\n      0xffffffffffffffffffffffffffffffffffffffff\n      and\n      0x17307eab39ab6107e8899845ad3d59bd9653f200f220920489ca2b5937696c31\n        /* \"contracts/ERC721Attachment.sol\":9274:9282  approved */\n      dup4\n        /* \"contracts/ERC721Attachment.sol\":9242:9283  ApprovalForAll(owner, operator, approved) */\n      mload(0x40)\n      tag_225\n      swap2\n      swap1\n      tag_26\n      jump\t// in\n    tag_225:\n      mload(0x40)\n      dup1\n      swap2\n      sub\n      swap1\n      log3\n        /* \"contracts/ERC721Attachment.sol\":9039:9290  function _setApprovalForAll(... */\n      pop\n      pop\n      pop\n      jump\t// out\n        /* \"contracts/ERC721Attachment.sol\":6208:6393  function _safeTransfer(... */\n    tag_169:\n        /* \"contracts/ERC721Attachment.sol\":6358:6386  _transfer(from, to, tokenId) */\n      tag_227\n        /* \"contracts/ERC721Attachment.sol\":6368:6372  from */\n      dup5\n        /* \"contracts/ERC721Attachment.sol\":6374:6376  to */\n      dup5\n        /* \"contracts/ERC721Attachment.sol\":6378:6385  tokenId */\n      dup5\n        /* \"contracts/ERC721Attachment.sol\":6358:6367  _transfer */\n      tag_130\n        /* \"contracts/ERC721Attachment.sol\":6358:6386  _transfer(from, to, tokenId) */\n      jump\t// in\n    tag_227:\n        /* \"contracts/ERC721Attachment.sol\":6208:6393  function _safeTransfer(... */\n      pop\n      pop\n      pop\n      pop\n      jump\t// out\n        /* \"contracts/ERC721Attachment.sol\":9374:9507  function _requireMinted(uint256 tokenId) internal view virtual {... */\n    tag_172:\n        /* \"contracts/ERC721Attachment.sol\":9455:9471  _exists(tokenId) */\n      tag_229\n        /* \"contracts/ERC721Attachment.sol\":9463:9470  tokenId */\n      dup2\n        /* \"contracts/ERC721Attachment.sol\":9455:9462  _exists */\n      tag_188\n        /* \"contracts/ERC721Attachment.sol\":9455:9471  _exists(tokenId) */\n      jump\t// in\n    tag_229:\n        /* \"contracts/ERC721Attachment.sol\":9447:9500  require(_exists(tokenId), \"ERC721: invalid token ID\") */\n      tag_230\n      jumpi\n      mload(0x40)\n      0x08c379a000000000000000000000000000000000000000000000000000000000\n      dup2\n      mstore\n      0x04\n      add\n      tag_231\n      swap1\n      tag_142\n      jump\t// in\n    tag_231:\n      mload(0x40)\n      dup1\n      swap2\n      sub\n      swap1\n      revert\n    tag_230:\n        /* \"contracts/ERC721Attachment.sol\":9374:9507  function _requireMinted(uint256 tokenId) internal view virtual {... */\n      pop\n      jump\t// out\n        /* \"contracts/ERC721Attachment.sol\":2832:2924  function _baseURI() internal view virtual returns (string memory) {... */\n    tag_174:\n        /* \"contracts/ERC721Attachment.sol\":2883:2896  string memory */\n      0x60\n        /* \"contracts/ERC721Attachment.sol\":2908:2917  return \"\" */\n      mload(0x40)\n      dup1\n      0x20\n      add\n      0x40\n      mstore\n      dup1\n      0x00\n      dup2\n      mstore\n      pop\n      swap1\n      pop\n        /* \"contracts/ERC721Attachment.sol\":2832:2924  function _baseURI() internal view virtual returns (string memory) {... */\n      swap1\n      jump\t// out\n        /* \"@openzeppelin/contracts/utils/Strings.sol\":392:1095  function toString(uint256 value) internal pure returns (string memory) {... */\n    tag_178:\n        /* \"@openzeppelin/contracts/utils/Strings.sol\":448:461  string memory */\n      0x60\n        /* \"@openzeppelin/contracts/utils/Strings.sol\":674:675  0 */\n      0x00\n        /* \"@openzeppelin/contracts/utils/Strings.sol\":665:670  value */\n      dup3\n        /* \"@openzeppelin/contracts/utils/Strings.sol\":665:675  value == 0 */\n      eq\n        /* \"@openzeppelin/contracts/utils/Strings.sol\":661:712  if (value == 0) {... */\n      iszero\n      tag_234\n      jumpi\n        /* \"@openzeppelin/contracts/utils/Strings.sol\":691:701  return \"0\" */\n      mload(0x40)\n      dup1\n      0x40\n      add\n      0x40\n      mstore\n      dup1\n      0x01\n      dup2\n      mstore\n      0x20\n      add\n      0x3000000000000000000000000000000000000000000000000000000000000000\n      dup2\n      mstore\n      pop\n      swap1\n      pop\n      jump(tag_233)\n        /* \"@openzeppelin/contracts/utils/Strings.sol\":661:712  if (value == 0) {... */\n    tag_234:\n        /* \"@openzeppelin/contracts/utils/Strings.sol\":721:733  uint256 temp */\n      0x00\n        /* \"@openzeppelin/contracts/utils/Strings.sol\":736:741  value */\n      dup3\n        /* \"@openzeppelin/contracts/utils/Strings.sol\":721:741  uint256 temp = value */\n      swap1\n      pop\n        /* \"@openzeppelin/contracts/utils/Strings.sol\":751:765  uint256 digits */\n      0x00\n        /* \"@openzeppelin/contracts/utils/Strings.sol\":775:850  while (temp != 0) {... */\n    tag_235:\n        /* \"@openzeppelin/contracts/utils/Strings.sol\":790:791  0 */\n      0x00\n        /* \"@openzeppelin/contracts/utils/Strings.sol\":782:786  temp */\n      dup3\n        /* \"@openzeppelin/contracts/utils/Strings.sol\":782:791  temp != 0 */\n      eq\n        /* \"@openzeppelin/contracts/utils/Strings.sol\":775:850  while (temp != 0) {... */\n      tag_236\n      jumpi\n        /* \"@openzeppelin/contracts/utils/Strings.sol\":807:815  digits++ */\n      dup1\n      dup1\n      tag_237\n      swap1\n      tag_238\n      jump\t// in\n    tag_237:\n      swap2\n      pop\n      pop\n        /* \"@openzeppelin/contracts/utils/Strings.sol\":837:839  10 */\n      0x0a\n        /* \"@openzeppelin/contracts/utils/Strings.sol\":829:839  temp /= 10 */\n      dup3\n      tag_239\n      swap2\n      swap1\n      tag_240\n      jump\t// in\n    tag_239:\n      swap2\n      pop\n        /* \"@openzeppelin/contracts/utils/Strings.sol\":775:850  while (temp != 0) {... */\n      jump(tag_235)\n    tag_236:\n        /* \"@openzeppelin/contracts/utils/Strings.sol\":859:878  bytes memory buffer */\n      0x00\n        /* \"@openzeppelin/contracts/utils/Strings.sol\":891:897  digits */\n      dup2\n        /* \"@openzeppelin/contracts/utils/Strings.sol\":881:898  new bytes(digits) */\n      0xffffffffffffffff\n      dup2\n      gt\n      iszero\n      tag_241\n      jumpi\n      tag_242\n      tag_243\n      jump\t// in\n    tag_242:\n    tag_241:\n      mload(0x40)\n      swap1\n      dup1\n      dup3\n      mstore\n      dup1\n      0x1f\n      add\n      not(0x1f)\n      and\n      0x20\n      add\n      dup3\n      add\n      0x40\n      mstore\n      dup1\n      iszero\n      tag_244\n      jumpi\n      dup2\n      0x20\n      add\n      0x01\n      dup3\n      mul\n      dup1\n      calldatasize\n      dup4\n      calldatacopy\n      dup1\n      dup3\n      add\n      swap2\n      pop\n      pop\n      swap1\n      pop\n    tag_244:\n      pop\n        /* \"@openzeppelin/contracts/utils/Strings.sol\":859:898  bytes memory buffer = new bytes(digits) */\n      swap1\n      pop\n        /* \"@openzeppelin/contracts/utils/Strings.sol\":908:1058  while (value != 0) {... */\n    tag_245:\n        /* \"@openzeppelin/contracts/utils/Strings.sol\":924:925  0 */\n      0x00\n        /* \"@openzeppelin/contracts/utils/Strings.sol\":915:920  value */\n      dup6\n        /* \"@openzeppelin/contracts/utils/Strings.sol\":915:925  value != 0 */\n      eq\n        /* \"@openzeppelin/contracts/utils/Strings.sol\":908:1058  while (value != 0) {... */\n      tag_246\n      jumpi\n        /* \"@openzeppelin/contracts/utils/Strings.sol\":951:952  1 */\n      0x01\n        /* \"@openzeppelin/contracts/utils/Strings.sol\":941:952  digits -= 1 */\n      dup3\n      tag_247\n      swap2\n      swap1\n      tag_248\n      jump\t// in\n    tag_247:\n      swap2\n      pop\n        /* \"@openzeppelin/contracts/utils/Strings.sol\":1017:1019  10 */\n      0x0a\n        /* \"@openzeppelin/contracts/utils/Strings.sol\":1009:1014  value */\n      dup6\n        /* \"@openzeppelin/contracts/utils/Strings.sol\":1009:1019  value % 10 */\n      tag_249\n      swap2\n      swap1\n      tag_250\n      jump\t// in\n    tag_249:\n        /* \"@openzeppelin/contracts/utils/Strings.sol\":996:998  48 */\n      0x30\n        /* \"@openzeppelin/contracts/utils/Strings.sol\":996:1020  48 + uint256(value % 10) */\n      tag_251\n      swap2\n      swap1\n      tag_114\n      jump\t// in\n    tag_251:\n        /* \"@openzeppelin/contracts/utils/Strings.sol\":983:1022  bytes1(uint8(48 + uint256(value % 10))) */\n      0xf8\n      shl\n        /* \"@openzeppelin/contracts/utils/Strings.sol\":966:972  buffer */\n      dup2\n        /* \"@openzeppelin/contracts/utils/Strings.sol\":973:979  digits */\n      dup4\n        /* \"@openzeppelin/contracts/utils/Strings.sol\":966:980  buffer[digits] */\n      dup2\n      mload\n      dup2\n      lt\n      tag_252\n      jumpi\n      tag_253\n      tag_254\n      jump\t// in\n    tag_253:\n    tag_252:\n      0x20\n      add\n      add\n        /* \"@openzeppelin/contracts/utils/Strings.sol\":966:1022  buffer[digits] = bytes1(uint8(48 + uint256(value % 10))) */\n      swap1\n      not(0xffffffffffffffffffffffffffffffffffffffffffffffffffffffffffffff)\n      and\n      swap1\n      dup2\n      0x00\n      byte\n      swap1\n      mstore8\n      pop\n        /* \"@openzeppelin/contracts/utils/Strings.sol\":1045:1047  10 */\n      0x0a\n        /* \"@openzeppelin/contracts/utils/Strings.sol\":1036:1047  value /= 10 */\n      dup6\n      tag_255\n      swap2\n      swap1\n      tag_240\n      jump\t// in\n    tag_255:\n      swap5\n      pop\n        /* \"@openzeppelin/contracts/utils/Strings.sol\":908:1058  while (value != 0) {... */\n      jump(tag_245)\n    tag_246:\n        /* \"@openzeppelin/contracts/utils/Strings.sol\":1081:1087  buffer */\n      dup1\n        /* \"@openzeppelin/contracts/utils/Strings.sol\":1067:1088  return string(buffer) */\n      swap4\n      pop\n      pop\n      pop\n      pop\n        /* \"@openzeppelin/contracts/utils/Strings.sol\":392:1095  function toString(uint256 value) internal pure returns (string memory) {... */\n    tag_233:\n      swap2\n      swap1\n      pop\n      jump\t// out\n        /* \"contracts/ERC721Attachment.sol\":2931:3056  function _exists(uint256 tokenId) internal view virtual returns (bool) {... */\n    tag_188:\n        /* \"contracts/ERC721Attachment.sol\":2996:3000  bool */\n      0x00\n        /* \"contracts/ERC721Attachment.sol\":3047:3048  0 */\n      dup1\n        /* \"contracts/ERC721Attachment.sol\":3019:3049  ownerOf(tokenId) != address(0) */\n      0xffffffffffffffffffffffffffffffffffffffff\n      and\n        /* \"contracts/ERC721Attachment.sol\":3019:3035  ownerOf(tokenId) */\n      tag_257\n        /* \"contracts/ERC721Attachment.sol\":3027:3034  tokenId */\n      dup4\n        /* \"contracts/ERC721Attachment.sol\":3019:3026  ownerOf */\n      tag_56\n        /* \"contracts/ERC721Attachment.sol\":3019:3035  ownerOf(tokenId) */\n      jump\t// in\n    tag_257:\n        /* \"contracts/ERC721Attachment.sol\":3019:3049  ownerOf(tokenId) != address(0) */\n      0xffffffffffffffffffffffffffffffffffffffff\n      and\n      eq\n      iszero\n        /* \"contracts/ERC721Attachment.sol\":3012:3049  return ownerOf(tokenId) != address(0) */\n      swap1\n      pop\n        /* \"contracts/ERC721Attachment.sol\":2931:3056  function _exists(uint256 tokenId) internal view virtual returns (bool) {... */\n      swap2\n      swap1\n      pop\n      jump\t// out\n        /* \"contracts/ERC721Attachment.sol\":3082:3299  function _beforeTokenTransfer(... */\n    tag_217:\n        /* \"contracts/ERC721Attachment.sol\":3289:3290  0 */\n      0x00\n        /* \"contracts/ERC721Attachment.sol\":3273:3291  from == address(0) */\n      0xffffffffffffffffffffffffffffffffffffffff\n      and\n        /* \"contracts/ERC721Attachment.sol\":3273:3277  from */\n      dup4\n        /* \"contracts/ERC721Attachment.sol\":3273:3291  from == address(0) */\n      0xffffffffffffffffffffffffffffffffffffffff\n      and\n      eq\n        /* \"contracts/ERC721Attachment.sol\":3265:3292  require(from == address(0)) */\n      tag_259\n      jumpi\n      0x00\n      dup1\n      revert\n    tag_259:\n        /* \"contracts/ERC721Attachment.sol\":3082:3299  function _beforeTokenTransfer(... */\n      pop\n      pop\n      pop\n      jump\t// out\n        /* \"contracts/ERC721Attachment.sol\":9879:10000  function _afterTokenTransfer(... */\n    tag_220:\n      pop\n      pop\n      pop\n      jump\t// out\n    tag_201:\n      dup3\n      dup1\n      sload\n      tag_261\n      swap1\n      tag_91\n      jump\t// in\n    tag_261:\n      swap1\n      0x00\n      mstore\n      keccak256(0x00, 0x20)\n      swap1\n      0x1f\n      add\n      0x20\n      swap1\n      div\n      dup2\n      add\n      swap3\n      dup3\n      tag_263\n      jumpi\n      0x00\n      dup6\n      sstore\n      jump(tag_262)\n    tag_263:\n      dup3\n      0x1f\n      lt\n      tag_264\n      jumpi\n      dup1\n      mload\n      not(0xff)\n      and\n      dup4\n      dup1\n      add\n      or\n      dup6\n      sstore\n      jump(tag_262)\n    tag_264:\n      dup3\n      dup1\n      add\n      0x01\n      add\n      dup6\n      sstore\n      dup3\n      iszero\n      tag_262\n      jumpi\n      swap2\n      dup3\n      add\n    tag_265:\n      dup3\n      dup2\n      gt\n      iszero\n      tag_266\n      jumpi\n      dup3\n      mload\n      dup3\n      sstore\n      swap2\n      0x20\n      add\n      swap2\n      swap1\n      0x01\n      add\n      swap1\n      jump(tag_265)\n    tag_266:\n    tag_262:\n      pop\n      swap1\n      pop\n      tag_267\n      swap2\n      swap1\n      tag_268\n      jump\t// in\n    tag_267:\n      pop\n      swap1\n      jump\t// out\n    tag_268:\n    tag_269:\n      dup1\n      dup3\n      gt\n      iszero\n      tag_270\n      jumpi\n      0x00\n      dup2\n      0x00\n      swap1\n      sstore\n      pop\n      0x01\n      add\n      jump(tag_269)\n    tag_270:\n      pop\n      swap1\n      jump\t// out\n        /* \"#utility.yul\":7:417   */\n    tag_272:\n        /* \"#utility.yul\":84:89   */\n      0x00\n        /* \"#utility.yul\":109:174   */\n      tag_274\n        /* \"#utility.yul\":125:173   */\n      tag_275\n        /* \"#utility.yul\":166:172   */\n      dup5\n        /* \"#utility.yul\":125:173   */\n      tag_276\n      jump\t// in\n    tag_275:\n        /* \"#utility.yul\":109:174   */\n      tag_277\n      jump\t// in\n    tag_274:\n        /* \"#utility.yul\":100:174   */\n      swap1\n      pop\n        /* \"#utility.yul\":197:203   */\n      dup3\n        /* \"#utility.yul\":190:195   */\n      dup2\n        /* \"#utility.yul\":183:204   */\n      mstore\n        /* \"#utility.yul\":235:239   */\n      0x20\n        /* \"#utility.yul\":228:233   */\n      dup2\n        /* \"#utility.yul\":224:240   */\n      add\n        /* \"#utility.yul\":273:276   */\n      dup5\n        /* \"#utility.yul\":264:270   */\n      dup5\n        /* \"#utility.yul\":259:262   */\n      dup5\n        /* \"#utility.yul\":255:271   */\n      add\n        /* \"#utility.yul\":252:277   */\n      gt\n        /* \"#utility.yul\":249:361   */\n      iszero\n      tag_278\n      jumpi\n        /* \"#utility.yul\":280:359   */\n      tag_279\n      tag_280\n      jump\t// in\n    tag_279:\n        /* \"#utility.yul\":249:361   */\n    tag_278:\n        /* \"#utility.yul\":370:411   */\n      tag_281\n        /* \"#utility.yul\":404:410   */\n      dup5\n        /* \"#utility.yul\":399:402   */\n      dup3\n        /* \"#utility.yul\":394:397   */\n      dup6\n        /* \"#utility.yul\":370:411   */\n      tag_282\n      jump\t// in\n    tag_281:\n        /* \"#utility.yul\":90:417   */\n      pop\n        /* \"#utility.yul\":7:417   */\n      swap4\n      swap3\n      pop\n      pop\n      pop\n      jump\t// out\n        /* \"#utility.yul\":423:835   */\n    tag_283:\n        /* \"#utility.yul\":501:506   */\n      0x00\n        /* \"#utility.yul\":526:592   */\n      tag_285\n        /* \"#utility.yul\":542:591   */\n      tag_286\n        /* \"#utility.yul\":584:590   */\n      dup5\n        /* \"#utility.yul\":542:591   */\n      tag_287\n      jump\t// in\n    tag_286:\n        /* \"#utility.yul\":526:592   */\n      tag_277\n      jump\t// in\n    tag_285:\n        /* \"#utility.yul\":517:592   */\n      swap1\n      pop\n        /* \"#utility.yul\":615:621   */\n      dup3\n        /* \"#utility.yul\":608:613   */\n      dup2\n        /* \"#utility.yul\":601:622   */\n      mstore\n        /* \"#utility.yul\":653:657   */\n      0x20\n        /* \"#utility.yul\":646:651   */\n      dup2\n        /* \"#utility.yul\":642:658   */\n      add\n        /* \"#utility.yul\":691:694   */\n      dup5\n        /* \"#utility.yul\":682:688   */\n      dup5\n        /* \"#utility.yul\":677:680   */\n      dup5\n        /* \"#utility.yul\":673:689   */\n      add\n        /* \"#utility.yul\":670:695   */\n      gt\n        /* \"#utility.yul\":667:779   */\n      iszero\n      tag_288\n      jumpi\n        /* \"#utility.yul\":698:777   */\n      tag_289\n      tag_280\n      jump\t// in\n    tag_289:\n        /* \"#utility.yul\":667:779   */\n    tag_288:\n        /* \"#utility.yul\":788:829   */\n      tag_290\n        /* \"#utility.yul\":822:828   */\n      dup5\n        /* \"#utility.yul\":817:820   */\n      dup3\n        /* \"#utility.yul\":812:815   */\n      dup6\n        /* \"#utility.yul\":788:829   */\n      tag_282\n      jump\t// in\n    tag_290:\n        /* \"#utility.yul\":507:835   */\n      pop\n        /* \"#utility.yul\":423:835   */\n      swap4\n      swap3\n      pop\n      pop\n      pop\n      jump\t// out\n        /* \"#utility.yul\":841:980   */\n    tag_291:\n        /* \"#utility.yul\":887:892   */\n      0x00\n        /* \"#utility.yul\":925:931   */\n      dup2\n        /* \"#utility.yul\":912:932   */\n      calldataload\n        /* \"#utility.yul\":903:932   */\n      swap1\n      pop\n        /* \"#utility.yul\":941:974   */\n      tag_293\n        /* \"#utility.yul\":968:973   */\n      dup2\n        /* \"#utility.yul\":941:974   */\n      tag_294\n      jump\t// in\n    tag_293:\n        /* \"#utility.yul\":841:980   */\n      swap3\n      swap2\n      pop\n      pop\n      jump\t// out\n        /* \"#utility.yul\":986:1129   */\n    tag_295:\n        /* \"#utility.yul\":1043:1048   */\n      0x00\n        /* \"#utility.yul\":1074:1080   */\n      dup2\n        /* \"#utility.yul\":1068:1081   */\n      mload\n        /* \"#utility.yul\":1059:1081   */\n      swap1\n      pop\n        /* \"#utility.yul\":1090:1123   */\n      tag_297\n        /* \"#utility.yul\":1117:1122   */\n      dup2\n        /* \"#utility.yul\":1090:1123   */\n      tag_294\n      jump\t// in\n    tag_297:\n        /* \"#utility.yul\":986:1129   */\n      swap3\n      swap2\n      pop\n      pop\n      jump\t// out\n        /* \"#utility.yul\":1135:1268   */\n    tag_298:\n        /* \"#utility.yul\":1178:1183   */\n      0x00\n        /* \"#utility.yul\":1216:1222   */\n      dup2\n        /* \"#utility.yul\":1203:1223   */\n      calldataload\n        /* \"#utility.yul\":1194:1223   */\n      swap1\n      pop\n        /* \"#utility.yul\":1232:1262   */\n      tag_300\n        /* \"#utility.yul\":1256:1261   */\n      dup2\n        /* \"#utility.yul\":1232:1262   */\n      tag_301\n      jump\t// in\n    tag_300:\n        /* \"#utility.yul\":1135:1268   */\n      swap3\n      swap2\n      pop\n      pop\n      jump\t// out\n        /* \"#utility.yul\":1274:1411   */\n    tag_302:\n        /* \"#utility.yul\":1319:1324   */\n      0x00\n        /* \"#utility.yul\":1357:1363   */\n      dup2\n        /* \"#utility.yul\":1344:1364   */\n      calldataload\n        /* \"#utility.yul\":1335:1364   */\n      swap1\n      pop\n        /* \"#utility.yul\":1373:1405   */\n      tag_304\n        /* \"#utility.yul\":1399:1404   */\n      dup2\n        /* \"#utility.yul\":1373:1405   */\n      tag_305\n      jump\t// in\n    tag_304:\n        /* \"#utility.yul\":1274:1411   */\n      swap3\n      swap2\n      pop\n      pop\n      jump\t// out\n        /* \"#utility.yul\":1430:1768   */\n    tag_306:\n        /* \"#utility.yul\":1485:1490   */\n      0x00\n        /* \"#utility.yul\":1534:1537   */\n      dup3\n        /* \"#utility.yul\":1527:1531   */\n      0x1f\n        /* \"#utility.yul\":1519:1525   */\n      dup4\n        /* \"#utility.yul\":1515:1532   */\n      add\n        /* \"#utility.yul\":1511:1538   */\n      slt\n        /* \"#utility.yul\":1501:1623   */\n      tag_308\n      jumpi\n        /* \"#utility.yul\":1542:1621   */\n      tag_309\n      tag_310\n      jump\t// in\n    tag_309:\n        /* \"#utility.yul\":1501:1623   */\n    tag_308:\n        /* \"#utility.yul\":1659:1665   */\n      dup2\n        /* \"#utility.yul\":1646:1666   */\n      calldataload\n        /* \"#utility.yul\":1684:1762   */\n      tag_311\n        /* \"#utility.yul\":1758:1761   */\n      dup5\n        /* \"#utility.yul\":1750:1756   */\n      dup3\n        /* \"#utility.yul\":1743:1747   */\n      0x20\n        /* \"#utility.yul\":1735:1741   */\n      dup7\n        /* \"#utility.yul\":1731:1748   */\n      add\n        /* \"#utility.yul\":1684:1762   */\n      tag_272\n      jump\t// in\n    tag_311:\n        /* \"#utility.yul\":1675:1762   */\n      swap2\n      pop\n        /* \"#utility.yul\":1491:1768   */\n      pop\n        /* \"#utility.yul\":1430:1768   */\n      swap3\n      swap2\n      pop\n      pop\n      jump\t// out\n        /* \"#utility.yul\":1788:2128   */\n    tag_312:\n        /* \"#utility.yul\":1844:1849   */\n      0x00\n        /* \"#utility.yul\":1893:1896   */\n      dup3\n        /* \"#utility.yul\":1886:1890   */\n      0x1f\n        /* \"#utility.yul\":1878:1884   */\n      dup4\n        /* \"#utility.yul\":1874:1891   */\n      add\n        /* \"#utility.yul\":1870:1897   */\n      slt\n        /* \"#utility.yul\":1860:1982   */\n      tag_314\n      jumpi\n        /* \"#utility.yul\":1901:1980   */\n      tag_315\n      tag_310\n      jump\t// in\n    tag_315:\n        /* \"#utility.yul\":1860:1982   */\n    tag_314:\n        /* \"#utility.yul\":2018:2024   */\n      dup2\n        /* \"#utility.yul\":2005:2025   */\n      calldataload\n        /* \"#utility.yul\":2043:2122   */\n      tag_316\n        /* \"#utility.yul\":2118:2121   */\n      dup5\n        /* \"#utility.yul\":2110:2116   */\n      dup3\n        /* \"#utility.yul\":2103:2107   */\n      0x20\n        /* \"#utility.yul\":2095:2101   */\n      dup7\n        /* \"#utility.yul\":2091:2108   */\n      add\n        /* \"#utility.yul\":2043:2122   */\n      tag_283\n      jump\t// in\n    tag_316:\n        /* \"#utility.yul\":2034:2122   */\n      swap2\n      pop\n        /* \"#utility.yul\":1850:2128   */\n      pop\n        /* \"#utility.yul\":1788:2128   */\n      swap3\n      swap2\n      pop\n      pop\n      jump\t// out\n        /* \"#utility.yul\":2134:2273   */\n    tag_317:\n        /* \"#utility.yul\":2180:2185   */\n      0x00\n        /* \"#utility.yul\":2218:2224   */\n      dup2\n        /* \"#utility.yul\":2205:2225   */\n      calldataload\n        /* \"#utility.yul\":2196:2225   */\n      swap1\n      pop\n        /* \"#utility.yul\":2234:2267   */\n      tag_319\n        /* \"#utility.yul\":2261:2266   */\n      dup2\n        /* \"#utility.yul\":2234:2267   */\n      tag_320\n      jump\t// in\n    tag_319:\n        /* \"#utility.yul\":2134:2273   */\n      swap3\n      swap2\n      pop\n      pop\n      jump\t// out\n        /* \"#utility.yul\":2279:2422   */\n    tag_321:\n        /* \"#utility.yul\":2336:2341   */\n      0x00\n        /* \"#utility.yul\":2367:2373   */\n      dup2\n        /* \"#utility.yul\":2361:2374   */\n      mload\n        /* \"#utility.yul\":2352:2374   */\n      swap1\n      pop\n        /* \"#utility.yul\":2383:2416   */\n      tag_323\n        /* \"#utility.yul\":2410:2415   */\n      dup2\n        /* \"#utility.yul\":2383:2416   */\n      tag_320\n      jump\t// in\n    tag_323:\n        /* \"#utility.yul\":2279:2422   */\n      swap3\n      swap2\n      pop\n      pop\n      jump\t// out\n        /* \"#utility.yul\":2428:2757   */\n    tag_60:\n        /* \"#utility.yul\":2487:2493   */\n      0x00\n        /* \"#utility.yul\":2536:2538   */\n      0x20\n        /* \"#utility.yul\":2524:2533   */\n      dup3\n        /* \"#utility.yul\":2515:2522   */\n      dup5\n        /* \"#utility.yul\":2511:2534   */\n      sub\n        /* \"#utility.yul\":2507:2539   */\n      slt\n        /* \"#utility.yul\":2504:2623   */\n      iszero\n      tag_325\n      jumpi\n        /* \"#utility.yul\":2542:2621   */\n      tag_326\n      tag_327\n      jump\t// in\n    tag_326:\n        /* \"#utility.yul\":2504:2623   */\n    tag_325:\n        /* \"#utility.yul\":2662:2663   */\n      0x00\n        /* \"#utility.yul\":2687:2740   */\n      tag_328\n        /* \"#utility.yul\":2732:2739   */\n      dup5\n        /* \"#utility.yul\":2723:2729   */\n      dup3\n        /* \"#utility.yul\":2712:2721   */\n      dup6\n        /* \"#utility.yul\":2708:2730   */\n      add\n        /* \"#utility.yul\":2687:2740   */\n      tag_291\n      jump\t// in\n    tag_328:\n        /* \"#utility.yul\":2677:2740   */\n      swap2\n      pop\n        /* \"#utility.yul\":2633:2750   */\n      pop\n        /* \"#utility.yul\":2428:2757   */\n      swap3\n      swap2\n      pop\n      pop\n      jump\t// out\n        /* \"#utility.yul\":2763:3114   */\n    tag_139:\n        /* \"#utility.yul\":2833:2839   */\n      0x00\n        /* \"#utility.yul\":2882:2884   */\n      0x20\n        /* \"#utility.yul\":2870:2879   */\n      dup3\n        /* \"#utility.yul\":2861:2868   */\n      dup5\n        /* \"#utility.yul\":2857:2880   */\n      sub\n        /* \"#utility.yul\":2853:2885   */\n      slt\n        /* \"#utility.yul\":2850:2969   */\n      iszero\n      tag_330\n      jumpi\n        /* \"#utility.yul\":2888:2967   */\n      tag_331\n      tag_327\n      jump\t// in\n    tag_331:\n        /* \"#utility.yul\":2850:2969   */\n    tag_330:\n        /* \"#utility.yul\":3008:3009   */\n      0x00\n        /* \"#utility.yul\":3033:3097   */\n      tag_332\n        /* \"#utility.yul\":3089:3096   */\n      dup5\n        /* \"#utility.yul\":3080:3086   */\n      dup3\n        /* \"#utility.yul\":3069:3078   */\n      dup6\n        /* \"#utility.yul\":3065:3087   */\n      add\n        /* \"#utility.yul\":3033:3097   */\n      tag_295\n      jump\t// in\n    tag_332:\n        /* \"#utility.yul\":3023:3097   */\n      swap2\n      pop\n        /* \"#utility.yul\":2979:3107   */\n      pop\n        /* \"#utility.yul\":2763:3114   */\n      swap3\n      swap2\n      pop\n      pop\n      jump\t// out\n        /* \"#utility.yul\":3120:3594   */\n    tag_81:\n        /* \"#utility.yul\":3188:3194   */\n      0x00\n        /* \"#utility.yul\":3196:3202   */\n      dup1\n        /* \"#utility.yul\":3245:3247   */\n      0x40\n        /* \"#utility.yul\":3233:3242   */\n      dup4\n        /* \"#utility.yul\":3224:3231   */\n      dup6\n        /* \"#utility.yul\":3220:3243   */\n      sub\n        /* \"#utility.yul\":3216:3248   */\n      slt\n        /* \"#utility.yul\":3213:3332   */\n      iszero\n      tag_334\n      jumpi\n        /* \"#utility.yul\":3251:3330   */\n      tag_335\n      tag_327\n      jump\t// in\n    tag_335:\n        /* \"#utility.yul\":3213:3332   */\n    tag_334:\n        /* \"#utility.yul\":3371:3372   */\n      0x00\n        /* \"#utility.yul\":3396:3449   */\n      tag_336\n        /* \"#utility.yul\":3441:3448   */\n      dup6\n        /* \"#utility.yul\":3432:3438   */\n      dup3\n        /* \"#utility.yul\":3421:3430   */\n      dup7\n        /* \"#utility.yul\":3417:3439   */\n      add\n        /* \"#utility.yul\":3396:3449   */\n      tag_291\n      jump\t// in\n    tag_336:\n        /* \"#utility.yul\":3386:3449   */\n      swap3\n      pop\n        /* \"#utility.yul\":3342:3459   */\n      pop\n        /* \"#utility.yul\":3498:3500   */\n      0x20\n        /* \"#utility.yul\":3524:3577   */\n      tag_337\n        /* \"#utility.yul\":3569:3576   */\n      dup6\n        /* \"#utility.yul\":3560:3566   */\n      dup3\n        /* \"#utility.yul\":3549:3558   */\n      dup7\n        /* \"#utility.yul\":3545:3567   */\n      add\n        /* \"#utility.yul\":3524:3577   */\n      tag_291\n      jump\t// in\n    tag_337:\n        /* \"#utility.yul\":3514:3577   */\n      swap2\n      pop\n        /* \"#utility.yul\":3469:3587   */\n      pop\n        /* \"#utility.yul\":3120:3594   */\n      swap3\n      pop\n      swap3\n      swap1\n      pop\n      jump\t// out\n        /* \"#utility.yul\":3600:4219   */\n    tag_49:\n        /* \"#utility.yul\":3677:3683   */\n      0x00\n        /* \"#utility.yul\":3685:3691   */\n      dup1\n        /* \"#utility.yul\":3693:3699   */\n      0x00\n        /* \"#utility.yul\":3742:3744   */\n      0x60\n        /* \"#utility.yul\":3730:3739   */\n      dup5\n        /* \"#utility.yul\":3721:3728   */\n      dup7\n        /* \"#utility.yul\":3717:3740   */\n      sub\n        /* \"#utility.yul\":3713:3745   */\n      slt\n        /* \"#utility.yul\":3710:3829   */\n      iszero\n      tag_339\n      jumpi\n        /* \"#utility.yul\":3748:3827   */\n      tag_340\n      tag_327\n      jump\t// in\n    tag_340:\n        /* \"#utility.yul\":3710:3829   */\n    tag_339:\n        /* \"#utility.yul\":3868:3869   */\n      0x00\n        /* \"#utility.yul\":3893:3946   */\n      tag_341\n        /* \"#utility.yul\":3938:3945   */\n      dup7\n        /* \"#utility.yul\":3929:3935   */\n      dup3\n        /* \"#utility.yul\":3918:3927   */\n      dup8\n        /* \"#utility.yul\":3914:3936   */\n      add\n        /* \"#utility.yul\":3893:3946   */\n      tag_291\n      jump\t// in\n    tag_341:\n        /* \"#utility.yul\":3883:3946   */\n      swap4\n      pop\n        /* \"#utility.yul\":3839:3956   */\n      pop\n        /* \"#utility.yul\":3995:3997   */\n      0x20\n        /* \"#utility.yul\":4021:4074   */\n      tag_342\n        /* \"#utility.yul\":4066:4073   */\n      dup7\n        /* \"#utility.yul\":4057:4063   */\n      dup3\n        /* \"#utility.yul\":4046:4055   */\n      dup8\n        /* \"#utility.yul\":4042:4064   */\n      add\n        /* \"#utility.yul\":4021:4074   */\n      tag_291\n      jump\t// in\n    tag_342:\n        /* \"#utility.yul\":4011:4074   */\n      swap3\n      pop\n        /* \"#utility.yul\":3966:4084   */\n      pop\n        /* \"#utility.yul\":4123:4125   */\n      0x40\n        /* \"#utility.yul\":4149:4202   */\n      tag_343\n        /* \"#utility.yul\":4194:4201   */\n      dup7\n        /* \"#utility.yul\":4185:4191   */\n      dup3\n        /* \"#utility.yul\":4174:4183   */\n      dup8\n        /* \"#utility.yul\":4170:4192   */\n      add\n        /* \"#utility.yul\":4149:4202   */\n      tag_317\n      jump\t// in\n    tag_343:\n        /* \"#utility.yul\":4139:4202   */\n      swap2\n      pop\n        /* \"#utility.yul\":4094:4212   */\n      pop\n        /* \"#utility.yul\":3600:4219   */\n      swap3\n      pop\n      swap3\n      pop\n      swap3\n      jump\t// out\n        /* \"#utility.yul\":4225:5168   */\n    tag_73:\n        /* \"#utility.yul\":4320:4326   */\n      0x00\n        /* \"#utility.yul\":4328:4334   */\n      dup1\n        /* \"#utility.yul\":4336:4342   */\n      0x00\n        /* \"#utility.yul\":4344:4350   */\n      dup1\n        /* \"#utility.yul\":4393:4396   */\n      0x80\n        /* \"#utility.yul\":4381:4390   */\n      dup6\n        /* \"#utility.yul\":4372:4379   */\n      dup8\n        /* \"#utility.yul\":4368:4391   */\n      sub\n        /* \"#utility.yul\":4364:4397   */\n      slt\n        /* \"#utility.yul\":4361:4481   */\n      iszero\n      tag_345\n      jumpi\n        /* \"#utility.yul\":4400:4479   */\n      tag_346\n      tag_327\n      jump\t// in\n    tag_346:\n        /* \"#utility.yul\":4361:4481   */\n    tag_345:\n        /* \"#utility.yul\":4520:4521   */\n      0x00\n        /* \"#utility.yul\":4545:4598   */\n      tag_347\n        /* \"#utility.yul\":4590:4597   */\n      dup8\n        /* \"#utility.yul\":4581:4587   */\n      dup3\n        /* \"#utility.yul\":4570:4579   */\n      dup9\n        /* \"#utility.yul\":4566:4588   */\n      add\n        /* \"#utility.yul\":4545:4598   */\n      tag_291\n      jump\t// in\n    tag_347:\n        /* \"#utility.yul\":4535:4598   */\n      swap5\n      pop\n        /* \"#utility.yul\":4491:4608   */\n      pop\n        /* \"#utility.yul\":4647:4649   */\n      0x20\n        /* \"#utility.yul\":4673:4726   */\n      tag_348\n        /* \"#utility.yul\":4718:4725   */\n      dup8\n        /* \"#utility.yul\":4709:4715   */\n      dup3\n        /* \"#utility.yul\":4698:4707   */\n      dup9\n        /* \"#utility.yul\":4694:4716   */\n      add\n        /* \"#utility.yul\":4673:4726   */\n      tag_291\n      jump\t// in\n    tag_348:\n        /* \"#utility.yul\":4663:4726   */\n      swap4\n      pop\n        /* \"#utility.yul\":4618:4736   */\n      pop\n        /* \"#utility.yul\":4775:4777   */\n      0x40\n        /* \"#utility.yul\":4801:4854   */\n      tag_349\n        /* \"#utility.yul\":4846:4853   */\n      dup8\n        /* \"#utility.yul\":4837:4843   */\n      dup3\n        /* \"#utility.yul\":4826:4835   */\n      dup9\n        /* \"#utility.yul\":4822:4844   */\n      add\n        /* \"#utility.yul\":4801:4854   */\n      tag_317\n      jump\t// in\n    tag_349:\n        /* \"#utility.yul\":4791:4854   */\n      swap3\n      pop\n        /* \"#utility.yul\":4746:4864   */\n      pop\n        /* \"#utility.yul\":4931:4933   */\n      0x60\n        /* \"#utility.yul\":4920:4929   */\n      dup6\n        /* \"#utility.yul\":4916:4934   */\n      add\n        /* \"#utility.yul\":4903:4935   */\n      calldataload\n        /* \"#utility.yul\":4962:4980   */\n      0xffffffffffffffff\n        /* \"#utility.yul\":4954:4960   */\n      dup2\n        /* \"#utility.yul\":4951:4981   */\n      gt\n        /* \"#utility.yul\":4948:5065   */\n      iszero\n      tag_350\n      jumpi\n        /* \"#utility.yul\":4984:5063   */\n      tag_351\n      tag_352\n      jump\t// in\n    tag_351:\n        /* \"#utility.yul\":4948:5065   */\n    tag_350:\n        /* \"#utility.yul\":5089:5151   */\n      tag_353\n        /* \"#utility.yul\":5143:5150   */\n      dup8\n        /* \"#utility.yul\":5134:5140   */\n      dup3\n        /* \"#utility.yul\":5123:5132   */\n      dup9\n        /* \"#utility.yul\":5119:5141   */\n      add\n        /* \"#utility.yul\":5089:5151   */\n      tag_306\n      jump\t// in\n    tag_353:\n        /* \"#utility.yul\":5079:5151   */\n      swap2\n      pop\n        /* \"#utility.yul\":4874:5161   */\n      pop\n        /* \"#utility.yul\":4225:5168   */\n      swap3\n      swap6\n      swap2\n      swap5\n      pop\n      swap3\n      pop\n      jump\t// out\n        /* \"#utility.yul\":5174:5642   */\n    tag_69:\n        /* \"#utility.yul\":5239:5245   */\n      0x00\n        /* \"#utility.yul\":5247:5253   */\n      dup1\n        /* \"#utility.yul\":5296:5298   */\n      0x40\n        /* \"#utility.yul\":5284:5293   */\n      dup4\n        /* \"#utility.yul\":5275:5282   */\n      dup6\n        /* \"#utility.yul\":5271:5294   */\n      sub\n        /* \"#utility.yul\":5267:5299   */\n      slt\n        /* \"#utility.yul\":5264:5383   */\n      iszero\n      tag_355\n      jumpi\n        /* \"#utility.yul\":5302:5381   */\n      tag_356\n      tag_327\n      jump\t// in\n    tag_356:\n        /* \"#utility.yul\":5264:5383   */\n    tag_355:\n        /* \"#utility.yul\":5422:5423   */\n      0x00\n        /* \"#utility.yul\":5447:5500   */\n      tag_357\n        /* \"#utility.yul\":5492:5499   */\n      dup6\n        /* \"#utility.yul\":5483:5489   */\n      dup3\n        /* \"#utility.yul\":5472:5481   */\n      dup7\n        /* \"#utility.yul\":5468:5490   */\n      add\n        /* \"#utility.yul\":5447:5500   */\n      tag_291\n      jump\t// in\n    tag_357:\n        /* \"#utility.yul\":5437:5500   */\n      swap3\n      pop\n        /* \"#utility.yul\":5393:5510   */\n      pop\n        /* \"#utility.yul\":5549:5551   */\n      0x20\n        /* \"#utility.yul\":5575:5625   */\n      tag_358\n        /* \"#utility.yul\":5617:5624   */\n      dup6\n        /* \"#utility.yul\":5608:5614   */\n      dup3\n        /* \"#utility.yul\":5597:5606   */\n      dup7\n        /* \"#utility.yul\":5593:5615   */\n      add\n        /* \"#utility.yul\":5575:5625   */\n      tag_298\n      jump\t// in\n    tag_358:\n        /* \"#utility.yul\":5565:5625   */\n      swap2\n      pop\n        /* \"#utility.yul\":5520:5635   */\n      pop\n        /* \"#utility.yul\":5174:5642   */\n      swap3\n      pop\n      swap3\n      swap1\n      pop\n      jump\t// out\n        /* \"#utility.yul\":5648:6122   */\n    tag_39:\n        /* \"#utility.yul\":5716:5722   */\n      0x00\n        /* \"#utility.yul\":5724:5730   */\n      dup1\n        /* \"#utility.yul\":5773:5775   */\n      0x40\n        /* \"#utility.yul\":5761:5770   */\n      dup4\n        /* \"#utility.yul\":5752:5759   */\n      dup6\n        /* \"#utility.yul\":5748:5771   */\n      sub\n        /* \"#utility.yul\":5744:5776   */\n      slt\n        /* \"#utility.yul\":5741:5860   */\n      iszero\n      tag_360\n      jumpi\n        /* \"#utility.yul\":5779:5858   */\n      tag_361\n      tag_327\n      jump\t// in\n    tag_361:\n        /* \"#utility.yul\":5741:5860   */\n    tag_360:\n        /* \"#utility.yul\":5899:5900   */\n      0x00\n        /* \"#utility.yul\":5924:5977   */\n      tag_362\n        /* \"#utility.yul\":5969:5976   */\n      dup6\n        /* \"#utility.yul\":5960:5966   */\n      dup3\n        /* \"#utility.yul\":5949:5958   */\n      dup7\n        /* \"#utility.yul\":5945:5967   */\n      add\n        /* \"#utility.yul\":5924:5977   */\n      tag_291\n      jump\t// in\n    tag_362:\n        /* \"#utility.yul\":5914:5977   */\n      swap3\n      pop\n        /* \"#utility.yul\":5870:5987   */\n      pop\n        /* \"#utility.yul\":6026:6028   */\n      0x20\n        /* \"#utility.yul\":6052:6105   */\n      tag_363\n        /* \"#utility.yul\":6097:6104   */\n      dup6\n        /* \"#utility.yul\":6088:6094   */\n      dup3\n        /* \"#utility.yul\":6077:6086   */\n      dup7\n        /* \"#utility.yul\":6073:6095   */\n      add\n        /* \"#utility.yul\":6052:6105   */\n      tag_317\n      jump\t// in\n    tag_363:\n        /* \"#utility.yul\":6042:6105   */\n      swap2\n      pop\n        /* \"#utility.yul\":5997:6115   */\n      pop\n        /* \"#utility.yul\":5648:6122   */\n      swap3\n      pop\n      swap3\n      swap1\n      pop\n      jump\t// out\n        /* \"#utility.yul\":6128:6455   */\n    tag_23:\n        /* \"#utility.yul\":6186:6192   */\n      0x00\n        /* \"#utility.yul\":6235:6237   */\n      0x20\n        /* \"#utility.yul\":6223:6232   */\n      dup3\n        /* \"#utility.yul\":6214:6221   */\n      dup5\n        /* \"#utility.yul\":6210:6233   */\n      sub\n        /* \"#utility.yul\":6206:6238   */\n      slt\n        /* \"#utility.yul\":6203:6322   */\n      iszero\n      tag_365\n      jumpi\n        /* \"#utility.yul\":6241:6320   */\n      tag_366\n      tag_327\n      jump\t// in\n    tag_366:\n        /* \"#utility.yul\":6203:6322   */\n    tag_365:\n        /* \"#utility.yul\":6361:6362   */\n      0x00\n        /* \"#utility.yul\":6386:6438   */\n      tag_367\n        /* \"#utility.yul\":6430:6437   */\n      dup5\n        /* \"#utility.yul\":6421:6427   */\n      dup3\n        /* \"#utility.yul\":6410:6419   */\n      dup6\n        /* \"#utility.yul\":6406:6428   */\n      add\n        /* \"#utility.yul\":6386:6438   */\n      tag_302\n      jump\t// in\n    tag_367:\n        /* \"#utility.yul\":6376:6438   */\n      swap2\n      pop\n        /* \"#utility.yul\":6332:6448   */\n      pop\n        /* \"#utility.yul\":6128:6455   */\n      swap3\n      swap2\n      pop\n      pop\n      jump\t// out\n        /* \"#utility.yul\":6461:6790   */\n    tag_33:\n        /* \"#utility.yul\":6520:6526   */\n      0x00\n        /* \"#utility.yul\":6569:6571   */\n      0x20\n        /* \"#utility.yul\":6557:6566   */\n      dup3\n        /* \"#utility.yul\":6548:6555   */\n      dup5\n        /* \"#utility.yul\":6544:6567   */\n      sub\n        /* \"#utility.yul\":6540:6572   */\n      slt\n        /* \"#utility.yul\":6537:6656   */\n      iszero\n      tag_369\n      jumpi\n        /* \"#utility.yul\":6575:6654   */\n      tag_370\n      tag_327\n      jump\t// in\n    tag_370:\n        /* \"#utility.yul\":6537:6656   */\n    tag_369:\n        /* \"#utility.yul\":6695:6696   */\n      0x00\n        /* \"#utility.yul\":6720:6773   */\n      tag_371\n        /* \"#utility.yul\":6765:6772   */\n      dup5\n        /* \"#utility.yul\":6756:6762   */\n      dup3\n        /* \"#utility.yul\":6745:6754   */\n      dup6\n        /* \"#utility.yul\":6741:6763   */\n      add\n        /* \"#utility.yul\":6720:6773   */\n      tag_317\n      jump\t// in\n    tag_371:\n        /* \"#utility.yul\":6710:6773   */\n      swap2\n      pop\n        /* \"#utility.yul\":6666:6783   */\n      pop\n        /* \"#utility.yul\":6461:6790   */\n      swap3\n      swap2\n      pop\n      pop\n      jump\t// out\n        /* \"#utility.yul\":6796:7147   */\n    tag_152:\n        /* \"#utility.yul\":6866:6872   */\n      0x00\n        /* \"#utility.yul\":6915:6917   */\n      0x20\n        /* \"#utility.yul\":6903:6912   */\n      dup3\n        /* \"#utility.yul\":6894:6901   */\n      dup5\n        /* \"#utility.yul\":6890:6913   */\n      sub\n        /* \"#utility.yul\":6886:6918   */\n      slt\n        /* \"#utility.yul\":6883:7002   */\n      iszero\n      tag_373\n      jumpi\n        /* \"#utility.yul\":6921:7000   */\n      tag_374\n      tag_327\n      jump\t// in\n    tag_374:\n        /* \"#utility.yul\":6883:7002   */\n    tag_373:\n        /* \"#utility.yul\":7041:7042   */\n      0x00\n        /* \"#utility.yul\":7066:7130   */\n      tag_375\n        /* \"#utility.yul\":7122:7129   */\n      dup5\n        /* \"#utility.yul\":7113:7119   */\n      dup3\n        /* \"#utility.yul\":7102:7111   */\n      dup6\n        /* \"#utility.yul\":7098:7120   */\n      add\n        /* \"#utility.yul\":7066:7130   */\n      tag_321\n      jump\t// in\n    tag_375:\n        /* \"#utility.yul\":7056:7130   */\n      swap2\n      pop\n        /* \"#utility.yul\":7012:7140   */\n      pop\n        /* \"#utility.yul\":6796:7147   */\n      swap3\n      swap2\n      pop\n      pop\n      jump\t// out\n        /* \"#utility.yul\":7153:7807   */\n    tag_45:\n        /* \"#utility.yul\":7231:7237   */\n      0x00\n        /* \"#utility.yul\":7239:7245   */\n      dup1\n        /* \"#utility.yul\":7288:7290   */\n      0x40\n        /* \"#utility.yul\":7276:7285   */\n      dup4\n        /* \"#utility.yul\":7267:7274   */\n      dup6\n        /* \"#utility.yul\":7263:7286   */\n      sub\n        /* \"#utility.yul\":7259:7291   */\n      slt\n        /* \"#utility.yul\":7256:7375   */\n      iszero\n      tag_377\n      jumpi\n        /* \"#utility.yul\":7294:7373   */\n      tag_378\n      tag_327\n      jump\t// in\n    tag_378:\n        /* \"#utility.yul\":7256:7375   */\n    tag_377:\n        /* \"#utility.yul\":7414:7415   */\n      0x00\n        /* \"#utility.yul\":7439:7492   */\n      tag_379\n        /* \"#utility.yul\":7484:7491   */\n      dup6\n        /* \"#utility.yul\":7475:7481   */\n      dup3\n        /* \"#utility.yul\":7464:7473   */\n      dup7\n        /* \"#utility.yul\":7460:7482   */\n      add\n        /* \"#utility.yul\":7439:7492   */\n      tag_317\n      jump\t// in\n    tag_379:\n        /* \"#utility.yul\":7429:7492   */\n      swap3\n      pop\n        /* \"#utility.yul\":7385:7502   */\n      pop\n        /* \"#utility.yul\":7569:7571   */\n      0x20\n        /* \"#utility.yul\":7558:7567   */\n      dup4\n        /* \"#utility.yul\":7554:7572   */\n      add\n        /* \"#utility.yul\":7541:7573   */\n      calldataload\n        /* \"#utility.yul\":7600:7618   */\n      0xffffffffffffffff\n        /* \"#utility.yul\":7592:7598   */\n      dup2\n        /* \"#utility.yul\":7589:7619   */\n      gt\n        /* \"#utility.yul\":7586:7703   */\n      iszero\n      tag_380\n      jumpi\n        /* \"#utility.yul\":7622:7701   */\n      tag_381\n      tag_352\n      jump\t// in\n    tag_381:\n        /* \"#utility.yul\":7586:7703   */\n    tag_380:\n        /* \"#utility.yul\":7727:7790   */\n      tag_382\n        /* \"#utility.yul\":7782:7789   */\n      dup6\n        /* \"#utility.yul\":7773:7779   */\n      dup3\n        /* \"#utility.yul\":7762:7771   */\n      dup7\n        /* \"#utility.yul\":7758:7780   */\n      add\n        /* \"#utility.yul\":7727:7790   */\n      tag_312\n      jump\t// in\n    tag_382:\n        /* \"#utility.yul\":7717:7790   */\n      swap2\n      pop\n        /* \"#utility.yul\":7512:7800   */\n      pop\n        /* \"#utility.yul\":7153:7807   */\n      swap3\n      pop\n      swap3\n      swap1\n      pop\n      jump\t// out\n        /* \"#utility.yul\":7813:7931   */\n    tag_383:\n        /* \"#utility.yul\":7900:7924   */\n      tag_385\n        /* \"#utility.yul\":7918:7923   */\n      dup2\n        /* \"#utility.yul\":7900:7924   */\n      tag_386\n      jump\t// in\n    tag_385:\n        /* \"#utility.yul\":7895:7898   */\n      dup3\n        /* \"#utility.yul\":7888:7925   */\n      mstore\n        /* \"#utility.yul\":7813:7931   */\n      pop\n      pop\n      jump\t// out\n        /* \"#utility.yul\":7937:8046   */\n    tag_387:\n        /* \"#utility.yul\":8018:8039   */\n      tag_389\n        /* \"#utility.yul\":8033:8038   */\n      dup2\n        /* \"#utility.yul\":8018:8039   */\n      tag_390\n      jump\t// in\n    tag_389:\n        /* \"#utility.yul\":8013:8016   */\n      dup3\n        /* \"#utility.yul\":8006:8040   */\n      mstore\n        /* \"#utility.yul\":7937:8046   */\n      pop\n      pop\n      jump\t// out\n        /* \"#utility.yul\":8052:8416   */\n    tag_391:\n        /* \"#utility.yul\":8140:8143   */\n      0x00\n        /* \"#utility.yul\":8168:8207   */\n      tag_393\n        /* \"#utility.yul\":8201:8206   */\n      dup3\n        /* \"#utility.yul\":8168:8207   */\n      tag_394\n      jump\t// in\n    tag_393:\n        /* \"#utility.yul\":8223:8294   */\n      tag_395\n        /* \"#utility.yul\":8287:8293   */\n      dup2\n        /* \"#utility.yul\":8282:8285   */\n      dup6\n        /* \"#utility.yul\":8223:8294   */\n      tag_396\n      jump\t// in\n    tag_395:\n        /* \"#utility.yul\":8216:8294   */\n      swap4\n      pop\n        /* \"#utility.yul\":8303:8355   */\n      tag_397\n        /* \"#utility.yul\":8348:8354   */\n      dup2\n        /* \"#utility.yul\":8343:8346   */\n      dup6\n        /* \"#utility.yul\":8336:8340   */\n      0x20\n        /* \"#utility.yul\":8329:8334   */\n      dup7\n        /* \"#utility.yul\":8325:8341   */\n      add\n        /* \"#utility.yul\":8303:8355   */\n      tag_398\n      jump\t// in\n    tag_397:\n        /* \"#utility.yul\":8380:8409   */\n      tag_399\n        /* \"#utility.yul\":8402:8408   */\n      dup2\n        /* \"#utility.yul\":8380:8409   */\n      tag_400\n      jump\t// in\n    tag_399:\n        /* \"#utility.yul\":8375:8378   */\n      dup5\n        /* \"#utility.yul\":8371:8410   */\n      add\n        /* \"#utility.yul\":8364:8410   */\n      swap2\n      pop\n        /* \"#utility.yul\":8144:8416   */\n      pop\n        /* \"#utility.yul\":8052:8416   */\n      swap3\n      swap2\n      pop\n      pop\n      jump\t// out\n        /* \"#utility.yul\":8422:8799   */\n    tag_401:\n        /* \"#utility.yul\":8528:8531   */\n      0x00\n        /* \"#utility.yul\":8556:8595   */\n      tag_403\n        /* \"#utility.yul\":8589:8594   */\n      dup3\n        /* \"#utility.yul\":8556:8595   */\n      tag_394\n      jump\t// in\n    tag_403:\n        /* \"#utility.yul\":8611:8700   */\n      tag_404\n        /* \"#utility.yul\":8693:8699   */\n      dup2\n        /* \"#utility.yul\":8688:8691   */\n      dup6\n        /* \"#utility.yul\":8611:8700   */\n      tag_405\n      jump\t// in\n    tag_404:\n        /* \"#utility.yul\":8604:8700   */\n      swap4\n      pop\n        /* \"#utility.yul\":8709:8761   */\n      tag_406\n        /* \"#utility.yul\":8754:8760   */\n      dup2\n        /* \"#utility.yul\":8749:8752   */\n      dup6\n        /* \"#utility.yul\":8742:8746   */\n      0x20\n        /* \"#utility.yul\":8735:8740   */\n      dup7\n        /* \"#utility.yul\":8731:8747   */\n      add\n        /* \"#utility.yul\":8709:8761   */\n      tag_398\n      jump\t// in\n    tag_406:\n        /* \"#utility.yul\":8786:8792   */\n      dup1\n        /* \"#utility.yul\":8781:8784   */\n      dup5\n        /* \"#utility.yul\":8777:8793   */\n      add\n        /* \"#utility.yul\":8770:8793   */\n      swap2\n      pop\n        /* \"#utility.yul\":8532:8799   */\n      pop\n        /* \"#utility.yul\":8422:8799   */\n      swap3\n      swap2\n      pop\n      pop\n      jump\t// out\n        /* \"#utility.yul\":8805:9171   */\n    tag_407:\n        /* \"#utility.yul\":8947:8950   */\n      0x00\n        /* \"#utility.yul\":8968:9035   */\n      tag_409\n        /* \"#utility.yul\":9032:9034   */\n      0x25\n        /* \"#utility.yul\":9027:9030   */\n      dup4\n        /* \"#utility.yul\":8968:9035   */\n      tag_396\n      jump\t// in\n    tag_409:\n        /* \"#utility.yul\":8961:9035   */\n      swap2\n      pop\n        /* \"#utility.yul\":9044:9137   */\n      tag_410\n        /* \"#utility.yul\":9133:9136   */\n      dup3\n        /* \"#utility.yul\":9044:9137   */\n      tag_411\n      jump\t// in\n    tag_410:\n        /* \"#utility.yul\":9162:9164   */\n      0x40\n        /* \"#utility.yul\":9157:9160   */\n      dup3\n        /* \"#utility.yul\":9153:9165   */\n      add\n        /* \"#utility.yul\":9146:9165   */\n      swap1\n      pop\n        /* \"#utility.yul\":8805:9171   */\n      swap2\n      swap1\n      pop\n      jump\t// out\n        /* \"#utility.yul\":9177:9543   */\n    tag_412:\n        /* \"#utility.yul\":9319:9322   */\n      0x00\n        /* \"#utility.yul\":9340:9407   */\n      tag_414\n        /* \"#utility.yul\":9404:9406   */\n      0x1c\n        /* \"#utility.yul\":9399:9402   */\n      dup4\n        /* \"#utility.yul\":9340:9407   */\n      tag_396\n      jump\t// in\n    tag_414:\n        /* \"#utility.yul\":9333:9407   */\n      swap2\n      pop\n        /* \"#utility.yul\":9416:9509   */\n      tag_415\n        /* \"#utility.yul\":9505:9508   */\n      dup3\n        /* \"#utility.yul\":9416:9509   */\n      tag_416\n      jump\t// in\n    tag_415:\n        /* \"#utility.yul\":9534:9536   */\n      0x20\n        /* \"#utility.yul\":9529:9532   */\n      dup3\n        /* \"#utility.yul\":9525:9537   */\n      add\n        /* \"#utility.yul\":9518:9537   */\n      swap1\n      pop\n        /* \"#utility.yul\":9177:9543   */\n      swap2\n      swap1\n      pop\n      jump\t// out\n        /* \"#utility.yul\":9549:9915   */\n    tag_417:\n        /* \"#utility.yul\":9691:9694   */\n      0x00\n        /* \"#utility.yul\":9712:9779   */\n      tag_419\n        /* \"#utility.yul\":9776:9778   */\n      0x24\n        /* \"#utility.yul\":9771:9774   */\n      dup4\n        /* \"#utility.yul\":9712:9779   */\n      tag_396\n      jump\t// in\n    tag_419:\n        /* \"#utility.yul\":9705:9779   */\n      swap2\n      pop\n        /* \"#utility.yul\":9788:9881   */\n      tag_420\n        /* \"#utility.yul\":9877:9880   */\n      dup3\n        /* \"#utility.yul\":9788:9881   */\n      tag_421\n      jump\t// in\n    tag_420:\n        /* \"#utility.yul\":9906:9908   */\n      0x40\n        /* \"#utility.yul\":9901:9904   */\n      dup3\n        /* \"#utility.yul\":9897:9909   */\n      add\n        /* \"#utility.yul\":9890:9909   */\n      swap1\n      pop\n        /* \"#utility.yul\":9549:9915   */\n      swap2\n      swap1\n      pop\n      jump\t// out\n        /* \"#utility.yul\":9921:10287   */\n    tag_422:\n        /* \"#utility.yul\":10063:10066   */\n      0x00\n        /* \"#utility.yul\":10084:10151   */\n      tag_424\n        /* \"#utility.yul\":10148:10150   */\n      0x19\n        /* \"#utility.yul\":10143:10146   */\n      dup4\n        /* \"#utility.yul\":10084:10151   */\n      tag_396\n      jump\t// in\n    tag_424:\n        /* \"#utility.yul\":10077:10151   */\n      swap2\n      pop\n        /* \"#utility.yul\":10160:10253   */\n      tag_425\n        /* \"#utility.yul\":10249:10252   */\n      dup3\n        /* \"#utility.yul\":10160:10253   */\n      tag_426\n      jump\t// in\n    tag_425:\n        /* \"#utility.yul\":10278:10280   */\n      0x20\n        /* \"#utility.yul\":10273:10276   */\n      dup3\n        /* \"#utility.yul\":10269:10281   */\n      add\n        /* \"#utility.yul\":10262:10281   */\n      swap1\n      pop\n        /* \"#utility.yul\":9921:10287   */\n      swap2\n      swap1\n      pop\n      jump\t// out\n        /* \"#utility.yul\":10293:10659   */\n    tag_427:\n        /* \"#utility.yul\":10435:10438   */\n      0x00\n        /* \"#utility.yul\":10456:10523   */\n      tag_429\n        /* \"#utility.yul\":10520:10522   */\n      0x29\n        /* \"#utility.yul\":10515:10518   */\n      dup4\n        /* \"#utility.yul\":10456:10523   */\n      tag_396\n      jump\t// in\n    tag_429:\n        /* \"#utility.yul\":10449:10523   */\n      swap2\n      pop\n        /* \"#utility.yul\":10532:10625   */\n      tag_430\n        /* \"#utility.yul\":10621:10624   */\n      dup3\n        /* \"#utility.yul\":10532:10625   */\n      tag_431\n      jump\t// in\n    tag_430:\n        /* \"#utility.yul\":10650:10652   */\n      0x40\n        /* \"#utility.yul\":10645:10648   */\n      dup3\n        /* \"#utility.yul\":10641:10653   */\n      add\n        /* \"#utility.yul\":10634:10653   */\n      swap1\n      pop\n        /* \"#utility.yul\":10293:10659   */\n      swap2\n      swap1\n      pop\n      jump\t// out\n        /* \"#utility.yul\":10665:11031   */\n    tag_432:\n        /* \"#utility.yul\":10807:10810   */\n      0x00\n        /* \"#utility.yul\":10828:10895   */\n      tag_434\n        /* \"#utility.yul\":10892:10894   */\n      0x3e\n        /* \"#utility.yul\":10887:10890   */\n      dup4\n        /* \"#utility.yul\":10828:10895   */\n      tag_396\n      jump\t// in\n    tag_434:\n        /* \"#utility.yul\":10821:10895   */\n      swap2\n      pop\n        /* \"#utility.yul\":10904:10997   */\n      tag_435\n        /* \"#utility.yul\":10993:10996   */\n      dup3\n        /* \"#utility.yul\":10904:10997   */\n      tag_436\n      jump\t// in\n    tag_435:\n        /* \"#utility.yul\":11022:11024   */\n      0x40\n        /* \"#utility.yul\":11017:11020   */\n      dup3\n        /* \"#utility.yul\":11013:11025   */\n      add\n        /* \"#utility.yul\":11006:11025   */\n      swap1\n      pop\n        /* \"#utility.yul\":10665:11031   */\n      swap2\n      swap1\n      pop\n      jump\t// out\n        /* \"#utility.yul\":11037:11403   */\n    tag_437:\n        /* \"#utility.yul\":11179:11182   */\n      0x00\n        /* \"#utility.yul\":11200:11267   */\n      tag_439\n        /* \"#utility.yul\":11264:11266   */\n      0x18\n        /* \"#utility.yul\":11259:11262   */\n      dup4\n        /* \"#utility.yul\":11200:11267   */\n      tag_396\n      jump\t// in\n    tag_439:\n        /* \"#utility.yul\":11193:11267   */\n      swap2\n      pop\n        /* \"#utility.yul\":11276:11369   */\n      tag_440\n        /* \"#utility.yul\":11365:11368   */\n      dup3\n        /* \"#utility.yul\":11276:11369   */\n      tag_441\n      jump\t// in\n    tag_440:\n        /* \"#utility.yul\":11394:11396   */\n      0x20\n        /* \"#utility.yul\":11389:11392   */\n      dup3\n        /* \"#utility.yul\":11385:11397   */\n      add\n        /* \"#utility.yul\":11378:11397   */\n      swap1\n      pop\n        /* \"#utility.yul\":11037:11403   */\n      swap2\n      swap1\n      pop\n      jump\t// out\n        /* \"#utility.yul\":11409:11775   */\n    tag_442:\n        /* \"#utility.yul\":11551:11554   */\n      0x00\n        /* \"#utility.yul\":11572:11639   */\n      tag_444\n        /* \"#utility.yul\":11636:11638   */\n      0x21\n        /* \"#utility.yul\":11631:11634   */\n      dup4\n        /* \"#utility.yul\":11572:11639   */\n      tag_396\n      jump\t// in\n    tag_444:\n        /* \"#utility.yul\":11565:11639   */\n      swap2\n      pop\n        /* \"#utility.yul\":11648:11741   */\n      tag_445\n        /* \"#utility.yul\":11737:11740   */\n      dup3\n        /* \"#utility.yul\":11648:11741   */\n      tag_446\n      jump\t// in\n    tag_445:\n        /* \"#utility.yul\":11766:11768   */\n      0x40\n        /* \"#utility.yul\":11761:11764   */\n      dup3\n        /* \"#utility.yul\":11757:11769   */\n      add\n        /* \"#utility.yul\":11750:11769   */\n      swap1\n      pop\n        /* \"#utility.yul\":11409:11775   */\n      swap2\n      swap1\n      pop\n      jump\t// out\n        /* \"#utility.yul\":11781:12147   */\n    tag_447:\n        /* \"#utility.yul\":11923:11926   */\n      0x00\n        /* \"#utility.yul\":11944:12011   */\n      tag_449\n        /* \"#utility.yul\":12008:12010   */\n      0x2e\n        /* \"#utility.yul\":12003:12006   */\n      dup4\n        /* \"#utility.yul\":11944:12011   */\n      tag_396\n      jump\t// in\n    tag_449:\n        /* \"#utility.yul\":11937:12011   */\n      swap2\n      pop\n        /* \"#utility.yul\":12020:12113   */\n      tag_450\n        /* \"#utility.yul\":12109:12112   */\n      dup3\n        /* \"#utility.yul\":12020:12113   */\n      tag_451\n      jump\t// in\n    tag_450:\n        /* \"#utility.yul\":12138:12140   */\n      0x40\n        /* \"#utility.yul\":12133:12136   */\n      dup3\n        /* \"#utility.yul\":12129:12141   */\n      add\n        /* \"#utility.yul\":12122:12141   */\n      swap1\n      pop\n        /* \"#utility.yul\":11781:12147   */\n      swap2\n      swap1\n      pop\n      jump\t// out\n        /* \"#utility.yul\":12153:12271   */\n    tag_452:\n        /* \"#utility.yul\":12240:12264   */\n      tag_454\n        /* \"#utility.yul\":12258:12263   */\n      dup2\n        /* \"#utility.yul\":12240:12264   */\n      tag_455\n      jump\t// in\n    tag_454:\n        /* \"#utility.yul\":12235:12238   */\n      dup3\n        /* \"#utility.yul\":12228:12265   */\n      mstore\n        /* \"#utility.yul\":12153:12271   */\n      pop\n      pop\n      jump\t// out\n        /* \"#utility.yul\":12277:12712   */\n    tag_180:\n        /* \"#utility.yul\":12457:12460   */\n      0x00\n        /* \"#utility.yul\":12479:12574   */\n      tag_457\n        /* \"#utility.yul\":12570:12573   */\n      dup3\n        /* \"#utility.yul\":12561:12567   */\n      dup6\n        /* \"#utility.yul\":12479:12574   */\n      tag_401\n      jump\t// in\n    tag_457:\n        /* \"#utility.yul\":12472:12574   */\n      swap2\n      pop\n        /* \"#utility.yul\":12591:12686   */\n      tag_458\n        /* \"#utility.yul\":12682:12685   */\n      dup3\n        /* \"#utility.yul\":12673:12679   */\n      dup5\n        /* \"#utility.yul\":12591:12686   */\n      tag_401\n      jump\t// in\n    tag_458:\n        /* \"#utility.yul\":12584:12686   */\n      swap2\n      pop\n        /* \"#utility.yul\":12703:12706   */\n      dup2\n        /* \"#utility.yul\":12696:12706   */\n      swap1\n      pop\n        /* \"#utility.yul\":12277:12712   */\n      swap4\n      swap3\n      pop\n      pop\n      pop\n      jump\t// out\n        /* \"#utility.yul\":12718:12940   */\n    tag_36:\n        /* \"#utility.yul\":12811:12815   */\n      0x00\n        /* \"#utility.yul\":12849:12851   */\n      0x20\n        /* \"#utility.yul\":12838:12847   */\n      dup3\n        /* \"#utility.yul\":12834:12852   */\n      add\n        /* \"#utility.yul\":12826:12852   */\n      swap1\n      pop\n        /* \"#utility.yul\":12862:12933   */\n      tag_460\n        /* \"#utility.yul\":12930:12931   */\n      0x00\n        /* \"#utility.yul\":12919:12928   */\n      dup4\n        /* \"#utility.yul\":12915:12932   */\n      add\n        /* \"#utility.yul\":12906:12912   */\n      dup5\n        /* \"#utility.yul\":12862:12933   */\n      tag_383\n      jump\t// in\n    tag_460:\n        /* \"#utility.yul\":12718:12940   */\n      swap3\n      swap2\n      pop\n      pop\n      jump\t// out\n        /* \"#utility.yul\":12946:13156   */\n    tag_26:\n        /* \"#utility.yul\":13033:13037   */\n      0x00\n        /* \"#utility.yul\":13071:13073   */\n      0x20\n        /* \"#utility.yul\":13060:13069   */\n      dup3\n        /* \"#utility.yul\":13056:13074   */\n      add\n        /* \"#utility.yul\":13048:13074   */\n      swap1\n      pop\n        /* \"#utility.yul\":13084:13149   */\n      tag_462\n        /* \"#utility.yul\":13146:13147   */\n      0x00\n        /* \"#utility.yul\":13135:13144   */\n      dup4\n        /* \"#utility.yul\":13131:13148   */\n      add\n        /* \"#utility.yul\":13122:13128   */\n      dup5\n        /* \"#utility.yul\":13084:13149   */\n      tag_387\n      jump\t// in\n    tag_462:\n        /* \"#utility.yul\":12946:13156   */\n      swap3\n      swap2\n      pop\n      pop\n      jump\t// out\n        /* \"#utility.yul\":13162:13475   */\n    tag_30:\n        /* \"#utility.yul\":13275:13279   */\n      0x00\n        /* \"#utility.yul\":13313:13315   */\n      0x20\n        /* \"#utility.yul\":13302:13311   */\n      dup3\n        /* \"#utility.yul\":13298:13316   */\n      add\n        /* \"#utility.yul\":13290:13316   */\n      swap1\n      pop\n        /* \"#utility.yul\":13362:13371   */\n      dup2\n        /* \"#utility.yul\":13356:13360   */\n      dup2\n        /* \"#utility.yul\":13352:13372   */\n      sub\n        /* \"#utility.yul\":13348:13349   */\n      0x00\n        /* \"#utility.yul\":13337:13346   */\n      dup4\n        /* \"#utility.yul\":13333:13350   */\n      add\n        /* \"#utility.yul\":13326:13373   */\n      mstore\n        /* \"#utility.yul\":13390:13468   */\n      tag_464\n        /* \"#utility.yul\":13463:13467   */\n      dup2\n        /* \"#utility.yul\":13454:13460   */\n      dup5\n        /* \"#utility.yul\":13390:13468   */\n      tag_391\n      jump\t// in\n    tag_464:\n        /* \"#utility.yul\":13382:13468   */\n      swap1\n      pop\n        /* \"#utility.yul\":13162:13475   */\n      swap3\n      swap2\n      pop\n      pop\n      jump\t// out\n        /* \"#utility.yul\":13481:13900   */\n    tag_212:\n        /* \"#utility.yul\":13647:13651   */\n      0x00\n        /* \"#utility.yul\":13685:13687   */\n      0x20\n        /* \"#utility.yul\":13674:13683   */\n      dup3\n        /* \"#utility.yul\":13670:13688   */\n      add\n        /* \"#utility.yul\":13662:13688   */\n      swap1\n      pop\n        /* \"#utility.yul\":13734:13743   */\n      dup2\n        /* \"#utility.yul\":13728:13732   */\n      dup2\n        /* \"#utility.yul\":13724:13744   */\n      sub\n        /* \"#utility.yul\":13720:13721   */\n      0x00\n        /* \"#utility.yul\":13709:13718   */\n      dup4\n        /* \"#utility.yul\":13705:13722   */\n      add\n        /* \"#utility.yul\":13698:13745   */\n      mstore\n        /* \"#utility.yul\":13762:13893   */\n      tag_466\n        /* \"#utility.yul\":13888:13892   */\n      dup2\n        /* \"#utility.yul\":13762:13893   */\n      tag_407\n      jump\t// in\n    tag_466:\n        /* \"#utility.yul\":13754:13893   */\n      swap1\n      pop\n        /* \"#utility.yul\":13481:13900   */\n      swap2\n      swap1\n      pop\n      jump\t// out\n        /* \"#utility.yul\":13906:14325   */\n    tag_191:\n        /* \"#utility.yul\":14072:14076   */\n      0x00\n        /* \"#utility.yul\":14110:14112   */\n      0x20\n        /* \"#utility.yul\":14099:14108   */\n      dup3\n        /* \"#utility.yul\":14095:14113   */\n      add\n        /* \"#utility.yul\":14087:14113   */\n      swap1\n      pop\n        /* \"#utility.yul\":14159:14168   */\n      dup2\n        /* \"#utility.yul\":14153:14157   */\n      dup2\n        /* \"#utility.yul\":14149:14169   */\n      sub\n        /* \"#utility.yul\":14145:14146   */\n      0x00\n        /* \"#utility.yul\":14134:14143   */\n      dup4\n        /* \"#utility.yul\":14130:14147   */\n      add\n        /* \"#utility.yul\":14123:14170   */\n      mstore\n        /* \"#utility.yul\":14187:14318   */\n      tag_468\n        /* \"#utility.yul\":14313:14317   */\n      dup2\n        /* \"#utility.yul\":14187:14318   */\n      tag_412\n      jump\t// in\n    tag_468:\n        /* \"#utility.yul\":14179:14318   */\n      swap1\n      pop\n        /* \"#utility.yul\":13906:14325   */\n      swap2\n      swap1\n      pop\n      jump\t// out\n        /* \"#utility.yul\":14331:14750   */\n    tag_215:\n        /* \"#utility.yul\":14497:14501   */\n      0x00\n        /* \"#utility.yul\":14535:14537   */\n      0x20\n        /* \"#utility.yul\":14524:14533   */\n      dup3\n        /* \"#utility.yul\":14520:14538   */\n      add\n        /* \"#utility.yul\":14512:14538   */\n      swap1\n      pop\n        /* \"#utility.yul\":14584:14593   */\n      dup2\n        /* \"#utility.yul\":14578:14582   */\n      dup2\n        /* \"#utility.yul\":14574:14594   */\n      sub\n        /* \"#utility.yul\":14570:14571   */\n      0x00\n        /* \"#utility.yul\":14559:14568   */\n      dup4\n        /* \"#utility.yul\":14555:14572   */\n      add\n        /* \"#utility.yul\":14548:14595   */\n      mstore\n        /* \"#utility.yul\":14612:14743   */\n      tag_470\n        /* \"#utility.yul\":14738:14742   */\n      dup2\n        /* \"#utility.yul\":14612:14743   */\n      tag_417\n      jump\t// in\n    tag_470:\n        /* \"#utility.yul\":14604:14743   */\n      swap1\n      pop\n        /* \"#utility.yul\":14331:14750   */\n      swap2\n      swap1\n      pop\n      jump\t// out\n        /* \"#utility.yul\":14756:15175   */\n    tag_224:\n        /* \"#utility.yul\":14922:14926   */\n      0x00\n        /* \"#utility.yul\":14960:14962   */\n      0x20\n        /* \"#utility.yul\":14949:14958   */\n      dup3\n        /* \"#utility.yul\":14945:14963   */\n      add\n        /* \"#utility.yul\":14937:14963   */\n      swap1\n      pop\n        /* \"#utility.yul\":15009:15018   */\n      dup2\n        /* \"#utility.yul\":15003:15007   */\n      dup2\n        /* \"#utility.yul\":14999:15019   */\n      sub\n        /* \"#utility.yul\":14995:14996   */\n      0x00\n        /* \"#utility.yul\":14984:14993   */\n      dup4\n        /* \"#utility.yul\":14980:14997   */\n      add\n        /* \"#utility.yul\":14973:15020   */\n      mstore\n        /* \"#utility.yul\":15037:15168   */\n      tag_472\n        /* \"#utility.yul\":15163:15167   */\n      dup2\n        /* \"#utility.yul\":15037:15168   */\n      tag_422\n      jump\t// in\n    tag_472:\n        /* \"#utility.yul\":15029:15168   */\n      swap1\n      pop\n        /* \"#utility.yul\":14756:15175   */\n      swap2\n      swap1\n      pop\n      jump\t// out\n        /* \"#utility.yul\":15181:15600   */\n    tag_146:\n        /* \"#utility.yul\":15347:15351   */\n      0x00\n        /* \"#utility.yul\":15385:15387   */\n      0x20\n        /* \"#utility.yul\":15374:15383   */\n      dup3\n        /* \"#utility.yul\":15370:15388   */\n      add\n        /* \"#utility.yul\":15362:15388   */\n      swap1\n      pop\n        /* \"#utility.yul\":15434:15443   */\n      dup2\n        /* \"#utility.yul\":15428:15432   */\n      dup2\n        /* \"#utility.yul\":15424:15444   */\n      sub\n        /* \"#utility.yul\":15420:15421   */\n      0x00\n        /* \"#utility.yul\":15409:15418   */\n      dup4\n        /* \"#utility.yul\":15405:15422   */\n      add\n        /* \"#utility.yul\":15398:15445   */\n      mstore\n        /* \"#utility.yul\":15462:15593   */\n      tag_474\n        /* \"#utility.yul\":15588:15592   */\n      dup2\n        /* \"#utility.yul\":15462:15593   */\n      tag_427\n      jump\t// in\n    tag_474:\n        /* \"#utility.yul\":15454:15593   */\n      swap1\n      pop\n        /* \"#utility.yul\":15181:15600   */\n      swap2\n      swap1\n      pop\n      jump\t// out\n        /* \"#utility.yul\":15606:16025   */\n    tag_109:\n        /* \"#utility.yul\":15772:15776   */\n      0x00\n        /* \"#utility.yul\":15810:15812   */\n      0x20\n        /* \"#utility.yul\":15799:15808   */\n      dup3\n        /* \"#utility.yul\":15795:15813   */\n      add\n        /* \"#utility.yul\":15787:15813   */\n      swap1\n      pop\n        /* \"#utility.yul\":15859:15868   */\n      dup2\n        /* \"#utility.yul\":15853:15857   */\n      dup2\n        /* \"#utility.yul\":15849:15869   */\n      sub\n        /* \"#utility.yul\":15845:15846   */\n      0x00\n        /* \"#utility.yul\":15834:15843   */\n      dup4\n        /* \"#utility.yul\":15830:15847   */\n      add\n        /* \"#utility.yul\":15823:15870   */\n      mstore\n        /* \"#utility.yul\":15887:16018   */\n      tag_476\n        /* \"#utility.yul\":16013:16017   */\n      dup2\n        /* \"#utility.yul\":15887:16018   */\n      tag_432\n      jump\t// in\n    tag_476:\n        /* \"#utility.yul\":15879:16018   */\n      swap1\n      pop\n        /* \"#utility.yul\":15606:16025   */\n      swap2\n      swap1\n      pop\n      jump\t// out\n        /* \"#utility.yul\":16031:16450   */\n    tag_142:\n        /* \"#utility.yul\":16197:16201   */\n      0x00\n        /* \"#utility.yul\":16235:16237   */\n      0x20\n        /* \"#utility.yul\":16224:16233   */\n      dup3\n        /* \"#utility.yul\":16220:16238   */\n      add\n        /* \"#utility.yul\":16212:16238   */\n      swap1\n      pop\n        /* \"#utility.yul\":16284:16293   */\n      dup2\n        /* \"#utility.yul\":16278:16282   */\n      dup2\n        /* \"#utility.yul\":16274:16294   */\n      sub\n        /* \"#utility.yul\":16270:16271   */\n      0x00\n        /* \"#utility.yul\":16259:16268   */\n      dup4\n        /* \"#utility.yul\":16255:16272   */\n      add\n        /* \"#utility.yul\":16248:16295   */\n      mstore\n        /* \"#utility.yul\":16312:16443   */\n      tag_478\n        /* \"#utility.yul\":16438:16442   */\n      dup2\n        /* \"#utility.yul\":16312:16443   */\n      tag_437\n      jump\t// in\n    tag_478:\n        /* \"#utility.yul\":16304:16443   */\n      swap1\n      pop\n        /* \"#utility.yul\":16031:16450   */\n      swap2\n      swap1\n      pop\n      jump\t// out\n        /* \"#utility.yul\":16456:16875   */\n    tag_101:\n        /* \"#utility.yul\":16622:16626   */\n      0x00\n        /* \"#utility.yul\":16660:16662   */\n      0x20\n        /* \"#utility.yul\":16649:16658   */\n      dup3\n        /* \"#utility.yul\":16645:16663   */\n      add\n        /* \"#utility.yul\":16637:16663   */\n      swap1\n      pop\n        /* \"#utility.yul\":16709:16718   */\n      dup2\n        /* \"#utility.yul\":16703:16707   */\n      dup2\n        /* \"#utility.yul\":16699:16719   */\n      sub\n        /* \"#utility.yul\":16695:16696   */\n      0x00\n        /* \"#utility.yul\":16684:16693   */\n      dup4\n        /* \"#utility.yul\":16680:16697   */\n      add\n        /* \"#utility.yul\":16673:16720   */\n      mstore\n        /* \"#utility.yul\":16737:16868   */\n      tag_480\n        /* \"#utility.yul\":16863:16867   */\n      dup2\n        /* \"#utility.yul\":16737:16868   */\n      tag_442\n      jump\t// in\n    tag_480:\n        /* \"#utility.yul\":16729:16868   */\n      swap1\n      pop\n        /* \"#utility.yul\":16456:16875   */\n      swap2\n      swap1\n      pop\n      jump\t// out\n        /* \"#utility.yul\":16881:17300   */\n    tag_128:\n        /* \"#utility.yul\":17047:17051   */\n      0x00\n        /* \"#utility.yul\":17085:17087   */\n      0x20\n        /* \"#utility.yul\":17074:17083   */\n      dup3\n        /* \"#utility.yul\":17070:17088   */\n      add\n        /* \"#utility.yul\":17062:17088   */\n      swap1\n      pop\n        /* \"#utility.yul\":17134:17143   */\n      dup2\n        /* \"#utility.yul\":17128:17132   */\n      dup2\n        /* \"#utility.yul\":17124:17144   */\n      sub\n        /* \"#utility.yul\":17120:17121   */\n      0x00\n        /* \"#utility.yul\":17109:17118   */\n      dup4\n        /* \"#utility.yul\":17105:17122   */\n      add\n        /* \"#utility.yul\":17098:17145   */\n      mstore\n        /* \"#utility.yul\":17162:17293   */\n      tag_482\n        /* \"#utility.yul\":17288:17292   */\n      dup2\n        /* \"#utility.yul\":17162:17293   */\n      tag_447\n      jump\t// in\n    tag_482:\n        /* \"#utility.yul\":17154:17293   */\n      swap1\n      pop\n        /* \"#utility.yul\":16881:17300   */\n      swap2\n      swap1\n      pop\n      jump\t// out\n        /* \"#utility.yul\":17306:17528   */\n    tag_63:\n        /* \"#utility.yul\":17399:17403   */\n      0x00\n        /* \"#utility.yul\":17437:17439   */\n      0x20\n        /* \"#utility.yul\":17426:17435   */\n      dup3\n        /* \"#utility.yul\":17422:17440   */\n      add\n        /* \"#utility.yul\":17414:17440   */\n      swap1\n      pop\n        /* \"#utility.yul\":17450:17521   */\n      tag_484\n        /* \"#utility.yul\":17518:17519   */\n      0x00\n        /* \"#utility.yul\":17507:17516   */\n      dup4\n        /* \"#utility.yul\":17503:17520   */\n      add\n        /* \"#utility.yul\":17494:17500   */\n      dup5\n        /* \"#utility.yul\":17450:17521   */\n      tag_452\n      jump\t// in\n    tag_484:\n        /* \"#utility.yul\":17306:17528   */\n      swap3\n      swap2\n      pop\n      pop\n      jump\t// out\n        /* \"#utility.yul\":17534:17663   */\n    tag_277:\n        /* \"#utility.yul\":17568:17574   */\n      0x00\n        /* \"#utility.yul\":17595:17615   */\n      tag_486\n      tag_487\n      jump\t// in\n    tag_486:\n        /* \"#utility.yul\":17585:17615   */\n      swap1\n      pop\n        /* \"#utility.yul\":17624:17657   */\n      tag_488\n        /* \"#utility.yul\":17652:17656   */\n      dup3\n        /* \"#utility.yul\":17644:17650   */\n      dup3\n        /* \"#utility.yul\":17624:17657   */\n      tag_489\n      jump\t// in\n    tag_488:\n        /* \"#utility.yul\":17534:17663   */\n      swap2\n      swap1\n      pop\n      jump\t// out\n        /* \"#utility.yul\":17669:17744   */\n    tag_487:\n        /* \"#utility.yul\":17702:17708   */\n      0x00\n        /* \"#utility.yul\":17735:17737   */\n      0x40\n        /* \"#utility.yul\":17729:17738   */\n      mload\n        /* \"#utility.yul\":17719:17738   */\n      swap1\n      pop\n        /* \"#utility.yul\":17669:17744   */\n      swap1\n      jump\t// out\n        /* \"#utility.yul\":17750:18057   */\n    tag_276:\n        /* \"#utility.yul\":17811:17815   */\n      0x00\n        /* \"#utility.yul\":17901:17919   */\n      0xffffffffffffffff\n        /* \"#utility.yul\":17893:17899   */\n      dup3\n        /* \"#utility.yul\":17890:17920   */\n      gt\n        /* \"#utility.yul\":17887:17943   */\n      iszero\n      tag_492\n      jumpi\n        /* \"#utility.yul\":17923:17941   */\n      tag_493\n      tag_243\n      jump\t// in\n    tag_493:\n        /* \"#utility.yul\":17887:17943   */\n    tag_492:\n        /* \"#utility.yul\":17961:17990   */\n      tag_494\n        /* \"#utility.yul\":17983:17989   */\n      dup3\n        /* \"#utility.yul\":17961:17990   */\n      tag_400\n      jump\t// in\n    tag_494:\n        /* \"#utility.yul\":17953:17990   */\n      swap1\n      pop\n        /* \"#utility.yul\":18045:18049   */\n      0x20\n        /* \"#utility.yul\":18039:18043   */\n      dup2\n        /* \"#utility.yul\":18035:18050   */\n      add\n        /* \"#utility.yul\":18027:18050   */\n      swap1\n      pop\n        /* \"#utility.yul\":17750:18057   */\n      swap2\n      swap1\n      pop\n      jump\t// out\n        /* \"#utility.yul\":18063:18371   */\n    tag_287:\n        /* \"#utility.yul\":18125:18129   */\n      0x00\n        /* \"#utility.yul\":18215:18233   */\n      0xffffffffffffffff\n        /* \"#utility.yul\":18207:18213   */\n      dup3\n        /* \"#utility.yul\":18204:18234   */\n      gt\n        /* \"#utility.yul\":18201:18257   */\n      iszero\n      tag_496\n      jumpi\n        /* \"#utility.yul\":18237:18255   */\n      tag_497\n      tag_243\n      jump\t// in\n    tag_497:\n        /* \"#utility.yul\":18201:18257   */\n    tag_496:\n        /* \"#utility.yul\":18275:18304   */\n      tag_498\n        /* \"#utility.yul\":18297:18303   */\n      dup3\n        /* \"#utility.yul\":18275:18304   */\n      tag_400\n      jump\t// in\n    tag_498:\n        /* \"#utility.yul\":18267:18304   */\n      swap1\n      pop\n        /* \"#utility.yul\":18359:18363   */\n      0x20\n        /* \"#utility.yul\":18353:18357   */\n      dup2\n        /* \"#utility.yul\":18349:18364   */\n      add\n        /* \"#utility.yul\":18341:18364   */\n      swap1\n      pop\n        /* \"#utility.yul\":18063:18371   */\n      swap2\n      swap1\n      pop\n      jump\t// out\n        /* \"#utility.yul\":18377:18476   */\n    tag_394:\n        /* \"#utility.yul\":18429:18435   */\n      0x00\n        /* \"#utility.yul\":18463:18468   */\n      dup2\n        /* \"#utility.yul\":18457:18469   */\n      mload\n        /* \"#utility.yul\":18447:18469   */\n      swap1\n      pop\n        /* \"#utility.yul\":18377:18476   */\n      swap2\n      swap1\n      pop\n      jump\t// out\n        /* \"#utility.yul\":18482:18651   */\n    tag_396:\n        /* \"#utility.yul\":18566:18577   */\n      0x00\n        /* \"#utility.yul\":18600:18606   */\n      dup3\n        /* \"#utility.yul\":18595:18598   */\n      dup3\n        /* \"#utility.yul\":18588:18607   */\n      mstore\n        /* \"#utility.yul\":18640:18644   */\n      0x20\n        /* \"#utility.yul\":18635:18638   */\n      dup3\n        /* \"#utility.yul\":18631:18645   */\n      add\n        /* \"#utility.yul\":18616:18645   */\n      swap1\n      pop\n        /* \"#utility.yul\":18482:18651   */\n      swap3\n      swap2\n      pop\n      pop\n      jump\t// out\n        /* \"#utility.yul\":18657:18805   */\n    tag_405:\n        /* \"#utility.yul\":18759:18770   */\n      0x00\n        /* \"#utility.yul\":18796:18799   */\n      dup2\n        /* \"#utility.yul\":18781:18799   */\n      swap1\n      pop\n        /* \"#utility.yul\":18657:18805   */\n      swap3\n      swap2\n      pop\n      pop\n      jump\t// out\n        /* \"#utility.yul\":18811:19116   */\n    tag_114:\n        /* \"#utility.yul\":18851:18854   */\n      0x00\n        /* \"#utility.yul\":18870:18890   */\n      tag_503\n        /* \"#utility.yul\":18888:18889   */\n      dup3\n        /* \"#utility.yul\":18870:18890   */\n      tag_455\n      jump\t// in\n    tag_503:\n        /* \"#utility.yul\":18865:18890   */\n      swap2\n      pop\n        /* \"#utility.yul\":18904:18924   */\n      tag_504\n        /* \"#utility.yul\":18922:18923   */\n      dup4\n        /* \"#utility.yul\":18904:18924   */\n      tag_455\n      jump\t// in\n    tag_504:\n        /* \"#utility.yul\":18899:18924   */\n      swap3\n      pop\n        /* \"#utility.yul\":19058:19059   */\n      dup3\n        /* \"#utility.yul\":18990:19056   */\n      0xffffffffffffffffffffffffffffffffffffffffffffffffffffffffffffffff\n        /* \"#utility.yul\":18986:19060   */\n      sub\n        /* \"#utility.yul\":18983:18984   */\n      dup3\n        /* \"#utility.yul\":18980:19061   */\n      gt\n        /* \"#utility.yul\":18977:19084   */\n      iszero\n      tag_505\n      jumpi\n        /* \"#utility.yul\":19064:19082   */\n      tag_506\n      tag_507\n      jump\t// in\n    tag_506:\n        /* \"#utility.yul\":18977:19084   */\n    tag_505:\n        /* \"#utility.yul\":19108:19109   */\n      dup3\n        /* \"#utility.yul\":19105:19106   */\n      dup3\n        /* \"#utility.yul\":19101:19110   */\n      add\n        /* \"#utility.yul\":19094:19110   */\n      swap1\n      pop\n        /* \"#utility.yul\":18811:19116   */\n      swap3\n      swap2\n      pop\n      pop\n      jump\t// out\n        /* \"#utility.yul\":19122:19307   */\n    tag_240:\n        /* \"#utility.yul\":19162:19163   */\n      0x00\n        /* \"#utility.yul\":19179:19199   */\n      tag_509\n        /* \"#utility.yul\":19197:19198   */\n      dup3\n        /* \"#utility.yul\":19179:19199   */\n      tag_455\n      jump\t// in\n    tag_509:\n        /* \"#utility.yul\":19174:19199   */\n      swap2\n      pop\n        /* \"#utility.yul\":19213:19233   */\n      tag_510\n        /* \"#utility.yul\":19231:19232   */\n      dup4\n        /* \"#utility.yul\":19213:19233   */\n      tag_455\n      jump\t// in\n    tag_510:\n        /* \"#utility.yul\":19208:19233   */\n      swap3\n      pop\n        /* \"#utility.yul\":19252:19253   */\n      dup3\n        /* \"#utility.yul\":19242:19277   */\n      tag_511\n      jumpi\n        /* \"#utility.yul\":19257:19275   */\n      tag_512\n      tag_513\n      jump\t// in\n    tag_512:\n        /* \"#utility.yul\":19242:19277   */\n    tag_511:\n        /* \"#utility.yul\":19299:19300   */\n      dup3\n        /* \"#utility.yul\":19296:19297   */\n      dup3\n        /* \"#utility.yul\":19292:19301   */\n      div\n        /* \"#utility.yul\":19287:19301   */\n      swap1\n      pop\n        /* \"#utility.yul\":19122:19307   */\n      swap3\n      swap2\n      pop\n      pop\n      jump\t// out\n        /* \"#utility.yul\":19313:19504   */\n    tag_248:\n        /* \"#utility.yul\":19353:19357   */\n      0x00\n        /* \"#utility.yul\":19373:19393   */\n      tag_515\n        /* \"#utility.yul\":19391:19392   */\n      dup3\n        /* \"#utility.yul\":19373:19393   */\n      tag_455\n      jump\t// in\n    tag_515:\n        /* \"#utility.yul\":19368:19393   */\n      swap2\n      pop\n        /* \"#utility.yul\":19407:19427   */\n      tag_516\n        /* \"#utility.yul\":19425:19426   */\n      dup4\n        /* \"#utility.yul\":19407:19427   */\n      tag_455\n      jump\t// in\n    tag_516:\n        /* \"#utility.yul\":19402:19427   */\n      swap3\n      pop\n        /* \"#utility.yul\":19446:19447   */\n      dup3\n        /* \"#utility.yul\":19443:19444   */\n      dup3\n        /* \"#utility.yul\":19440:19448   */\n      lt\n        /* \"#utility.yul\":19437:19471   */\n      iszero\n      tag_517\n      jumpi\n        /* \"#utility.yul\":19451:19469   */\n      tag_518\n      tag_507\n      jump\t// in\n    tag_518:\n        /* \"#utility.yul\":19437:19471   */\n    tag_517:\n        /* \"#utility.yul\":19496:19497   */\n      dup3\n        /* \"#utility.yul\":19493:19494   */\n      dup3\n        /* \"#utility.yul\":19489:19498   */\n      sub\n        /* \"#utility.yul\":19481:19498   */\n      swap1\n      pop\n        /* \"#utility.yul\":19313:19504   */\n      swap3\n      swap2\n      pop\n      pop\n      jump\t// out\n        /* \"#utility.yul\":19510:19606   */\n    tag_386:\n        /* \"#utility.yul\":19547:19554   */\n      0x00\n        /* \"#utility.yul\":19576:19600   */\n      tag_520\n        /* \"#utility.yul\":19594:19599   */\n      dup3\n        /* \"#utility.yul\":19576:19600   */\n      tag_521\n      jump\t// in\n    tag_520:\n        /* \"#utility.yul\":19565:19600   */\n      swap1\n      pop\n        /* \"#utility.yul\":19510:19606   */\n      swap2\n      swap1\n      pop\n      jump\t// out\n        /* \"#utility.yul\":19612:19702   */\n    tag_390:\n        /* \"#utility.yul\":19646:19653   */\n      0x00\n        /* \"#utility.yul\":19689:19694   */\n      dup2\n        /* \"#utility.yul\":19682:19695   */\n      iszero\n        /* \"#utility.yul\":19675:19696   */\n      iszero\n        /* \"#utility.yul\":19664:19696   */\n      swap1\n      pop\n        /* \"#utility.yul\":19612:19702   */\n      swap2\n      swap1\n      pop\n      jump\t// out\n        /* \"#utility.yul\":19708:19857   */\n    tag_523:\n        /* \"#utility.yul\":19744:19751   */\n      0x00\n        /* \"#utility.yul\":19784:19850   */\n      0xffffffff00000000000000000000000000000000000000000000000000000000\n        /* \"#utility.yul\":19777:19782   */\n      dup3\n        /* \"#utility.yul\":19773:19851   */\n      and\n        /* \"#utility.yul\":19762:19851   */\n      swap1\n      pop\n        /* \"#utility.yul\":19708:19857   */\n      swap2\n      swap1\n      pop\n      jump\t// out\n        /* \"#utility.yul\":19863:19989   */\n    tag_521:\n        /* \"#utility.yul\":19900:19907   */\n      0x00\n        /* \"#utility.yul\":19940:19982   */\n      0xffffffffffffffffffffffffffffffffffffffff\n        /* \"#utility.yul\":19933:19938   */\n      dup3\n        /* \"#utility.yul\":19929:19983   */\n      and\n        /* \"#utility.yul\":19918:19983   */\n      swap1\n      pop\n        /* \"#utility.yul\":19863:19989   */\n      swap2\n      swap1\n      pop\n      jump\t// out\n        /* \"#utility.yul\":19995:20072   */\n    tag_455:\n        /* \"#utility.yul\":20032:20039   */\n      0x00\n        /* \"#utility.yul\":20061:20066   */\n      dup2\n        /* \"#utility.yul\":20050:20066   */\n      swap1\n      pop\n        /* \"#utility.yul\":19995:20072   */\n      swap2\n      swap1\n      pop\n      jump\t// out\n        /* \"#utility.yul\":20078:20232   */\n    tag_282:\n        /* \"#utility.yul\":20162:20168   */\n      dup3\n        /* \"#utility.yul\":20157:20160   */\n      dup2\n        /* \"#utility.yul\":20152:20155   */\n      dup4\n        /* \"#utility.yul\":20139:20169   */\n      calldatacopy\n        /* \"#utility.yul\":20224:20225   */\n      0x00\n        /* \"#utility.yul\":20215:20221   */\n      dup4\n        /* \"#utility.yul\":20210:20213   */\n      dup4\n        /* \"#utility.yul\":20206:20222   */\n      add\n        /* \"#utility.yul\":20199:20226   */\n      mstore\n        /* \"#utility.yul\":20078:20232   */\n      pop\n      pop\n      pop\n      jump\t// out\n        /* \"#utility.yul\":20238:20545   */\n    tag_398:\n        /* \"#utility.yul\":20306:20307   */\n      0x00\n        /* \"#utility.yul\":20316:20429   */\n    tag_529:\n        /* \"#utility.yul\":20330:20336   */\n      dup4\n        /* \"#utility.yul\":20327:20328   */\n      dup2\n        /* \"#utility.yul\":20324:20337   */\n      lt\n        /* \"#utility.yul\":20316:20429   */\n      iszero\n      tag_531\n      jumpi\n        /* \"#utility.yul\":20415:20416   */\n      dup1\n        /* \"#utility.yul\":20410:20413   */\n      dup3\n        /* \"#utility.yul\":20406:20417   */\n      add\n        /* \"#utility.yul\":20400:20418   */\n      mload\n        /* \"#utility.yul\":20396:20397   */\n      dup2\n        /* \"#utility.yul\":20391:20394   */\n      dup5\n        /* \"#utility.yul\":20387:20398   */\n      add\n        /* \"#utility.yul\":20380:20419   */\n      mstore\n        /* \"#utility.yul\":20352:20354   */\n      0x20\n        /* \"#utility.yul\":20349:20350   */\n      dup2\n        /* \"#utility.yul\":20345:20355   */\n      add\n        /* \"#utility.yul\":20340:20355   */\n      swap1\n      pop\n        /* \"#utility.yul\":20316:20429   */\n      jump(tag_529)\n    tag_531:\n        /* \"#utility.yul\":20447:20453   */\n      dup4\n        /* \"#utility.yul\":20444:20445   */\n      dup2\n        /* \"#utility.yul\":20441:20454   */\n      gt\n        /* \"#utility.yul\":20438:20539   */\n      iszero\n      tag_532\n      jumpi\n        /* \"#utility.yul\":20527:20528   */\n      0x00\n        /* \"#utility.yul\":20518:20524   */\n      dup5\n        /* \"#utility.yul\":20513:20516   */\n      dup5\n        /* \"#utility.yul\":20509:20525   */\n      add\n        /* \"#utility.yul\":20502:20529   */\n      mstore\n        /* \"#utility.yul\":20438:20539   */\n    tag_532:\n        /* \"#utility.yul\":20287:20545   */\n      pop\n        /* \"#utility.yul\":20238:20545   */\n      pop\n      pop\n      pop\n      jump\t// out\n        /* \"#utility.yul\":20551:20871   */\n    tag_91:\n        /* \"#utility.yul\":20595:20601   */\n      0x00\n        /* \"#utility.yul\":20632:20633   */\n      0x02\n        /* \"#utility.yul\":20626:20630   */\n      dup3\n        /* \"#utility.yul\":20622:20634   */\n      div\n        /* \"#utility.yul\":20612:20634   */\n      swap1\n      pop\n        /* \"#utility.yul\":20679:20680   */\n      0x01\n        /* \"#utility.yul\":20673:20677   */\n      dup3\n        /* \"#utility.yul\":20669:20681   */\n      and\n        /* \"#utility.yul\":20700:20718   */\n      dup1\n        /* \"#utility.yul\":20690:20771   */\n      tag_534\n      jumpi\n        /* \"#utility.yul\":20756:20760   */\n      0x7f\n        /* \"#utility.yul\":20748:20754   */\n      dup3\n        /* \"#utility.yul\":20744:20761   */\n      and\n        /* \"#utility.yul\":20734:20761   */\n      swap2\n      pop\n        /* \"#utility.yul\":20690:20771   */\n    tag_534:\n        /* \"#utility.yul\":20818:20820   */\n      0x20\n        /* \"#utility.yul\":20810:20816   */\n      dup3\n        /* \"#utility.yul\":20807:20821   */\n      lt\n        /* \"#utility.yul\":20787:20805   */\n      dup2\n        /* \"#utility.yul\":20784:20822   */\n      eq\n        /* \"#utility.yul\":20781:20865   */\n      iszero\n      tag_535\n      jumpi\n        /* \"#utility.yul\":20837:20855   */\n      tag_536\n      tag_537\n      jump\t// in\n    tag_536:\n        /* \"#utility.yul\":20781:20865   */\n    tag_535:\n        /* \"#utility.yul\":20602:20871   */\n      pop\n        /* \"#utility.yul\":20551:20871   */\n      swap2\n      swap1\n      pop\n      jump\t// out\n        /* \"#utility.yul\":20877:21158   */\n    tag_489:\n        /* \"#utility.yul\":20960:20987   */\n      tag_539\n        /* \"#utility.yul\":20982:20986   */\n      dup3\n        /* \"#utility.yul\":20960:20987   */\n      tag_400\n      jump\t// in\n    tag_539:\n        /* \"#utility.yul\":20952:20958   */\n      dup2\n        /* \"#utility.yul\":20948:20988   */\n      add\n        /* \"#utility.yul\":21090:21096   */\n      dup2\n        /* \"#utility.yul\":21078:21088   */\n      dup2\n        /* \"#utility.yul\":21075:21097   */\n      lt\n        /* \"#utility.yul\":21054:21072   */\n      0xffffffffffffffff\n        /* \"#utility.yul\":21042:21052   */\n      dup3\n        /* \"#utility.yul\":21039:21073   */\n      gt\n        /* \"#utility.yul\":21036:21098   */\n      or\n        /* \"#utility.yul\":21033:21121   */\n      iszero\n      tag_540\n      jumpi\n        /* \"#utility.yul\":21101:21119   */\n      tag_541\n      tag_243\n      jump\t// in\n    tag_541:\n        /* \"#utility.yul\":21033:21121   */\n    tag_540:\n        /* \"#utility.yul\":21141:21151   */\n      dup1\n        /* \"#utility.yul\":21137:21139   */\n      0x40\n        /* \"#utility.yul\":21130:21152   */\n      mstore\n        /* \"#utility.yul\":20920:21158   */\n      pop\n        /* \"#utility.yul\":20877:21158   */\n      pop\n      pop\n      jump\t// out\n        /* \"#utility.yul\":21164:21397   */\n    tag_238:\n        /* \"#utility.yul\":21203:21206   */\n      0x00\n        /* \"#utility.yul\":21226:21250   */\n      tag_543\n        /* \"#utility.yul\":21244:21249   */\n      dup3\n        /* \"#utility.yul\":21226:21250   */\n      tag_455\n      jump\t// in\n    tag_543:\n        /* \"#utility.yul\":21217:21250   */\n      swap2\n      pop\n        /* \"#utility.yul\":21272:21338   */\n      0xffffffffffffffffffffffffffffffffffffffffffffffffffffffffffffffff\n        /* \"#utility.yul\":21265:21270   */\n      dup3\n        /* \"#utility.yul\":21262:21339   */\n      eq\n        /* \"#utility.yul\":21259:21362   */\n      iszero\n      tag_544\n      jumpi\n        /* \"#utility.yul\":21342:21360   */\n      tag_545\n      tag_507\n      jump\t// in\n    tag_545:\n        /* \"#utility.yul\":21259:21362   */\n    tag_544:\n        /* \"#utility.yul\":21389:21390   */\n      0x01\n        /* \"#utility.yul\":21382:21387   */\n      dup3\n        /* \"#utility.yul\":21378:21391   */\n      add\n        /* \"#utility.yul\":21371:21391   */\n      swap1\n      pop\n        /* \"#utility.yul\":21164:21397   */\n      swap2\n      swap1\n      pop\n      jump\t// out\n        /* \"#utility.yul\":21403:21579   */\n    tag_250:\n        /* \"#utility.yul\":21435:21436   */\n      0x00\n        /* \"#utility.yul\":21452:21472   */\n      tag_547\n        /* \"#utility.yul\":21470:21471   */\n      dup3\n        /* \"#utility.yul\":21452:21472   */\n      tag_455\n      jump\t// in\n    tag_547:\n        /* \"#utility.yul\":21447:21472   */\n      swap2\n      pop\n        /* \"#utility.yul\":21486:21506   */\n      tag_548\n        /* \"#utility.yul\":21504:21505   */\n      dup4\n        /* \"#utility.yul\":21486:21506   */\n      tag_455\n      jump\t// in\n    tag_548:\n        /* \"#utility.yul\":21481:21506   */\n      swap3\n      pop\n        /* \"#utility.yul\":21525:21526   */\n      dup3\n        /* \"#utility.yul\":21515:21550   */\n      tag_549\n      jumpi\n        /* \"#utility.yul\":21530:21548   */\n      tag_550\n      tag_513\n      jump\t// in\n    tag_550:\n        /* \"#utility.yul\":21515:21550   */\n    tag_549:\n        /* \"#utility.yul\":21571:21572   */\n      dup3\n        /* \"#utility.yul\":21568:21569   */\n      dup3\n        /* \"#utility.yul\":21564:21573   */\n      mod\n        /* \"#utility.yul\":21559:21573   */\n      swap1\n      pop\n        /* \"#utility.yul\":21403:21579   */\n      swap3\n      swap2\n      pop\n      pop\n      jump\t// out\n        /* \"#utility.yul\":21585:21765   */\n    tag_507:\n        /* \"#utility.yul\":21633:21710   */\n      0x4e487b7100000000000000000000000000000000000000000000000000000000\n        /* \"#utility.yul\":21630:21631   */\n      0x00\n        /* \"#utility.yul\":21623:21711   */\n      mstore\n        /* \"#utility.yul\":21730:21734   */\n      0x11\n        /* \"#utility.yul\":21727:21728   */\n      0x04\n        /* \"#utility.yul\":21720:21735   */\n      mstore\n        /* \"#utility.yul\":21754:21758   */\n      0x24\n        /* \"#utility.yul\":21751:21752   */\n      0x00\n        /* \"#utility.yul\":21744:21759   */\n      revert\n        /* \"#utility.yul\":21771:21951   */\n    tag_513:\n        /* \"#utility.yul\":21819:21896   */\n      0x4e487b7100000000000000000000000000000000000000000000000000000000\n        /* \"#utility.yul\":21816:21817   */\n      0x00\n        /* \"#utility.yul\":21809:21897   */\n      mstore\n        /* \"#utility.yul\":21916:21920   */\n      0x12\n        /* \"#utility.yul\":21913:21914   */\n      0x04\n        /* \"#utility.yul\":21906:21921   */\n      mstore\n        /* \"#utility.yul\":21940:21944   */\n      0x24\n        /* \"#utility.yul\":21937:21938   */\n      0x00\n        /* \"#utility.yul\":21930:21945   */\n      revert\n        /* \"#utility.yul\":21957:22137   */\n    tag_537:\n        /* \"#utility.yul\":22005:22082   */\n      0x4e487b7100000000000000000000000000000000000000000000000000000000\n        /* \"#utility.yul\":22002:22003   */\n      0x00\n        /* \"#utility.yul\":21995:22083   */\n      mstore\n        /* \"#utility.yul\":22102:22106   */\n      0x22\n        /* \"#utility.yul\":22099:22100   */\n      0x04\n        /* \"#utility.yul\":22092:22107   */\n      mstore\n        /* \"#utility.yul\":22126:22130   */\n      0x24\n        /* \"#utility.yul\":22123:22124   */\n      0x00\n        /* \"#utility.yul\":22116:22131   */\n      revert\n        /* \"#utility.yul\":22143:22323   */\n    tag_254:\n        /* \"#utility.yul\":22191:22268   */\n      0x4e487b7100000000000000000000000000000000000000000000000000000000\n        /* \"#utility.yul\":22188:22189   */\n      0x00\n        /* \"#utility.yul\":22181:22269   */\n      mstore\n        /* \"#utility.yul\":22288:22292   */\n      0x32\n        /* \"#utility.yul\":22285:22286   */\n      0x04\n        /* \"#utility.yul\":22278:22293   */\n      mstore\n        /* \"#utility.yul\":22312:22316   */\n      0x24\n        /* \"#utility.yul\":22309:22310   */\n      0x00\n        /* \"#utility.yul\":22302:22317   */\n      revert\n        /* \"#utility.yul\":22329:22509   */\n    tag_243:\n        /* \"#utility.yul\":22377:22454   */\n      0x4e487b7100000000000000000000000000000000000000000000000000000000\n        /* \"#utility.yul\":22374:22375   */\n      0x00\n        /* \"#utility.yul\":22367:22455   */\n      mstore\n        /* \"#utility.yul\":22474:22478   */\n      0x41\n        /* \"#utility.yul\":22471:22472   */\n      0x04\n        /* \"#utility.yul\":22464:22479   */\n      mstore\n        /* \"#utility.yul\":22498:22502   */\n      0x24\n        /* \"#utility.yul\":22495:22496   */\n      0x00\n        /* \"#utility.yul\":22488:22503   */\n      revert\n        /* \"#utility.yul\":22515:22632   */\n    tag_310:\n        /* \"#utility.yul\":22624:22625   */\n      0x00\n        /* \"#utility.yul\":22621:22622   */\n      dup1\n        /* \"#utility.yul\":22614:22626   */\n      revert\n        /* \"#utility.yul\":22638:22755   */\n    tag_280:\n        /* \"#utility.yul\":22747:22748   */\n      0x00\n        /* \"#utility.yul\":22744:22745   */\n      dup1\n        /* \"#utility.yul\":22737:22749   */\n      revert\n        /* \"#utility.yul\":22761:22878   */\n    tag_352:\n        /* \"#utility.yul\":22870:22871   */\n      0x00\n        /* \"#utility.yul\":22867:22868   */\n      dup1\n        /* \"#utility.yul\":22860:22872   */\n      revert\n        /* \"#utility.yul\":22884:23001   */\n    tag_327:\n        /* \"#utility.yul\":22993:22994   */\n      0x00\n        /* \"#utility.yul\":22990:22991   */\n      dup1\n        /* \"#utility.yul\":22983:22995   */\n      revert\n        /* \"#utility.yul\":23007:23109   */\n    tag_400:\n        /* \"#utility.yul\":23048:23054   */\n      0x00\n        /* \"#utility.yul\":23099:23101   */\n      0x1f\n        /* \"#utility.yul\":23095:23102   */\n      not\n        /* \"#utility.yul\":23090:23092   */\n      0x1f\n        /* \"#utility.yul\":23083:23088   */\n      dup4\n        /* \"#utility.yul\":23079:23093   */\n      add\n        /* \"#utility.yul\":23075:23103   */\n      and\n        /* \"#utility.yul\":23065:23103   */\n      swap1\n      pop\n        /* \"#utility.yul\":23007:23109   */\n      swap2\n      swap1\n      pop\n      jump\t// out\n        /* \"#utility.yul\":23115:23339   */\n    tag_411:\n        /* \"#utility.yul\":23255:23289   */\n      0x4552433732313a207472616e736665722066726f6d20696e636f727265637420\n        /* \"#utility.yul\":23251:23252   */\n      0x00\n        /* \"#utility.yul\":23243:23249   */\n      dup3\n        /* \"#utility.yul\":23239:23253   */\n      add\n        /* \"#utility.yul\":23232:23290   */\n      mstore\n        /* \"#utility.yul\":23324:23331   */\n      0x6f776e6572000000000000000000000000000000000000000000000000000000\n        /* \"#utility.yul\":23319:23321   */\n      0x20\n        /* \"#utility.yul\":23311:23317   */\n      dup3\n        /* \"#utility.yul\":23307:23322   */\n      add\n        /* \"#utility.yul\":23300:23332   */\n      mstore\n        /* \"#utility.yul\":23115:23339   */\n      pop\n      jump\t// out\n        /* \"#utility.yul\":23345:23523   */\n    tag_416:\n        /* \"#utility.yul\":23485:23515   */\n      0x4552433732313a20746f6b656e20616c7265616479206d696e74656400000000\n        /* \"#utility.yul\":23481:23482   */\n      0x00\n        /* \"#utility.yul\":23473:23479   */\n      dup3\n        /* \"#utility.yul\":23469:23483   */\n      add\n        /* \"#utility.yul\":23462:23516   */\n      mstore\n        /* \"#utility.yul\":23345:23523   */\n      pop\n      jump\t// out\n        /* \"#utility.yul\":23529:23752   */\n    tag_421:\n        /* \"#utility.yul\":23669:23703   */\n      0x4552433732313a207472616e7366657220746f20746865207a65726f20616464\n        /* \"#utility.yul\":23665:23666   */\n      0x00\n        /* \"#utility.yul\":23657:23663   */\n      dup3\n        /* \"#utility.yul\":23653:23667   */\n      add\n        /* \"#utility.yul\":23646:23704   */\n      mstore\n        /* \"#utility.yul\":23738:23744   */\n      0x7265737300000000000000000000000000000000000000000000000000000000\n        /* \"#utility.yul\":23733:23735   */\n      0x20\n        /* \"#utility.yul\":23725:23731   */\n      dup3\n        /* \"#utility.yul\":23721:23736   */\n      add\n        /* \"#utility.yul\":23714:23745   */\n      mstore\n        /* \"#utility.yul\":23529:23752   */\n      pop\n      jump\t// out\n        /* \"#utility.yul\":23758:23933   */\n    tag_426:\n        /* \"#utility.yul\":23898:23925   */\n      0x4552433732313a20617070726f766520746f2063616c6c657200000000000000\n        /* \"#utility.yul\":23894:23895   */\n      0x00\n        /* \"#utility.yul\":23886:23892   */\n      dup3\n        /* \"#utility.yul\":23882:23896   */\n      add\n        /* \"#utility.yul\":23875:23926   */\n      mstore\n        /* \"#utility.yul\":23758:23933   */\n      pop\n      jump\t// out\n        /* \"#utility.yul\":23939:24167   */\n    tag_431:\n        /* \"#utility.yul\":24079:24113   */\n      0x4552433732313a2061646472657373207a65726f206973206e6f742061207661\n        /* \"#utility.yul\":24075:24076   */\n      0x00\n        /* \"#utility.yul\":24067:24073   */\n      dup3\n        /* \"#utility.yul\":24063:24077   */\n      add\n        /* \"#utility.yul\":24056:24114   */\n      mstore\n        /* \"#utility.yul\":24148:24159   */\n      0x6c6964206f776e65720000000000000000000000000000000000000000000000\n        /* \"#utility.yul\":24143:24145   */\n      0x20\n        /* \"#utility.yul\":24135:24141   */\n      dup3\n        /* \"#utility.yul\":24131:24146   */\n      add\n        /* \"#utility.yul\":24124:24160   */\n      mstore\n        /* \"#utility.yul\":23939:24167   */\n      pop\n      jump\t// out\n        /* \"#utility.yul\":24173:24422   */\n    tag_436:\n        /* \"#utility.yul\":24313:24347   */\n      0x4552433732313a20617070726f76652063616c6c6572206973206e6f7420746f\n        /* \"#utility.yul\":24309:24310   */\n      0x00\n        /* \"#utility.yul\":24301:24307   */\n      dup3\n        /* \"#utility.yul\":24297:24311   */\n      add\n        /* \"#utility.yul\":24290:24348   */\n      mstore\n        /* \"#utility.yul\":24382:24414   */\n      0x6b656e206f776e6572206e6f7220617070726f76656420666f7220616c6c0000\n        /* \"#utility.yul\":24377:24379   */\n      0x20\n        /* \"#utility.yul\":24369:24375   */\n      dup3\n        /* \"#utility.yul\":24365:24380   */\n      add\n        /* \"#utility.yul\":24358:24415   */\n      mstore\n        /* \"#utility.yul\":24173:24422   */\n      pop\n      jump\t// out\n        /* \"#utility.yul\":24428:24602   */\n    tag_441:\n        /* \"#utility.yul\":24568:24594   */\n      0x4552433732313a20696e76616c696420746f6b656e2049440000000000000000\n        /* \"#utility.yul\":24564:24565   */\n      0x00\n        /* \"#utility.yul\":24556:24562   */\n      dup3\n        /* \"#utility.yul\":24552:24566   */\n      add\n        /* \"#utility.yul\":24545:24595   */\n      mstore\n        /* \"#utility.yul\":24428:24602   */\n      pop\n      jump\t// out\n        /* \"#utility.yul\":24608:24828   */\n    tag_446:\n        /* \"#utility.yul\":24748:24782   */\n      0x4552433732313a20617070726f76616c20746f2063757272656e74206f776e65\n        /* \"#utility.yul\":24744:24745   */\n      0x00\n        /* \"#utility.yul\":24736:24742   */\n      dup3\n        /* \"#utility.yul\":24732:24746   */\n      add\n        /* \"#utility.yul\":24725:24783   */\n      mstore\n        /* \"#utility.yul\":24817:24820   */\n      0x7200000000000000000000000000000000000000000000000000000000000000\n        /* \"#utility.yul\":24812:24814   */\n      0x20\n        /* \"#utility.yul\":24804:24810   */\n      dup3\n        /* \"#utility.yul\":24800:24815   */\n      add\n        /* \"#utility.yul\":24793:24821   */\n      mstore\n        /* \"#utility.yul\":24608:24828   */\n      pop\n      jump\t// out\n        /* \"#utility.yul\":24834:25067   */\n    tag_451:\n        /* \"#utility.yul\":24974:25008   */\n      0x4552433732313a2063616c6c6572206973206e6f7420746f6b656e206f776e65\n        /* \"#utility.yul\":24970:24971   */\n      0x00\n        /* \"#utility.yul\":24962:24968   */\n      dup3\n        /* \"#utility.yul\":24958:24972   */\n      add\n        /* \"#utility.yul\":24951:25009   */\n      mstore\n        /* \"#utility.yul\":25043:25059   */\n      0x72206e6f7220617070726f766564000000000000000000000000000000000000\n        /* \"#utility.yul\":25038:25040   */\n      0x20\n        /* \"#utility.yul\":25030:25036   */\n      dup3\n        /* \"#utility.yul\":25026:25041   */\n      add\n        /* \"#utility.yul\":25019:25060   */\n      mstore\n        /* \"#utility.yul\":24834:25067   */\n      pop\n      jump\t// out\n        /* \"#utility.yul\":25073:25195   */\n    tag_294:\n        /* \"#utility.yul\":25146:25170   */\n      tag_571\n        /* \"#utility.yul\":25164:25169   */\n      dup2\n        /* \"#utility.yul\":25146:25170   */\n      tag_386\n      jump\t// in\n    tag_571:\n        /* \"#utility.yul\":25139:25144   */\n      dup2\n        /* \"#utility.yul\":25136:25171   */\n      eq\n        /* \"#utility.yul\":25126:25189   */\n      tag_572\n      jumpi\n        /* \"#utility.yul\":25185:25186   */\n      0x00\n        /* \"#utility.yul\":25182:25183   */\n      dup1\n        /* \"#utility.yul\":25175:25187   */\n      revert\n        /* \"#utility.yul\":25126:25189   */\n    tag_572:\n        /* \"#utility.yul\":25073:25195   */\n      pop\n      jump\t// out\n        /* \"#utility.yul\":25201:25317   */\n    tag_301:\n        /* \"#utility.yul\":25271:25292   */\n      tag_574\n        /* \"#utility.yul\":25286:25291   */\n      dup2\n        /* \"#utility.yul\":25271:25292   */\n      tag_390\n      jump\t// in\n    tag_574:\n        /* \"#utility.yul\":25264:25269   */\n      dup2\n        /* \"#utility.yul\":25261:25293   */\n      eq\n        /* \"#utility.yul\":25251:25311   */\n      tag_575\n      jumpi\n        /* \"#utility.yul\":25307:25308   */\n      0x00\n        /* \"#utility.yul\":25304:25305   */\n      dup1\n        /* \"#utility.yul\":25297:25309   */\n      revert\n        /* \"#utility.yul\":25251:25311   */\n    tag_575:\n        /* \"#utility.yul\":25201:25317   */\n      pop\n      jump\t// out\n        /* \"#utility.yul\":25323:25443   */\n    tag_305:\n        /* \"#utility.yul\":25395:25418   */\n      tag_577\n        /* \"#utility.yul\":25412:25417   */\n      dup2\n        /* \"#utility.yul\":25395:25418   */\n      tag_523\n      jump\t// in\n    tag_577:\n        /* \"#utility.yul\":25388:25393   */\n      dup2\n        /* \"#utility.yul\":25385:25419   */\n      eq\n        /* \"#utility.yul\":25375:25437   */\n      tag_578\n      jumpi\n        /* \"#utility.yul\":25433:25434   */\n      0x00\n        /* \"#utility.yul\":25430:25431   */\n      dup1\n        /* \"#utility.yul\":25423:25435   */\n      revert\n        /* \"#utility.yul\":25375:25437   */\n    tag_578:\n        /* \"#utility.yul\":25323:25443   */\n      pop\n      jump\t// out\n        /* \"#utility.yul\":25449:25571   */\n    tag_320:\n        /* \"#utility.yul\":25522:25546   */\n      tag_580\n        /* \"#utility.yul\":25540:25545   */\n      dup2\n        /* \"#utility.yul\":25522:25546   */\n      tag_455\n      jump\t// in\n    tag_580:\n        /* \"#utility.yul\":25515:25520   */\n      dup2\n        /* \"#utility.yul\":25512:25547   */\n      eq\n        /* \"#utility.yul\":25502:25565   */\n      tag_581\n      jumpi\n        /* \"#utility.yul\":25561:25562   */\n      0x00\n        /* \"#utility.yul\":25558:25559   */\n      dup1\n        /* \"#utility.yul\":25551:25563   */\n      revert\n        /* \"#utility.yul\":25502:25565   */\n    tag_581:\n        /* \"#utility.yul\":25449:25571   */\n      pop\n      jump\t// out\n\n    auxdata: 0xa264697066735822122087f623c24ece994a84db8db4cf354b3f68c7e131c463a67ff4a447b2dae9d70864736f6c63430008070033\n}\n",
				"bytecode": {
					"linkReferences": {},
					"object": "608060405260016004553480156200001657600080fd5b50604051620025bc380380620025bc83398181016040528101906200003c919062000203565b828282826000908051906020019062000057929190620000be565b50816001908051906020019062000070929190620000be565b5080600260006101000a81548173ffffffffffffffffffffffffffffffffffffffff021916908373ffffffffffffffffffffffffffffffffffffffff1602179055505050505050506200046f565b828054620000cc9062000366565b90600052602060002090601f016020900481019282620000f057600085556200013c565b82601f106200010b57805160ff19168380011785556200013c565b828001600101855582156200013c579182015b828111156200013b5782518255916020019190600101906200011e565b5b5090506200014b91906200014f565b5090565b5b808211156200016a57600081600090555060010162000150565b5090565b6000620001856200017f84620002c6565b6200029d565b905082815260208101848484011115620001a457620001a362000435565b5b620001b184828562000330565b509392505050565b600081519050620001ca8162000455565b92915050565b600082601f830112620001e857620001e762000430565b5b8151620001fa8482602086016200016e565b91505092915050565b6000806000606084860312156200021f576200021e6200043f565b5b600084015167ffffffffffffffff81111562000240576200023f6200043a565b5b6200024e86828701620001d0565b935050602084015167ffffffffffffffff8111156200027257620002716200043a565b5b6200028086828701620001d0565b92505060406200029386828701620001b9565b9150509250925092565b6000620002a9620002bc565b9050620002b782826200039c565b919050565b6000604051905090565b600067ffffffffffffffff821115620002e457620002e362000401565b5b620002ef8262000444565b9050602081019050919050565b6000620003098262000310565b9050919050565b600073ffffffffffffffffffffffffffffffffffffffff82169050919050565b60005b838110156200035057808201518184015260208101905062000333565b8381111562000360576000848401525b50505050565b600060028204905060018216806200037f57607f821691505b60208210811415620003965762000395620003d2565b5b50919050565b620003a78262000444565b810181811067ffffffffffffffff82111715620003c957620003c862000401565b5b80604052505050565b7f4e487b7100000000000000000000000000000000000000000000000000000000600052602260045260246000fd5b7f4e487b7100000000000000000000000000000000000000000000000000000000600052604160045260246000fd5b600080fd5b600080fd5b600080fd5b600080fd5b6000601f19601f8301169050919050565b6200046081620002fc565b81146200046c57600080fd5b50565b61213d806200047f6000396000f3fe608060405234801561001057600080fd5b50600436106100f55760003560e01c806342842e0e11610097578063a22cb46511610066578063a22cb46514610270578063b88d4fde1461028c578063c87b56dd146102a8578063e985e9c5146102d8576100f5565b806342842e0e146101d65780636352211e146101f257806370a082311461022257806395d89b4114610252576100f5565b8063095ea7b3116100d3578063095ea7b3146101785780631249c58b14610194578063162094c41461019e57806323b872dd146101ba576100f5565b806301ffc9a7146100fa57806306fdde031461012a578063081812fc14610148575b600080fd5b610114600480360381019061010f91906115de565b610308565b60405161012191906118d2565b60405180910390f35b6101326103ea565b60405161013f91906118ed565b60405180910390f35b610162600480360381019061015d919061160b565b61047c565b60405161016f91906118b7565b60405180910390f35b610192600480360381019061018d919061159e565b610483565b005b61019c61059b565b005b6101b860048036038101906101b39190611665565b6105c3565b005b6101d460048036038101906101cf9190611488565b610611565b005b6101f060048036038101906101eb9190611488565b610671565b005b61020c6004803603810190610207919061160b565b610691565b60405161021991906118b7565b60405180910390f35b61023c600480360381019061023791906113ee565b6107ba565b6040516102499190611a2f565b60405180910390f35b61025a6108dd565b60405161026791906118ed565b60405180910390f35b61028a6004803603810190610285919061155e565b61096f565b005b6102a660048036038101906102a191906114db565b610985565b005b6102c260048036038101906102bd919061160b565b6109e7565b6040516102cf91906118ed565b60405180910390f35b6102f260048036038101906102ed9190611448565b610a4f565b6040516102ff91906118d2565b60405180910390f35b60007f80ac58cd000000000000000000000000000000000000000000000000000000007bffffffffffffffffffffffffffffffffffffffffffffffffffffffff1916827bffffffffffffffffffffffffffffffffffffffffffffffffffffffff191614806103d357507f5b5e139f000000000000000000000000000000000000000000000000000000007bffffffffffffffffffffffffffffffffffffffffffffffffffffffff1916827bffffffffffffffffffffffffffffffffffffffffffffffffffffffff1916145b806103e357506103e282610a57565b5b9050919050565b6060600080546103f990611c69565b80601f016020809104026020016040519081016040528092919081815260200182805461042590611c69565b80156104725780601f1061044757610100808354040283529160200191610472565b820191906000526020600020905b81548152906001019060200180831161045557829003601f168201915b5050505050905090565b6000919050565b600061048e82610691565b90508073ffffffffffffffffffffffffffffffffffffffff168373ffffffffffffffffffffffffffffffffffffffff1614156104ff576040517f08c379a00000000000000000000000000000000000000000000000000000000081526004016104f6906119ef565b60405180910390fd5b8073ffffffffffffffffffffffffffffffffffffffff1661051e610ac1565b73ffffffffffffffffffffffffffffffffffffffff16148061054d575061054c81610547610ac1565b610a4f565b5b61058c576040517f08c379a0000000000000000000000000000000000000000000000000000000008152600401610583906119af565b60405180910390fd5b6105968383610ac9565b505050565b6000600454905060016004546105b19190611af8565b6004819055506105c081610b30565b50565b6105cc82610691565b73ffffffffffffffffffffffffffffffffffffffff163373ffffffffffffffffffffffffffffffffffffffff161461060357600080fd5b61060d8282610c82565b5050565b61062261061c610ac1565b82610cc0565b610661576040517f08c379a000000000000000000000000000000000000000000000000000000000815260040161065890611a0f565b60405180910390fd5b61066c838383610d55565b505050565b61068c83838360405180602001604052806000815250610985565b505050565b600080600260009054906101000a900473ffffffffffffffffffffffffffffffffffffffff1673ffffffffffffffffffffffffffffffffffffffff16636352211e846040518263ffffffff1660e01b81526004016106ef9190611a2f565b60206040518083038186803b15801561070757600080fd5b505afa15801561071b573d6000803e3d6000fd5b505050506040513d601f19601f8201168201806040525081019061073f919061141b565b9050600073ffffffffffffffffffffffffffffffffffffffff168173ffffffffffffffffffffffffffffffffffffffff1614156107b1576040517f08c379a00000000000000000000000000000000000000000000000000000000081526004016107a8906119cf565b60405180910390fd5b80915050919050565b60008073ffffffffffffffffffffffffffffffffffffffff168273ffffffffffffffffffffffffffffffffffffffff16141561082b576040517f08c379a00000000000000000000000000000000000000000000000000000000081526004016108229061198f565b60405180910390fd5b600260009054906101000a900473ffffffffffffffffffffffffffffffffffffffff1673ffffffffffffffffffffffffffffffffffffffff166370a08231836040518263ffffffff1660e01b815260040161088691906118b7565b60206040518083038186803b15801561089e57600080fd5b505afa1580156108b2573d6000803e3d6000fd5b505050506040513d601f19601f820116820180604052508101906108d69190611638565b9050919050565b6060600180546108ec90611c69565b80601f016020809104026020016040519081016040528092919081815260200182805461091890611c69565b80156109655780601f1061093a57610100808354040283529160200191610965565b820191906000526020600020905b81548152906001019060200180831161094857829003601f168201915b5050505050905090565b61098161097a610ac1565b8383610ebc565b5050565b610996610990610ac1565b83610cc0565b6109d5576040517f08c379a00000000000000000000000000000000000000000000000000000000081526004016109cc90611a0f565b60405180910390fd5b6109e184848484610f95565b50505050565b60606109f282610fa6565b60006109fc610ff1565b90506000815111610a1c5760405180602001604052806000815250610a47565b80610a2684611008565b604051602001610a37929190611893565b6040516020818303038152906040525b915050919050565b600092915050565b60007f01ffc9a7000000000000000000000000000000000000000000000000000000007bffffffffffffffffffffffffffffffffffffffffffffffffffffffff1916827bffffffffffffffffffffffffffffffffffffffffffffffffffffffff1916149050919050565b600033905090565b808273ffffffffffffffffffffffffffffffffffffffff16610aea83610691565b73ffffffffffffffffffffffffffffffffffffffff167f8c5be1e5ebec7d5bd14f71427d1e84f3dd0314c0f7b2291e5b200ac8c7c3b92560405160405180910390a45050565b610b3981611169565b15610b79576040517f08c379a0000000000000000000000000000000000000000000000000000000008152600401610b709061192f565b60405180910390fd5b80600260009054906101000a900473ffffffffffffffffffffffffffffffffffffffff1673ffffffffffffffffffffffffffffffffffffffff16636352211e836040518263ffffffff1660e01b8152600401610bd59190611a2f565b60206040518083038186803b158015610bed57600080fd5b505afa158015610c01573d6000803e3d6000fd5b505050506040513d601f19601f82011682018060405250810190610c25919061141b565b73ffffffffffffffffffffffffffffffffffffffff16600073ffffffffffffffffffffffffffffffffffffffff167fddf252ad1be2c89b69c2b068fc378daa952ba7f163c4a11628f55a4df523b3ef60405160405180910390a450565b610c8b82611169565b610c9457600080fd5b80600360008481526020019081526020016000209080519060200190610cbb9291906111ed565b505050565b600080610ccc83610691565b90508073ffffffffffffffffffffffffffffffffffffffff168473ffffffffffffffffffffffffffffffffffffffff161480610d0e5750610d0d8185610a4f565b5b80610d4c57508373ffffffffffffffffffffffffffffffffffffffff16610d348461047c565b73ffffffffffffffffffffffffffffffffffffffff16145b91505092915050565b8273ffffffffffffffffffffffffffffffffffffffff16610d7582610691565b73ffffffffffffffffffffffffffffffffffffffff1614610dcb576040517f08c379a0000000000000000000000000000000000000000000000000000000008152600401610dc29061190f565b60405180910390fd5b600073ffffffffffffffffffffffffffffffffffffffff168273ffffffffffffffffffffffffffffffffffffffff161415610e3b576040517f08c379a0000000000000000000000000000000000000000000000000000000008152600401610e329061194f565b60405180910390fd5b610e468383836111aa565b610e51600082610ac9565b808273ffffffffffffffffffffffffffffffffffffffff168473ffffffffffffffffffffffffffffffffffffffff167fddf252ad1be2c89b69c2b068fc378daa952ba7f163c4a11628f55a4df523b3ef60405160405180910390a4610eb78383836111e8565b505050565b8173ffffffffffffffffffffffffffffffffffffffff168373ffffffffffffffffffffffffffffffffffffffff161415610f2b576040517f08c379a0000000000000000000000000000000000000000000000000000000008152600401610f229061196f565b60405180910390fd5b8173ffffffffffffffffffffffffffffffffffffffff168373ffffffffffffffffffffffffffffffffffffffff167f17307eab39ab6107e8899845ad3d59bd9653f200f220920489ca2b5937696c3183604051610f8891906118d2565b60405180910390a3505050565b610fa0848484610d55565b50505050565b610faf81611169565b610fee576040517f08c379a0000000000000000000000000000000000000000000000000000000008152600401610fe5906119cf565b60405180910390fd5b50565b606060405180602001604052806000815250905090565b60606000821415611050576040518060400160405280600181526020017f30000000000000000000000000000000000000000000000000000000000000008152509050611164565b600082905060005b6000821461108257808061106b90611ccc565b915050600a8261107b9190611b4e565b9150611058565b60008167ffffffffffffffff81111561109e5761109d611e02565b5b6040519080825280601f01601f1916602001820160405280156110d05781602001600182028036833780820191505090505b5090505b6000851461115d576001826110e99190611b7f565b9150600a856110f89190611d15565b60306111049190611af8565b60f81b81838151811061111a57611119611dd3565b5b60200101907effffffffffffffffffffffffffffffffffffffffffffffffffffffffffffff1916908160001a905350600a856111569190611b4e565b94506110d4565b8093505050505b919050565b60008073ffffffffffffffffffffffffffffffffffffffff1661118b83610691565b73ffffffffffffffffffffffffffffffffffffffff1614159050919050565b600073ffffffffffffffffffffffffffffffffffffffff168373ffffffffffffffffffffffffffffffffffffffff16146111e357600080fd5b505050565b505050565b8280546111f990611c69565b90600052602060002090601f01602090048101928261121b5760008555611262565b82601f1061123457805160ff1916838001178555611262565b82800160010185558215611262579182015b82811115611261578251825591602001919060010190611246565b5b50905061126f9190611273565b5090565b5b8082111561128c576000816000905550600101611274565b5090565b60006112a361129e84611a6f565b611a4a565b9050828152602081018484840111156112bf576112be611e36565b5b6112ca848285611c27565b509392505050565b60006112e56112e084611aa0565b611a4a565b90508281526020810184848401111561130157611300611e36565b5b61130c848285611c27565b509392505050565b600081359050611323816120ab565b92915050565b600081519050611338816120ab565b92915050565b60008135905061134d816120c2565b92915050565b600081359050611362816120d9565b92915050565b600082601f83011261137d5761137c611e31565b5b813561138d848260208601611290565b91505092915050565b600082601f8301126113ab576113aa611e31565b5b81356113bb8482602086016112d2565b91505092915050565b6000813590506113d3816120f0565b92915050565b6000815190506113e8816120f0565b92915050565b60006020828403121561140457611403611e40565b5b600061141284828501611314565b91505092915050565b60006020828403121561143157611430611e40565b5b600061143f84828501611329565b91505092915050565b6000806040838503121561145f5761145e611e40565b5b600061146d85828601611314565b925050602061147e85828601611314565b9150509250929050565b6000806000606084860312156114a1576114a0611e40565b5b60006114af86828701611314565b93505060206114c086828701611314565b92505060406114d1868287016113c4565b9150509250925092565b600080600080608085870312156114f5576114f4611e40565b5b600061150387828801611314565b945050602061151487828801611314565b9350506040611525878288016113c4565b925050606085013567ffffffffffffffff81111561154657611545611e3b565b5b61155287828801611368565b91505092959194509250565b6000806040838503121561157557611574611e40565b5b600061158385828601611314565b92505060206115948582860161133e565b9150509250929050565b600080604083850312156115b5576115b4611e40565b5b60006115c385828601611314565b92505060206115d4858286016113c4565b9150509250929050565b6000602082840312156115f4576115f3611e40565b5b600061160284828501611353565b91505092915050565b60006020828403121561162157611620611e40565b5b600061162f848285016113c4565b91505092915050565b60006020828403121561164e5761164d611e40565b5b600061165c848285016113d9565b91505092915050565b6000806040838503121561167c5761167b611e40565b5b600061168a858286016113c4565b925050602083013567ffffffffffffffff8111156116ab576116aa611e3b565b5b6116b785828601611396565b9150509250929050565b6116ca81611bb3565b82525050565b6116d981611bc5565b82525050565b60006116ea82611ad1565b6116f48185611adc565b9350611704818560208601611c36565b61170d81611e45565b840191505092915050565b600061172382611ad1565b61172d8185611aed565b935061173d818560208601611c36565b80840191505092915050565b6000611756602583611adc565b915061176182611e56565b604082019050919050565b6000611779601c83611adc565b915061178482611ea5565b602082019050919050565b600061179c602483611adc565b91506117a782611ece565b604082019050919050565b60006117bf601983611adc565b91506117ca82611f1d565b602082019050919050565b60006117e2602983611adc565b91506117ed82611f46565b604082019050919050565b6000611805603e83611adc565b915061181082611f95565b604082019050919050565b6000611828601883611adc565b915061183382611fe4565b602082019050919050565b600061184b602183611adc565b91506118568261200d565b604082019050919050565b600061186e602e83611adc565b91506118798261205c565b604082019050919050565b61188d81611c1d565b82525050565b600061189f8285611718565b91506118ab8284611718565b91508190509392505050565b60006020820190506118cc60008301846116c1565b92915050565b60006020820190506118e760008301846116d0565b92915050565b6000602082019050818103600083015261190781846116df565b905092915050565b6000602082019050818103600083015261192881611749565b9050919050565b600060208201905081810360008301526119488161176c565b9050919050565b600060208201905081810360008301526119688161178f565b9050919050565b60006020820190508181036000830152611988816117b2565b9050919050565b600060208201905081810360008301526119a8816117d5565b9050919050565b600060208201905081810360008301526119c8816117f8565b9050919050565b600060208201905081810360008301526119e88161181b565b9050919050565b60006020820190508181036000830152611a088161183e565b9050919050565b60006020820190508181036000830152611a2881611861565b9050919050565b6000602082019050611a446000830184611884565b92915050565b6000611a54611a65565b9050611a608282611c9b565b919050565b6000604051905090565b600067ffffffffffffffff821115611a8a57611a89611e02565b5b611a9382611e45565b9050602081019050919050565b600067ffffffffffffffff821115611abb57611aba611e02565b5b611ac482611e45565b9050602081019050919050565b600081519050919050565b600082825260208201905092915050565b600081905092915050565b6000611b0382611c1d565b9150611b0e83611c1d565b9250827fffffffffffffffffffffffffffffffffffffffffffffffffffffffffffffffff03821115611b4357611b42611d46565b5b828201905092915050565b6000611b5982611c1d565b9150611b6483611c1d565b925082611b7457611b73611d75565b5b828204905092915050565b6000611b8a82611c1d565b9150611b9583611c1d565b925082821015611ba857611ba7611d46565b5b828203905092915050565b6000611bbe82611bfd565b9050919050565b60008115159050919050565b60007fffffffff0000000000000000000000000000000000000000000000000000000082169050919050565b600073ffffffffffffffffffffffffffffffffffffffff82169050919050565b6000819050919050565b82818337600083830152505050565b60005b83811015611c54578082015181840152602081019050611c39565b83811115611c63576000848401525b50505050565b60006002820490506001821680611c8157607f821691505b60208210811415611c9557611c94611da4565b5b50919050565b611ca482611e45565b810181811067ffffffffffffffff82111715611cc357611cc2611e02565b5b80604052505050565b6000611cd782611c1d565b91507fffffffffffffffffffffffffffffffffffffffffffffffffffffffffffffffff821415611d0a57611d09611d46565b5b600182019050919050565b6000611d2082611c1d565b9150611d2b83611c1d565b925082611d3b57611d3a611d75565b5b828206905092915050565b7f4e487b7100000000000000000000000000000000000000000000000000000000600052601160045260246000fd5b7f4e487b7100000000000000000000000000000000000000000000000000000000600052601260045260246000fd5b7f4e487b7100000000000000000000000000000000000000000000000000000000600052602260045260246000fd5b7f4e487b7100000000000000000000000000000000000000000000000000000000600052603260045260246000fd5b7f4e487b7100000000000000000000000000000000000000000000000000000000600052604160045260246000fd5b600080fd5b600080fd5b600080fd5b600080fd5b6000601f19601f8301169050919050565b7f4552433732313a207472616e736665722066726f6d20696e636f72726563742060008201527f6f776e6572000000000000000000000000000000000000000000000000000000602082015250565b7f4552433732313a20746f6b656e20616c7265616479206d696e74656400000000600082015250565b7f4552433732313a207472616e7366657220746f20746865207a65726f2061646460008201527f7265737300000000000000000000000000000000000000000000000000000000602082015250565b7f4552433732313a20617070726f766520746f2063616c6c657200000000000000600082015250565b7f4552433732313a2061646472657373207a65726f206973206e6f74206120766160008201527f6c6964206f776e65720000000000000000000000000000000000000000000000602082015250565b7f4552433732313a20617070726f76652063616c6c6572206973206e6f7420746f60008201527f6b656e206f776e6572206e6f7220617070726f76656420666f7220616c6c0000602082015250565b7f4552433732313a20696e76616c696420746f6b656e2049440000000000000000600082015250565b7f4552433732313a20617070726f76616c20746f2063757272656e74206f776e6560008201527f7200000000000000000000000000000000000000000000000000000000000000602082015250565b7f4552433732313a2063616c6c6572206973206e6f7420746f6b656e206f776e6560008201527f72206e6f7220617070726f766564000000000000000000000000000000000000602082015250565b6120b481611bb3565b81146120bf57600080fd5b50565b6120cb81611bc5565b81146120d657600080fd5b50565b6120e281611bd1565b81146120ed57600080fd5b50565b6120f981611c1d565b811461210457600080fd5b5056fea264697066735822122087f623c24ece994a84db8db4cf354b3f68c7e131c463a67ff4a447b2dae9d70864736f6c63430008070033",
					"opcodes": "PUSH1 0x80 PUSH1 0x40 MSTORE PUSH1 0x1 PUSH1 0x4 SSTORE CALLVALUE DUP1 ISZERO PUSH3 0x16 JUMPI PUSH1 0x0 DUP1 REVERT JUMPDEST POP PUSH1 0x40 MLOAD PUSH3 0x25BC CODESIZE SUB DUP1 PUSH3 0x25BC DUP4 CODECOPY DUP2 DUP2 ADD PUSH1 0x40 MSTORE DUP2 ADD SWAP1 PUSH3 0x3C SWAP2 SWAP1 PUSH3 0x203 JUMP JUMPDEST DUP3 DUP3 DUP3 DUP3 PUSH1 0x0 SWAP1 DUP1 MLOAD SWAP1 PUSH1 0x20 ADD SWAP1 PUSH3 0x57 SWAP3 SWAP2 SWAP1 PUSH3 0xBE JUMP JUMPDEST POP DUP2 PUSH1 0x1 SWAP1 DUP1 MLOAD SWAP1 PUSH1 0x20 ADD SWAP1 PUSH3 0x70 SWAP3 SWAP2 SWAP1 PUSH3 0xBE JUMP JUMPDEST POP DUP1 PUSH1 0x2 PUSH1 0x0 PUSH2 0x100 EXP DUP2 SLOAD DUP2 PUSH20 0xFFFFFFFFFFFFFFFFFFFFFFFFFFFFFFFFFFFFFFFF MUL NOT AND SWAP1 DUP4 PUSH20 0xFFFFFFFFFFFFFFFFFFFFFFFFFFFFFFFFFFFFFFFF AND MUL OR SWAP1 SSTORE POP POP POP POP POP POP POP PUSH3 0x46F JUMP JUMPDEST DUP3 DUP1 SLOAD PUSH3 0xCC SWAP1 PUSH3 0x366 JUMP JUMPDEST SWAP1 PUSH1 0x0 MSTORE PUSH1 0x20 PUSH1 0x0 KECCAK256 SWAP1 PUSH1 0x1F ADD PUSH1 0x20 SWAP1 DIV DUP2 ADD SWAP3 DUP3 PUSH3 0xF0 JUMPI PUSH1 0x0 DUP6 SSTORE PUSH3 0x13C JUMP JUMPDEST DUP3 PUSH1 0x1F LT PUSH3 0x10B JUMPI DUP1 MLOAD PUSH1 0xFF NOT AND DUP4 DUP1 ADD OR DUP6 SSTORE PUSH3 0x13C JUMP JUMPDEST DUP3 DUP1 ADD PUSH1 0x1 ADD DUP6 SSTORE DUP3 ISZERO PUSH3 0x13C JUMPI SWAP2 DUP3 ADD JUMPDEST DUP3 DUP2 GT ISZERO PUSH3 0x13B JUMPI DUP3 MLOAD DUP3 SSTORE SWAP2 PUSH1 0x20 ADD SWAP2 SWAP1 PUSH1 0x1 ADD SWAP1 PUSH3 0x11E JUMP JUMPDEST JUMPDEST POP SWAP1 POP PUSH3 0x14B SWAP2 SWAP1 PUSH3 0x14F JUMP JUMPDEST POP SWAP1 JUMP JUMPDEST JUMPDEST DUP1 DUP3 GT ISZERO PUSH3 0x16A JUMPI PUSH1 0x0 DUP2 PUSH1 0x0 SWAP1 SSTORE POP PUSH1 0x1 ADD PUSH3 0x150 JUMP JUMPDEST POP SWAP1 JUMP JUMPDEST PUSH1 0x0 PUSH3 0x185 PUSH3 0x17F DUP5 PUSH3 0x2C6 JUMP JUMPDEST PUSH3 0x29D JUMP JUMPDEST SWAP1 POP DUP3 DUP2 MSTORE PUSH1 0x20 DUP2 ADD DUP5 DUP5 DUP5 ADD GT ISZERO PUSH3 0x1A4 JUMPI PUSH3 0x1A3 PUSH3 0x435 JUMP JUMPDEST JUMPDEST PUSH3 0x1B1 DUP5 DUP3 DUP6 PUSH3 0x330 JUMP JUMPDEST POP SWAP4 SWAP3 POP POP POP JUMP JUMPDEST PUSH1 0x0 DUP2 MLOAD SWAP1 POP PUSH3 0x1CA DUP2 PUSH3 0x455 JUMP JUMPDEST SWAP3 SWAP2 POP POP JUMP JUMPDEST PUSH1 0x0 DUP3 PUSH1 0x1F DUP4 ADD SLT PUSH3 0x1E8 JUMPI PUSH3 0x1E7 PUSH3 0x430 JUMP JUMPDEST JUMPDEST DUP2 MLOAD PUSH3 0x1FA DUP5 DUP3 PUSH1 0x20 DUP7 ADD PUSH3 0x16E JUMP JUMPDEST SWAP2 POP POP SWAP3 SWAP2 POP POP JUMP JUMPDEST PUSH1 0x0 DUP1 PUSH1 0x0 PUSH1 0x60 DUP5 DUP7 SUB SLT ISZERO PUSH3 0x21F JUMPI PUSH3 0x21E PUSH3 0x43F JUMP JUMPDEST JUMPDEST PUSH1 0x0 DUP5 ADD MLOAD PUSH8 0xFFFFFFFFFFFFFFFF DUP2 GT ISZERO PUSH3 0x240 JUMPI PUSH3 0x23F PUSH3 0x43A JUMP JUMPDEST JUMPDEST PUSH3 0x24E DUP7 DUP3 DUP8 ADD PUSH3 0x1D0 JUMP JUMPDEST SWAP4 POP POP PUSH1 0x20 DUP5 ADD MLOAD PUSH8 0xFFFFFFFFFFFFFFFF DUP2 GT ISZERO PUSH3 0x272 JUMPI PUSH3 0x271 PUSH3 0x43A JUMP JUMPDEST JUMPDEST PUSH3 0x280 DUP7 DUP3 DUP8 ADD PUSH3 0x1D0 JUMP JUMPDEST SWAP3 POP POP PUSH1 0x40 PUSH3 0x293 DUP7 DUP3 DUP8 ADD PUSH3 0x1B9 JUMP JUMPDEST SWAP2 POP POP SWAP3 POP SWAP3 POP SWAP3 JUMP JUMPDEST PUSH1 0x0 PUSH3 0x2A9 PUSH3 0x2BC JUMP JUMPDEST SWAP1 POP PUSH3 0x2B7 DUP3 DUP3 PUSH3 0x39C JUMP JUMPDEST SWAP2 SWAP1 POP JUMP JUMPDEST PUSH1 0x0 PUSH1 0x40 MLOAD SWAP1 POP SWAP1 JUMP JUMPDEST PUSH1 0x0 PUSH8 0xFFFFFFFFFFFFFFFF DUP3 GT ISZERO PUSH3 0x2E4 JUMPI PUSH3 0x2E3 PUSH3 0x401 JUMP JUMPDEST JUMPDEST PUSH3 0x2EF DUP3 PUSH3 0x444 JUMP JUMPDEST SWAP1 POP PUSH1 0x20 DUP2 ADD SWAP1 POP SWAP2 SWAP1 POP JUMP JUMPDEST PUSH1 0x0 PUSH3 0x309 DUP3 PUSH3 0x310 JUMP JUMPDEST SWAP1 POP SWAP2 SWAP1 POP JUMP JUMPDEST PUSH1 0x0 PUSH20 0xFFFFFFFFFFFFFFFFFFFFFFFFFFFFFFFFFFFFFFFF DUP3 AND SWAP1 POP SWAP2 SWAP1 POP JUMP JUMPDEST PUSH1 0x0 JUMPDEST DUP4 DUP2 LT ISZERO PUSH3 0x350 JUMPI DUP1 DUP3 ADD MLOAD DUP2 DUP5 ADD MSTORE PUSH1 0x20 DUP2 ADD SWAP1 POP PUSH3 0x333 JUMP JUMPDEST DUP4 DUP2 GT ISZERO PUSH3 0x360 JUMPI PUSH1 0x0 DUP5 DUP5 ADD MSTORE JUMPDEST POP POP POP POP JUMP JUMPDEST PUSH1 0x0 PUSH1 0x2 DUP3 DIV SWAP1 POP PUSH1 0x1 DUP3 AND DUP1 PUSH3 0x37F JUMPI PUSH1 0x7F DUP3 AND SWAP2 POP JUMPDEST PUSH1 0x20 DUP3 LT DUP2 EQ ISZERO PUSH3 0x396 JUMPI PUSH3 0x395 PUSH3 0x3D2 JUMP JUMPDEST JUMPDEST POP SWAP2 SWAP1 POP JUMP JUMPDEST PUSH3 0x3A7 DUP3 PUSH3 0x444 JUMP JUMPDEST DUP2 ADD DUP2 DUP2 LT PUSH8 0xFFFFFFFFFFFFFFFF DUP3 GT OR ISZERO PUSH3 0x3C9 JUMPI PUSH3 0x3C8 PUSH3 0x401 JUMP JUMPDEST JUMPDEST DUP1 PUSH1 0x40 MSTORE POP POP POP JUMP JUMPDEST PUSH32 0x4E487B7100000000000000000000000000000000000000000000000000000000 PUSH1 0x0 MSTORE PUSH1 0x22 PUSH1 0x4 MSTORE PUSH1 0x24 PUSH1 0x0 REVERT JUMPDEST PUSH32 0x4E487B7100000000000000000000000000000000000000000000000000000000 PUSH1 0x0 MSTORE PUSH1 0x41 PUSH1 0x4 MSTORE PUSH1 0x24 PUSH1 0x0 REVERT JUMPDEST PUSH1 0x0 DUP1 REVERT JUMPDEST PUSH1 0x0 DUP1 REVERT JUMPDEST PUSH1 0x0 DUP1 REVERT JUMPDEST PUSH1 0x0 DUP1 REVERT JUMPDEST PUSH1 0x0 PUSH1 0x1F NOT PUSH1 0x1F DUP4 ADD AND SWAP1 POP SWAP2 SWAP1 POP JUMP JUMPDEST PUSH3 0x460 DUP2 PUSH3 0x2FC JUMP JUMPDEST DUP2 EQ PUSH3 0x46C JUMPI PUSH1 0x0 DUP1 REVERT JUMPDEST POP JUMP JUMPDEST PUSH2 0x213D DUP1 PUSH3 0x47F PUSH1 0x0 CODECOPY PUSH1 0x0 RETURN INVALID PUSH1 0x80 PUSH1 0x40 MSTORE CALLVALUE DUP1 ISZERO PUSH2 0x10 JUMPI PUSH1 0x0 DUP1 REVERT JUMPDEST POP PUSH1 0x4 CALLDATASIZE LT PUSH2 0xF5 JUMPI PUSH1 0x0 CALLDATALOAD PUSH1 0xE0 SHR DUP1 PUSH4 0x42842E0E GT PUSH2 0x97 JUMPI DUP1 PUSH4 0xA22CB465 GT PUSH2 0x66 JUMPI DUP1 PUSH4 0xA22CB465 EQ PUSH2 0x270 JUMPI DUP1 PUSH4 0xB88D4FDE EQ PUSH2 0x28C JUMPI DUP1 PUSH4 0xC87B56DD EQ PUSH2 0x2A8 JUMPI DUP1 PUSH4 0xE985E9C5 EQ PUSH2 0x2D8 JUMPI PUSH2 0xF5 JUMP JUMPDEST DUP1 PUSH4 0x42842E0E EQ PUSH2 0x1D6 JUMPI DUP1 PUSH4 0x6352211E EQ PUSH2 0x1F2 JUMPI DUP1 PUSH4 0x70A08231 EQ PUSH2 0x222 JUMPI DUP1 PUSH4 0x95D89B41 EQ PUSH2 0x252 JUMPI PUSH2 0xF5 JUMP JUMPDEST DUP1 PUSH4 0x95EA7B3 GT PUSH2 0xD3 JUMPI DUP1 PUSH4 0x95EA7B3 EQ PUSH2 0x178 JUMPI DUP1 PUSH4 0x1249C58B EQ PUSH2 0x194 JUMPI DUP1 PUSH4 0x162094C4 EQ PUSH2 0x19E JUMPI DUP1 PUSH4 0x23B872DD EQ PUSH2 0x1BA JUMPI PUSH2 0xF5 JUMP JUMPDEST DUP1 PUSH4 0x1FFC9A7 EQ PUSH2 0xFA JUMPI DUP1 PUSH4 0x6FDDE03 EQ PUSH2 0x12A JUMPI DUP1 PUSH4 0x81812FC EQ PUSH2 0x148 JUMPI JUMPDEST PUSH1 0x0 DUP1 REVERT JUMPDEST PUSH2 0x114 PUSH1 0x4 DUP1 CALLDATASIZE SUB DUP2 ADD SWAP1 PUSH2 0x10F SWAP2 SWAP1 PUSH2 0x15DE JUMP JUMPDEST PUSH2 0x308 JUMP JUMPDEST PUSH1 0x40 MLOAD PUSH2 0x121 SWAP2 SWAP1 PUSH2 0x18D2 JUMP JUMPDEST PUSH1 0x40 MLOAD DUP1 SWAP2 SUB SWAP1 RETURN JUMPDEST PUSH2 0x132 PUSH2 0x3EA JUMP JUMPDEST PUSH1 0x40 MLOAD PUSH2 0x13F SWAP2 SWAP1 PUSH2 0x18ED JUMP JUMPDEST PUSH1 0x40 MLOAD DUP1 SWAP2 SUB SWAP1 RETURN JUMPDEST PUSH2 0x162 PUSH1 0x4 DUP1 CALLDATASIZE SUB DUP2 ADD SWAP1 PUSH2 0x15D SWAP2 SWAP1 PUSH2 0x160B JUMP JUMPDEST PUSH2 0x47C JUMP JUMPDEST PUSH1 0x40 MLOAD PUSH2 0x16F SWAP2 SWAP1 PUSH2 0x18B7 JUMP JUMPDEST PUSH1 0x40 MLOAD DUP1 SWAP2 SUB SWAP1 RETURN JUMPDEST PUSH2 0x192 PUSH1 0x4 DUP1 CALLDATASIZE SUB DUP2 ADD SWAP1 PUSH2 0x18D SWAP2 SWAP1 PUSH2 0x159E JUMP JUMPDEST PUSH2 0x483 JUMP JUMPDEST STOP JUMPDEST PUSH2 0x19C PUSH2 0x59B JUMP JUMPDEST STOP JUMPDEST PUSH2 0x1B8 PUSH1 0x4 DUP1 CALLDATASIZE SUB DUP2 ADD SWAP1 PUSH2 0x1B3 SWAP2 SWAP1 PUSH2 0x1665 JUMP JUMPDEST PUSH2 0x5C3 JUMP JUMPDEST STOP JUMPDEST PUSH2 0x1D4 PUSH1 0x4 DUP1 CALLDATASIZE SUB DUP2 ADD SWAP1 PUSH2 0x1CF SWAP2 SWAP1 PUSH2 0x1488 JUMP JUMPDEST PUSH2 0x611 JUMP JUMPDEST STOP JUMPDEST PUSH2 0x1F0 PUSH1 0x4 DUP1 CALLDATASIZE SUB DUP2 ADD SWAP1 PUSH2 0x1EB SWAP2 SWAP1 PUSH2 0x1488 JUMP JUMPDEST PUSH2 0x671 JUMP JUMPDEST STOP JUMPDEST PUSH2 0x20C PUSH1 0x4 DUP1 CALLDATASIZE SUB DUP2 ADD SWAP1 PUSH2 0x207 SWAP2 SWAP1 PUSH2 0x160B JUMP JUMPDEST PUSH2 0x691 JUMP JUMPDEST PUSH1 0x40 MLOAD PUSH2 0x219 SWAP2 SWAP1 PUSH2 0x18B7 JUMP JUMPDEST PUSH1 0x40 MLOAD DUP1 SWAP2 SUB SWAP1 RETURN JUMPDEST PUSH2 0x23C PUSH1 0x4 DUP1 CALLDATASIZE SUB DUP2 ADD SWAP1 PUSH2 0x237 SWAP2 SWAP1 PUSH2 0x13EE JUMP JUMPDEST PUSH2 0x7BA JUMP JUMPDEST PUSH1 0x40 MLOAD PUSH2 0x249 SWAP2 SWAP1 PUSH2 0x1A2F JUMP JUMPDEST PUSH1 0x40 MLOAD DUP1 SWAP2 SUB SWAP1 RETURN JUMPDEST PUSH2 0x25A PUSH2 0x8DD JUMP JUMPDEST PUSH1 0x40 MLOAD PUSH2 0x267 SWAP2 SWAP1 PUSH2 0x18ED JUMP JUMPDEST PUSH1 0x40 MLOAD DUP1 SWAP2 SUB SWAP1 RETURN JUMPDEST PUSH2 0x28A PUSH1 0x4 DUP1 CALLDATASIZE SUB DUP2 ADD SWAP1 PUSH2 0x285 SWAP2 SWAP1 PUSH2 0x155E JUMP JUMPDEST PUSH2 0x96F JUMP JUMPDEST STOP JUMPDEST PUSH2 0x2A6 PUSH1 0x4 DUP1 CALLDATASIZE SUB DUP2 ADD SWAP1 PUSH2 0x2A1 SWAP2 SWAP1 PUSH2 0x14DB JUMP JUMPDEST PUSH2 0x985 JUMP JUMPDEST STOP JUMPDEST PUSH2 0x2C2 PUSH1 0x4 DUP1 CALLDATASIZE SUB DUP2 ADD SWAP1 PUSH2 0x2BD SWAP2 SWAP1 PUSH2 0x160B JUMP JUMPDEST PUSH2 0x9E7 JUMP JUMPDEST PUSH1 0x40 MLOAD PUSH2 0x2CF SWAP2 SWAP1 PUSH2 0x18ED JUMP JUMPDEST PUSH1 0x40 MLOAD DUP1 SWAP2 SUB SWAP1 RETURN JUMPDEST PUSH2 0x2F2 PUSH1 0x4 DUP1 CALLDATASIZE SUB DUP2 ADD SWAP1 PUSH2 0x2ED SWAP2 SWAP1 PUSH2 0x1448 JUMP JUMPDEST PUSH2 0xA4F JUMP JUMPDEST PUSH1 0x40 MLOAD PUSH2 0x2FF SWAP2 SWAP1 PUSH2 0x18D2 JUMP JUMPDEST PUSH1 0x40 MLOAD DUP1 SWAP2 SUB SWAP1 RETURN JUMPDEST PUSH1 0x0 PUSH32 0x80AC58CD00000000000000000000000000000000000000000000000000000000 PUSH28 0xFFFFFFFFFFFFFFFFFFFFFFFFFFFFFFFFFFFFFFFFFFFFFFFFFFFFFFFF NOT AND DUP3 PUSH28 0xFFFFFFFFFFFFFFFFFFFFFFFFFFFFFFFFFFFFFFFFFFFFFFFFFFFFFFFF NOT AND EQ DUP1 PUSH2 0x3D3 JUMPI POP PUSH32 0x5B5E139F00000000000000000000000000000000000000000000000000000000 PUSH28 0xFFFFFFFFFFFFFFFFFFFFFFFFFFFFFFFFFFFFFFFFFFFFFFFFFFFFFFFF NOT AND DUP3 PUSH28 0xFFFFFFFFFFFFFFFFFFFFFFFFFFFFFFFFFFFFFFFFFFFFFFFFFFFFFFFF NOT AND EQ JUMPDEST DUP1 PUSH2 0x3E3 JUMPI POP PUSH2 0x3E2 DUP3 PUSH2 0xA57 JUMP JUMPDEST JUMPDEST SWAP1 POP SWAP2 SWAP1 POP JUMP JUMPDEST PUSH1 0x60 PUSH1 0x0 DUP1 SLOAD PUSH2 0x3F9 SWAP1 PUSH2 0x1C69 JUMP JUMPDEST DUP1 PUSH1 0x1F ADD PUSH1 0x20 DUP1 SWAP2 DIV MUL PUSH1 0x20 ADD PUSH1 0x40 MLOAD SWAP1 DUP2 ADD PUSH1 0x40 MSTORE DUP1 SWAP3 SWAP2 SWAP1 DUP2 DUP2 MSTORE PUSH1 0x20 ADD DUP3 DUP1 SLOAD PUSH2 0x425 SWAP1 PUSH2 0x1C69 JUMP JUMPDEST DUP1 ISZERO PUSH2 0x472 JUMPI DUP1 PUSH1 0x1F LT PUSH2 0x447 JUMPI PUSH2 0x100 DUP1 DUP4 SLOAD DIV MUL DUP4 MSTORE SWAP2 PUSH1 0x20 ADD SWAP2 PUSH2 0x472 JUMP JUMPDEST DUP3 ADD SWAP2 SWAP1 PUSH1 0x0 MSTORE PUSH1 0x20 PUSH1 0x0 KECCAK256 SWAP1 JUMPDEST DUP2 SLOAD DUP2 MSTORE SWAP1 PUSH1 0x1 ADD SWAP1 PUSH1 0x20 ADD DUP1 DUP4 GT PUSH2 0x455 JUMPI DUP3 SWAP1 SUB PUSH1 0x1F AND DUP3 ADD SWAP2 JUMPDEST POP POP POP POP POP SWAP1 POP SWAP1 JUMP JUMPDEST PUSH1 0x0 SWAP2 SWAP1 POP JUMP JUMPDEST PUSH1 0x0 PUSH2 0x48E DUP3 PUSH2 0x691 JUMP JUMPDEST SWAP1 POP DUP1 PUSH20 0xFFFFFFFFFFFFFFFFFFFFFFFFFFFFFFFFFFFFFFFF AND DUP4 PUSH20 0xFFFFFFFFFFFFFFFFFFFFFFFFFFFFFFFFFFFFFFFF AND EQ ISZERO PUSH2 0x4FF JUMPI PUSH1 0x40 MLOAD PUSH32 0x8C379A000000000000000000000000000000000000000000000000000000000 DUP2 MSTORE PUSH1 0x4 ADD PUSH2 0x4F6 SWAP1 PUSH2 0x19EF JUMP JUMPDEST PUSH1 0x40 MLOAD DUP1 SWAP2 SUB SWAP1 REVERT JUMPDEST DUP1 PUSH20 0xFFFFFFFFFFFFFFFFFFFFFFFFFFFFFFFFFFFFFFFF AND PUSH2 0x51E PUSH2 0xAC1 JUMP JUMPDEST PUSH20 0xFFFFFFFFFFFFFFFFFFFFFFFFFFFFFFFFFFFFFFFF AND EQ DUP1 PUSH2 0x54D JUMPI POP PUSH2 0x54C DUP2 PUSH2 0x547 PUSH2 0xAC1 JUMP JUMPDEST PUSH2 0xA4F JUMP JUMPDEST JUMPDEST PUSH2 0x58C JUMPI PUSH1 0x40 MLOAD PUSH32 0x8C379A000000000000000000000000000000000000000000000000000000000 DUP2 MSTORE PUSH1 0x4 ADD PUSH2 0x583 SWAP1 PUSH2 0x19AF JUMP JUMPDEST PUSH1 0x40 MLOAD DUP1 SWAP2 SUB SWAP1 REVERT JUMPDEST PUSH2 0x596 DUP4 DUP4 PUSH2 0xAC9 JUMP JUMPDEST POP POP POP JUMP JUMPDEST PUSH1 0x0 PUSH1 0x4 SLOAD SWAP1 POP PUSH1 0x1 PUSH1 0x4 SLOAD PUSH2 0x5B1 SWAP2 SWAP1 PUSH2 0x1AF8 JUMP JUMPDEST PUSH1 0x4 DUP2 SWAP1 SSTORE POP PUSH2 0x5C0 DUP2 PUSH2 0xB30 JUMP JUMPDEST POP JUMP JUMPDEST PUSH2 0x5CC DUP3 PUSH2 0x691 JUMP JUMPDEST PUSH20 0xFFFFFFFFFFFFFFFFFFFFFFFFFFFFFFFFFFFFFFFF AND CALLER PUSH20 0xFFFFFFFFFFFFFFFFFFFFFFFFFFFFFFFFFFFFFFFF AND EQ PUSH2 0x603 JUMPI PUSH1 0x0 DUP1 REVERT JUMPDEST PUSH2 0x60D DUP3 DUP3 PUSH2 0xC82 JUMP JUMPDEST POP POP JUMP JUMPDEST PUSH2 0x622 PUSH2 0x61C PUSH2 0xAC1 JUMP JUMPDEST DUP3 PUSH2 0xCC0 JUMP JUMPDEST PUSH2 0x661 JUMPI PUSH1 0x40 MLOAD PUSH32 0x8C379A000000000000000000000000000000000000000000000000000000000 DUP2 MSTORE PUSH1 0x4 ADD PUSH2 0x658 SWAP1 PUSH2 0x1A0F JUMP JUMPDEST PUSH1 0x40 MLOAD DUP1 SWAP2 SUB SWAP1 REVERT JUMPDEST PUSH2 0x66C DUP4 DUP4 DUP4 PUSH2 0xD55 JUMP JUMPDEST POP POP POP JUMP JUMPDEST PUSH2 0x68C DUP4 DUP4 DUP4 PUSH1 0x40 MLOAD DUP1 PUSH1 0x20 ADD PUSH1 0x40 MSTORE DUP1 PUSH1 0x0 DUP2 MSTORE POP PUSH2 0x985 JUMP JUMPDEST POP POP POP JUMP JUMPDEST PUSH1 0x0 DUP1 PUSH1 0x2 PUSH1 0x0 SWAP1 SLOAD SWAP1 PUSH2 0x100 EXP SWAP1 DIV PUSH20 0xFFFFFFFFFFFFFFFFFFFFFFFFFFFFFFFFFFFFFFFF AND PUSH20 0xFFFFFFFFFFFFFFFFFFFFFFFFFFFFFFFFFFFFFFFF AND PUSH4 0x6352211E DUP5 PUSH1 0x40 MLOAD DUP3 PUSH4 0xFFFFFFFF AND PUSH1 0xE0 SHL DUP2 MSTORE PUSH1 0x4 ADD PUSH2 0x6EF SWAP2 SWAP1 PUSH2 0x1A2F JUMP JUMPDEST PUSH1 0x20 PUSH1 0x40 MLOAD DUP1 DUP4 SUB DUP2 DUP7 DUP1 EXTCODESIZE ISZERO DUP1 ISZERO PUSH2 0x707 JUMPI PUSH1 0x0 DUP1 REVERT JUMPDEST POP GAS STATICCALL ISZERO DUP1 ISZERO PUSH2 0x71B JUMPI RETURNDATASIZE PUSH1 0x0 DUP1 RETURNDATACOPY RETURNDATASIZE PUSH1 0x0 REVERT JUMPDEST POP POP POP POP PUSH1 0x40 MLOAD RETURNDATASIZE PUSH1 0x1F NOT PUSH1 0x1F DUP3 ADD AND DUP3 ADD DUP1 PUSH1 0x40 MSTORE POP DUP2 ADD SWAP1 PUSH2 0x73F SWAP2 SWAP1 PUSH2 0x141B JUMP JUMPDEST SWAP1 POP PUSH1 0x0 PUSH20 0xFFFFFFFFFFFFFFFFFFFFFFFFFFFFFFFFFFFFFFFF AND DUP2 PUSH20 0xFFFFFFFFFFFFFFFFFFFFFFFFFFFFFFFFFFFFFFFF AND EQ ISZERO PUSH2 0x7B1 JUMPI PUSH1 0x40 MLOAD PUSH32 0x8C379A000000000000000000000000000000000000000000000000000000000 DUP2 MSTORE PUSH1 0x4 ADD PUSH2 0x7A8 SWAP1 PUSH2 0x19CF JUMP JUMPDEST PUSH1 0x40 MLOAD DUP1 SWAP2 SUB SWAP1 REVERT JUMPDEST DUP1 SWAP2 POP POP SWAP2 SWAP1 POP JUMP JUMPDEST PUSH1 0x0 DUP1 PUSH20 0xFFFFFFFFFFFFFFFFFFFFFFFFFFFFFFFFFFFFFFFF AND DUP3 PUSH20 0xFFFFFFFFFFFFFFFFFFFFFFFFFFFFFFFFFFFFFFFF AND EQ ISZERO PUSH2 0x82B JUMPI PUSH1 0x40 MLOAD PUSH32 0x8C379A000000000000000000000000000000000000000000000000000000000 DUP2 MSTORE PUSH1 0x4 ADD PUSH2 0x822 SWAP1 PUSH2 0x198F JUMP JUMPDEST PUSH1 0x40 MLOAD DUP1 SWAP2 SUB SWAP1 REVERT JUMPDEST PUSH1 0x2 PUSH1 0x0 SWAP1 SLOAD SWAP1 PUSH2 0x100 EXP SWAP1 DIV PUSH20 0xFFFFFFFFFFFFFFFFFFFFFFFFFFFFFFFFFFFFFFFF AND PUSH20 0xFFFFFFFFFFFFFFFFFFFFFFFFFFFFFFFFFFFFFFFF AND PUSH4 0x70A08231 DUP4 PUSH1 0x40 MLOAD DUP3 PUSH4 0xFFFFFFFF AND PUSH1 0xE0 SHL DUP2 MSTORE PUSH1 0x4 ADD PUSH2 0x886 SWAP2 SWAP1 PUSH2 0x18B7 JUMP JUMPDEST PUSH1 0x20 PUSH1 0x40 MLOAD DUP1 DUP4 SUB DUP2 DUP7 DUP1 EXTCODESIZE ISZERO DUP1 ISZERO PUSH2 0x89E JUMPI PUSH1 0x0 DUP1 REVERT JUMPDEST POP GAS STATICCALL ISZERO DUP1 ISZERO PUSH2 0x8B2 JUMPI RETURNDATASIZE PUSH1 0x0 DUP1 RETURNDATACOPY RETURNDATASIZE PUSH1 0x0 REVERT JUMPDEST POP POP POP POP PUSH1 0x40 MLOAD RETURNDATASIZE PUSH1 0x1F NOT PUSH1 0x1F DUP3 ADD AND DUP3 ADD DUP1 PUSH1 0x40 MSTORE POP DUP2 ADD SWAP1 PUSH2 0x8D6 SWAP2 SWAP1 PUSH2 0x1638 JUMP JUMPDEST SWAP1 POP SWAP2 SWAP1 POP JUMP JUMPDEST PUSH1 0x60 PUSH1 0x1 DUP1 SLOAD PUSH2 0x8EC SWAP1 PUSH2 0x1C69 JUMP JUMPDEST DUP1 PUSH1 0x1F ADD PUSH1 0x20 DUP1 SWAP2 DIV MUL PUSH1 0x20 ADD PUSH1 0x40 MLOAD SWAP1 DUP2 ADD PUSH1 0x40 MSTORE DUP1 SWAP3 SWAP2 SWAP1 DUP2 DUP2 MSTORE PUSH1 0x20 ADD DUP3 DUP1 SLOAD PUSH2 0x918 SWAP1 PUSH2 0x1C69 JUMP JUMPDEST DUP1 ISZERO PUSH2 0x965 JUMPI DUP1 PUSH1 0x1F LT PUSH2 0x93A JUMPI PUSH2 0x100 DUP1 DUP4 SLOAD DIV MUL DUP4 MSTORE SWAP2 PUSH1 0x20 ADD SWAP2 PUSH2 0x965 JUMP JUMPDEST DUP3 ADD SWAP2 SWAP1 PUSH1 0x0 MSTORE PUSH1 0x20 PUSH1 0x0 KECCAK256 SWAP1 JUMPDEST DUP2 SLOAD DUP2 MSTORE SWAP1 PUSH1 0x1 ADD SWAP1 PUSH1 0x20 ADD DUP1 DUP4 GT PUSH2 0x948 JUMPI DUP3 SWAP1 SUB PUSH1 0x1F AND DUP3 ADD SWAP2 JUMPDEST POP POP POP POP POP SWAP1 POP SWAP1 JUMP JUMPDEST PUSH2 0x981 PUSH2 0x97A PUSH2 0xAC1 JUMP JUMPDEST DUP4 DUP4 PUSH2 0xEBC JUMP JUMPDEST POP POP JUMP JUMPDEST PUSH2 0x996 PUSH2 0x990 PUSH2 0xAC1 JUMP JUMPDEST DUP4 PUSH2 0xCC0 JUMP JUMPDEST PUSH2 0x9D5 JUMPI PUSH1 0x40 MLOAD PUSH32 0x8C379A000000000000000000000000000000000000000000000000000000000 DUP2 MSTORE PUSH1 0x4 ADD PUSH2 0x9CC SWAP1 PUSH2 0x1A0F JUMP JUMPDEST PUSH1 0x40 MLOAD DUP1 SWAP2 SUB SWAP1 REVERT JUMPDEST PUSH2 0x9E1 DUP5 DUP5 DUP5 DUP5 PUSH2 0xF95 JUMP JUMPDEST POP POP POP POP JUMP JUMPDEST PUSH1 0x60 PUSH2 0x9F2 DUP3 PUSH2 0xFA6 JUMP JUMPDEST PUSH1 0x0 PUSH2 0x9FC PUSH2 0xFF1 JUMP JUMPDEST SWAP1 POP PUSH1 0x0 DUP2 MLOAD GT PUSH2 0xA1C JUMPI PUSH1 0x40 MLOAD DUP1 PUSH1 0x20 ADD PUSH1 0x40 MSTORE DUP1 PUSH1 0x0 DUP2 MSTORE POP PUSH2 0xA47 JUMP JUMPDEST DUP1 PUSH2 0xA26 DUP5 PUSH2 0x1008 JUMP JUMPDEST PUSH1 0x40 MLOAD PUSH1 0x20 ADD PUSH2 0xA37 SWAP3 SWAP2 SWAP1 PUSH2 0x1893 JUMP JUMPDEST PUSH1 0x40 MLOAD PUSH1 0x20 DUP2 DUP4 SUB SUB DUP2 MSTORE SWAP1 PUSH1 0x40 MSTORE JUMPDEST SWAP2 POP POP SWAP2 SWAP1 POP JUMP JUMPDEST PUSH1 0x0 SWAP3 SWAP2 POP POP JUMP JUMPDEST PUSH1 0x0 PUSH32 0x1FFC9A700000000000000000000000000000000000000000000000000000000 PUSH28 0xFFFFFFFFFFFFFFFFFFFFFFFFFFFFFFFFFFFFFFFFFFFFFFFFFFFFFFFF NOT AND DUP3 PUSH28 0xFFFFFFFFFFFFFFFFFFFFFFFFFFFFFFFFFFFFFFFFFFFFFFFFFFFFFFFF NOT AND EQ SWAP1 POP SWAP2 SWAP1 POP JUMP JUMPDEST PUSH1 0x0 CALLER SWAP1 POP SWAP1 JUMP JUMPDEST DUP1 DUP3 PUSH20 0xFFFFFFFFFFFFFFFFFFFFFFFFFFFFFFFFFFFFFFFF AND PUSH2 0xAEA DUP4 PUSH2 0x691 JUMP JUMPDEST PUSH20 0xFFFFFFFFFFFFFFFFFFFFFFFFFFFFFFFFFFFFFFFF AND PUSH32 0x8C5BE1E5EBEC7D5BD14F71427D1E84F3DD0314C0F7B2291E5B200AC8C7C3B925 PUSH1 0x40 MLOAD PUSH1 0x40 MLOAD DUP1 SWAP2 SUB SWAP1 LOG4 POP POP JUMP JUMPDEST PUSH2 0xB39 DUP2 PUSH2 0x1169 JUMP JUMPDEST ISZERO PUSH2 0xB79 JUMPI PUSH1 0x40 MLOAD PUSH32 0x8C379A000000000000000000000000000000000000000000000000000000000 DUP2 MSTORE PUSH1 0x4 ADD PUSH2 0xB70 SWAP1 PUSH2 0x192F JUMP JUMPDEST PUSH1 0x40 MLOAD DUP1 SWAP2 SUB SWAP1 REVERT JUMPDEST DUP1 PUSH1 0x2 PUSH1 0x0 SWAP1 SLOAD SWAP1 PUSH2 0x100 EXP SWAP1 DIV PUSH20 0xFFFFFFFFFFFFFFFFFFFFFFFFFFFFFFFFFFFFFFFF AND PUSH20 0xFFFFFFFFFFFFFFFFFFFFFFFFFFFFFFFFFFFFFFFF AND PUSH4 0x6352211E DUP4 PUSH1 0x40 MLOAD DUP3 PUSH4 0xFFFFFFFF AND PUSH1 0xE0 SHL DUP2 MSTORE PUSH1 0x4 ADD PUSH2 0xBD5 SWAP2 SWAP1 PUSH2 0x1A2F JUMP JUMPDEST PUSH1 0x20 PUSH1 0x40 MLOAD DUP1 DUP4 SUB DUP2 DUP7 DUP1 EXTCODESIZE ISZERO DUP1 ISZERO PUSH2 0xBED JUMPI PUSH1 0x0 DUP1 REVERT JUMPDEST POP GAS STATICCALL ISZERO DUP1 ISZERO PUSH2 0xC01 JUMPI RETURNDATASIZE PUSH1 0x0 DUP1 RETURNDATACOPY RETURNDATASIZE PUSH1 0x0 REVERT JUMPDEST POP POP POP POP PUSH1 0x40 MLOAD RETURNDATASIZE PUSH1 0x1F NOT PUSH1 0x1F DUP3 ADD AND DUP3 ADD DUP1 PUSH1 0x40 MSTORE POP DUP2 ADD SWAP1 PUSH2 0xC25 SWAP2 SWAP1 PUSH2 0x141B JUMP JUMPDEST PUSH20 0xFFFFFFFFFFFFFFFFFFFFFFFFFFFFFFFFFFFFFFFF AND PUSH1 0x0 PUSH20 0xFFFFFFFFFFFFFFFFFFFFFFFFFFFFFFFFFFFFFFFF AND PUSH32 0xDDF252AD1BE2C89B69C2B068FC378DAA952BA7F163C4A11628F55A4DF523B3EF PUSH1 0x40 MLOAD PUSH1 0x40 MLOAD DUP1 SWAP2 SUB SWAP1 LOG4 POP JUMP JUMPDEST PUSH2 0xC8B DUP3 PUSH2 0x1169 JUMP JUMPDEST PUSH2 0xC94 JUMPI PUSH1 0x0 DUP1 REVERT JUMPDEST DUP1 PUSH1 0x3 PUSH1 0x0 DUP5 DUP2 MSTORE PUSH1 0x20 ADD SWAP1 DUP2 MSTORE PUSH1 0x20 ADD PUSH1 0x0 KECCAK256 SWAP1 DUP1 MLOAD SWAP1 PUSH1 0x20 ADD SWAP1 PUSH2 0xCBB SWAP3 SWAP2 SWAP1 PUSH2 0x11ED JUMP JUMPDEST POP POP POP JUMP JUMPDEST PUSH1 0x0 DUP1 PUSH2 0xCCC DUP4 PUSH2 0x691 JUMP JUMPDEST SWAP1 POP DUP1 PUSH20 0xFFFFFFFFFFFFFFFFFFFFFFFFFFFFFFFFFFFFFFFF AND DUP5 PUSH20 0xFFFFFFFFFFFFFFFFFFFFFFFFFFFFFFFFFFFFFFFF AND EQ DUP1 PUSH2 0xD0E JUMPI POP PUSH2 0xD0D DUP2 DUP6 PUSH2 0xA4F JUMP JUMPDEST JUMPDEST DUP1 PUSH2 0xD4C JUMPI POP DUP4 PUSH20 0xFFFFFFFFFFFFFFFFFFFFFFFFFFFFFFFFFFFFFFFF AND PUSH2 0xD34 DUP5 PUSH2 0x47C JUMP JUMPDEST PUSH20 0xFFFFFFFFFFFFFFFFFFFFFFFFFFFFFFFFFFFFFFFF AND EQ JUMPDEST SWAP2 POP POP SWAP3 SWAP2 POP POP JUMP JUMPDEST DUP3 PUSH20 0xFFFFFFFFFFFFFFFFFFFFFFFFFFFFFFFFFFFFFFFF AND PUSH2 0xD75 DUP3 PUSH2 0x691 JUMP JUMPDEST PUSH20 0xFFFFFFFFFFFFFFFFFFFFFFFFFFFFFFFFFFFFFFFF AND EQ PUSH2 0xDCB JUMPI PUSH1 0x40 MLOAD PUSH32 0x8C379A000000000000000000000000000000000000000000000000000000000 DUP2 MSTORE PUSH1 0x4 ADD PUSH2 0xDC2 SWAP1 PUSH2 0x190F JUMP JUMPDEST PUSH1 0x40 MLOAD DUP1 SWAP2 SUB SWAP1 REVERT JUMPDEST PUSH1 0x0 PUSH20 0xFFFFFFFFFFFFFFFFFFFFFFFFFFFFFFFFFFFFFFFF AND DUP3 PUSH20 0xFFFFFFFFFFFFFFFFFFFFFFFFFFFFFFFFFFFFFFFF AND EQ ISZERO PUSH2 0xE3B JUMPI PUSH1 0x40 MLOAD PUSH32 0x8C379A000000000000000000000000000000000000000000000000000000000 DUP2 MSTORE PUSH1 0x4 ADD PUSH2 0xE32 SWAP1 PUSH2 0x194F JUMP JUMPDEST PUSH1 0x40 MLOAD DUP1 SWAP2 SUB SWAP1 REVERT JUMPDEST PUSH2 0xE46 DUP4 DUP4 DUP4 PUSH2 0x11AA JUMP JUMPDEST PUSH2 0xE51 PUSH1 0x0 DUP3 PUSH2 0xAC9 JUMP JUMPDEST DUP1 DUP3 PUSH20 0xFFFFFFFFFFFFFFFFFFFFFFFFFFFFFFFFFFFFFFFF AND DUP5 PUSH20 0xFFFFFFFFFFFFFFFFFFFFFFFFFFFFFFFFFFFFFFFF AND PUSH32 0xDDF252AD1BE2C89B69C2B068FC378DAA952BA7F163C4A11628F55A4DF523B3EF PUSH1 0x40 MLOAD PUSH1 0x40 MLOAD DUP1 SWAP2 SUB SWAP1 LOG4 PUSH2 0xEB7 DUP4 DUP4 DUP4 PUSH2 0x11E8 JUMP JUMPDEST POP POP POP JUMP JUMPDEST DUP2 PUSH20 0xFFFFFFFFFFFFFFFFFFFFFFFFFFFFFFFFFFFFFFFF AND DUP4 PUSH20 0xFFFFFFFFFFFFFFFFFFFFFFFFFFFFFFFFFFFFFFFF AND EQ ISZERO PUSH2 0xF2B JUMPI PUSH1 0x40 MLOAD PUSH32 0x8C379A000000000000000000000000000000000000000000000000000000000 DUP2 MSTORE PUSH1 0x4 ADD PUSH2 0xF22 SWAP1 PUSH2 0x196F JUMP JUMPDEST PUSH1 0x40 MLOAD DUP1 SWAP2 SUB SWAP1 REVERT JUMPDEST DUP2 PUSH20 0xFFFFFFFFFFFFFFFFFFFFFFFFFFFFFFFFFFFFFFFF AND DUP4 PUSH20 0xFFFFFFFFFFFFFFFFFFFFFFFFFFFFFFFFFFFFFFFF AND PUSH32 0x17307EAB39AB6107E8899845AD3D59BD9653F200F220920489CA2B5937696C31 DUP4 PUSH1 0x40 MLOAD PUSH2 0xF88 SWAP2 SWAP1 PUSH2 0x18D2 JUMP JUMPDEST PUSH1 0x40 MLOAD DUP1 SWAP2 SUB SWAP1 LOG3 POP POP POP JUMP JUMPDEST PUSH2 0xFA0 DUP5 DUP5 DUP5 PUSH2 0xD55 JUMP JUMPDEST POP POP POP POP JUMP JUMPDEST PUSH2 0xFAF DUP2 PUSH2 0x1169 JUMP JUMPDEST PUSH2 0xFEE JUMPI PUSH1 0x40 MLOAD PUSH32 0x8C379A000000000000000000000000000000000000000000000000000000000 DUP2 MSTORE PUSH1 0x4 ADD PUSH2 0xFE5 SWAP1 PUSH2 0x19CF JUMP JUMPDEST PUSH1 0x40 MLOAD DUP1 SWAP2 SUB SWAP1 REVERT JUMPDEST POP JUMP JUMPDEST PUSH1 0x60 PUSH1 0x40 MLOAD DUP1 PUSH1 0x20 ADD PUSH1 0x40 MSTORE DUP1 PUSH1 0x0 DUP2 MSTORE POP SWAP1 POP SWAP1 JUMP JUMPDEST PUSH1 0x60 PUSH1 0x0 DUP3 EQ ISZERO PUSH2 0x1050 JUMPI PUSH1 0x40 MLOAD DUP1 PUSH1 0x40 ADD PUSH1 0x40 MSTORE DUP1 PUSH1 0x1 DUP2 MSTORE PUSH1 0x20 ADD PUSH32 0x3000000000000000000000000000000000000000000000000000000000000000 DUP2 MSTORE POP SWAP1 POP PUSH2 0x1164 JUMP JUMPDEST PUSH1 0x0 DUP3 SWAP1 POP PUSH1 0x0 JUMPDEST PUSH1 0x0 DUP3 EQ PUSH2 0x1082 JUMPI DUP1 DUP1 PUSH2 0x106B SWAP1 PUSH2 0x1CCC JUMP JUMPDEST SWAP2 POP POP PUSH1 0xA DUP3 PUSH2 0x107B SWAP2 SWAP1 PUSH2 0x1B4E JUMP JUMPDEST SWAP2 POP PUSH2 0x1058 JUMP JUMPDEST PUSH1 0x0 DUP2 PUSH8 0xFFFFFFFFFFFFFFFF DUP2 GT ISZERO PUSH2 0x109E JUMPI PUSH2 0x109D PUSH2 0x1E02 JUMP JUMPDEST JUMPDEST PUSH1 0x40 MLOAD SWAP1 DUP1 DUP3 MSTORE DUP1 PUSH1 0x1F ADD PUSH1 0x1F NOT AND PUSH1 0x20 ADD DUP3 ADD PUSH1 0x40 MSTORE DUP1 ISZERO PUSH2 0x10D0 JUMPI DUP2 PUSH1 0x20 ADD PUSH1 0x1 DUP3 MUL DUP1 CALLDATASIZE DUP4 CALLDATACOPY DUP1 DUP3 ADD SWAP2 POP POP SWAP1 POP JUMPDEST POP SWAP1 POP JUMPDEST PUSH1 0x0 DUP6 EQ PUSH2 0x115D JUMPI PUSH1 0x1 DUP3 PUSH2 0x10E9 SWAP2 SWAP1 PUSH2 0x1B7F JUMP JUMPDEST SWAP2 POP PUSH1 0xA DUP6 PUSH2 0x10F8 SWAP2 SWAP1 PUSH2 0x1D15 JUMP JUMPDEST PUSH1 0x30 PUSH2 0x1104 SWAP2 SWAP1 PUSH2 0x1AF8 JUMP JUMPDEST PUSH1 0xF8 SHL DUP2 DUP4 DUP2 MLOAD DUP2 LT PUSH2 0x111A JUMPI PUSH2 0x1119 PUSH2 0x1DD3 JUMP JUMPDEST JUMPDEST PUSH1 0x20 ADD ADD SWAP1 PUSH31 0xFFFFFFFFFFFFFFFFFFFFFFFFFFFFFFFFFFFFFFFFFFFFFFFFFFFFFFFFFFFFFF NOT AND SWAP1 DUP2 PUSH1 0x0 BYTE SWAP1 MSTORE8 POP PUSH1 0xA DUP6 PUSH2 0x1156 SWAP2 SWAP1 PUSH2 0x1B4E JUMP JUMPDEST SWAP5 POP PUSH2 0x10D4 JUMP JUMPDEST DUP1 SWAP4 POP POP POP POP JUMPDEST SWAP2 SWAP1 POP JUMP JUMPDEST PUSH1 0x0 DUP1 PUSH20 0xFFFFFFFFFFFFFFFFFFFFFFFFFFFFFFFFFFFFFFFF AND PUSH2 0x118B DUP4 PUSH2 0x691 JUMP JUMPDEST PUSH20 0xFFFFFFFFFFFFFFFFFFFFFFFFFFFFFFFFFFFFFFFF AND EQ ISZERO SWAP1 POP SWAP2 SWAP1 POP JUMP JUMPDEST PUSH1 0x0 PUSH20 0xFFFFFFFFFFFFFFFFFFFFFFFFFFFFFFFFFFFFFFFF AND DUP4 PUSH20 0xFFFFFFFFFFFFFFFFFFFFFFFFFFFFFFFFFFFFFFFF AND EQ PUSH2 0x11E3 JUMPI PUSH1 0x0 DUP1 REVERT JUMPDEST POP POP POP JUMP JUMPDEST POP POP POP JUMP JUMPDEST DUP3 DUP1 SLOAD PUSH2 0x11F9 SWAP1 PUSH2 0x1C69 JUMP JUMPDEST SWAP1 PUSH1 0x0 MSTORE PUSH1 0x20 PUSH1 0x0 KECCAK256 SWAP1 PUSH1 0x1F ADD PUSH1 0x20 SWAP1 DIV DUP2 ADD SWAP3 DUP3 PUSH2 0x121B JUMPI PUSH1 0x0 DUP6 SSTORE PUSH2 0x1262 JUMP JUMPDEST DUP3 PUSH1 0x1F LT PUSH2 0x1234 JUMPI DUP1 MLOAD PUSH1 0xFF NOT AND DUP4 DUP1 ADD OR DUP6 SSTORE PUSH2 0x1262 JUMP JUMPDEST DUP3 DUP1 ADD PUSH1 0x1 ADD DUP6 SSTORE DUP3 ISZERO PUSH2 0x1262 JUMPI SWAP2 DUP3 ADD JUMPDEST DUP3 DUP2 GT ISZERO PUSH2 0x1261 JUMPI DUP3 MLOAD DUP3 SSTORE SWAP2 PUSH1 0x20 ADD SWAP2 SWAP1 PUSH1 0x1 ADD SWAP1 PUSH2 0x1246 JUMP JUMPDEST JUMPDEST POP SWAP1 POP PUSH2 0x126F SWAP2 SWAP1 PUSH2 0x1273 JUMP JUMPDEST POP SWAP1 JUMP JUMPDEST JUMPDEST DUP1 DUP3 GT ISZERO PUSH2 0x128C JUMPI PUSH1 0x0 DUP2 PUSH1 0x0 SWAP1 SSTORE POP PUSH1 0x1 ADD PUSH2 0x1274 JUMP JUMPDEST POP SWAP1 JUMP JUMPDEST PUSH1 0x0 PUSH2 0x12A3 PUSH2 0x129E DUP5 PUSH2 0x1A6F JUMP JUMPDEST PUSH2 0x1A4A JUMP JUMPDEST SWAP1 POP DUP3 DUP2 MSTORE PUSH1 0x20 DUP2 ADD DUP5 DUP5 DUP5 ADD GT ISZERO PUSH2 0x12BF JUMPI PUSH2 0x12BE PUSH2 0x1E36 JUMP JUMPDEST JUMPDEST PUSH2 0x12CA DUP5 DUP3 DUP6 PUSH2 0x1C27 JUMP JUMPDEST POP SWAP4 SWAP3 POP POP POP JUMP JUMPDEST PUSH1 0x0 PUSH2 0x12E5 PUSH2 0x12E0 DUP5 PUSH2 0x1AA0 JUMP JUMPDEST PUSH2 0x1A4A JUMP JUMPDEST SWAP1 POP DUP3 DUP2 MSTORE PUSH1 0x20 DUP2 ADD DUP5 DUP5 DUP5 ADD GT ISZERO PUSH2 0x1301 JUMPI PUSH2 0x1300 PUSH2 0x1E36 JUMP JUMPDEST JUMPDEST PUSH2 0x130C DUP5 DUP3 DUP6 PUSH2 0x1C27 JUMP JUMPDEST POP SWAP4 SWAP3 POP POP POP JUMP JUMPDEST PUSH1 0x0 DUP2 CALLDATALOAD SWAP1 POP PUSH2 0x1323 DUP2 PUSH2 0x20AB JUMP JUMPDEST SWAP3 SWAP2 POP POP JUMP JUMPDEST PUSH1 0x0 DUP2 MLOAD SWAP1 POP PUSH2 0x1338 DUP2 PUSH2 0x20AB JUMP JUMPDEST SWAP3 SWAP2 POP POP JUMP JUMPDEST PUSH1 0x0 DUP2 CALLDATALOAD SWAP1 POP PUSH2 0x134D DUP2 PUSH2 0x20C2 JUMP JUMPDEST SWAP3 SWAP2 POP POP JUMP JUMPDEST PUSH1 0x0 DUP2 CALLDATALOAD SWAP1 POP PUSH2 0x1362 DUP2 PUSH2 0x20D9 JUMP JUMPDEST SWAP3 SWAP2 POP POP JUMP JUMPDEST PUSH1 0x0 DUP3 PUSH1 0x1F DUP4 ADD SLT PUSH2 0x137D JUMPI PUSH2 0x137C PUSH2 0x1E31 JUMP JUMPDEST JUMPDEST DUP2 CALLDATALOAD PUSH2 0x138D DUP5 DUP3 PUSH1 0x20 DUP7 ADD PUSH2 0x1290 JUMP JUMPDEST SWAP2 POP POP SWAP3 SWAP2 POP POP JUMP JUMPDEST PUSH1 0x0 DUP3 PUSH1 0x1F DUP4 ADD SLT PUSH2 0x13AB JUMPI PUSH2 0x13AA PUSH2 0x1E31 JUMP JUMPDEST JUMPDEST DUP2 CALLDATALOAD PUSH2 0x13BB DUP5 DUP3 PUSH1 0x20 DUP7 ADD PUSH2 0x12D2 JUMP JUMPDEST SWAP2 POP POP SWAP3 SWAP2 POP POP JUMP JUMPDEST PUSH1 0x0 DUP2 CALLDATALOAD SWAP1 POP PUSH2 0x13D3 DUP2 PUSH2 0x20F0 JUMP JUMPDEST SWAP3 SWAP2 POP POP JUMP JUMPDEST PUSH1 0x0 DUP2 MLOAD SWAP1 POP PUSH2 0x13E8 DUP2 PUSH2 0x20F0 JUMP JUMPDEST SWAP3 SWAP2 POP POP JUMP JUMPDEST PUSH1 0x0 PUSH1 0x20 DUP3 DUP5 SUB SLT ISZERO PUSH2 0x1404 JUMPI PUSH2 0x1403 PUSH2 0x1E40 JUMP JUMPDEST JUMPDEST PUSH1 0x0 PUSH2 0x1412 DUP5 DUP3 DUP6 ADD PUSH2 0x1314 JUMP JUMPDEST SWAP2 POP POP SWAP3 SWAP2 POP POP JUMP JUMPDEST PUSH1 0x0 PUSH1 0x20 DUP3 DUP5 SUB SLT ISZERO PUSH2 0x1431 JUMPI PUSH2 0x1430 PUSH2 0x1E40 JUMP JUMPDEST JUMPDEST PUSH1 0x0 PUSH2 0x143F DUP5 DUP3 DUP6 ADD PUSH2 0x1329 JUMP JUMPDEST SWAP2 POP POP SWAP3 SWAP2 POP POP JUMP JUMPDEST PUSH1 0x0 DUP1 PUSH1 0x40 DUP4 DUP6 SUB SLT ISZERO PUSH2 0x145F JUMPI PUSH2 0x145E PUSH2 0x1E40 JUMP JUMPDEST JUMPDEST PUSH1 0x0 PUSH2 0x146D DUP6 DUP3 DUP7 ADD PUSH2 0x1314 JUMP JUMPDEST SWAP3 POP POP PUSH1 0x20 PUSH2 0x147E DUP6 DUP3 DUP7 ADD PUSH2 0x1314 JUMP JUMPDEST SWAP2 POP POP SWAP3 POP SWAP3 SWAP1 POP JUMP JUMPDEST PUSH1 0x0 DUP1 PUSH1 0x0 PUSH1 0x60 DUP5 DUP7 SUB SLT ISZERO PUSH2 0x14A1 JUMPI PUSH2 0x14A0 PUSH2 0x1E40 JUMP JUMPDEST JUMPDEST PUSH1 0x0 PUSH2 0x14AF DUP7 DUP3 DUP8 ADD PUSH2 0x1314 JUMP JUMPDEST SWAP4 POP POP PUSH1 0x20 PUSH2 0x14C0 DUP7 DUP3 DUP8 ADD PUSH2 0x1314 JUMP JUMPDEST SWAP3 POP POP PUSH1 0x40 PUSH2 0x14D1 DUP7 DUP3 DUP8 ADD PUSH2 0x13C4 JUMP JUMPDEST SWAP2 POP POP SWAP3 POP SWAP3 POP SWAP3 JUMP JUMPDEST PUSH1 0x0 DUP1 PUSH1 0x0 DUP1 PUSH1 0x80 DUP6 DUP8 SUB SLT ISZERO PUSH2 0x14F5 JUMPI PUSH2 0x14F4 PUSH2 0x1E40 JUMP JUMPDEST JUMPDEST PUSH1 0x0 PUSH2 0x1503 DUP8 DUP3 DUP9 ADD PUSH2 0x1314 JUMP JUMPDEST SWAP5 POP POP PUSH1 0x20 PUSH2 0x1514 DUP8 DUP3 DUP9 ADD PUSH2 0x1314 JUMP JUMPDEST SWAP4 POP POP PUSH1 0x40 PUSH2 0x1525 DUP8 DUP3 DUP9 ADD PUSH2 0x13C4 JUMP JUMPDEST SWAP3 POP POP PUSH1 0x60 DUP6 ADD CALLDATALOAD PUSH8 0xFFFFFFFFFFFFFFFF DUP2 GT ISZERO PUSH2 0x1546 JUMPI PUSH2 0x1545 PUSH2 0x1E3B JUMP JUMPDEST JUMPDEST PUSH2 0x1552 DUP8 DUP3 DUP9 ADD PUSH2 0x1368 JUMP JUMPDEST SWAP2 POP POP SWAP3 SWAP6 SWAP2 SWAP5 POP SWAP3 POP JUMP JUMPDEST PUSH1 0x0 DUP1 PUSH1 0x40 DUP4 DUP6 SUB SLT ISZERO PUSH2 0x1575 JUMPI PUSH2 0x1574 PUSH2 0x1E40 JUMP JUMPDEST JUMPDEST PUSH1 0x0 PUSH2 0x1583 DUP6 DUP3 DUP7 ADD PUSH2 0x1314 JUMP JUMPDEST SWAP3 POP POP PUSH1 0x20 PUSH2 0x1594 DUP6 DUP3 DUP7 ADD PUSH2 0x133E JUMP JUMPDEST SWAP2 POP POP SWAP3 POP SWAP3 SWAP1 POP JUMP JUMPDEST PUSH1 0x0 DUP1 PUSH1 0x40 DUP4 DUP6 SUB SLT ISZERO PUSH2 0x15B5 JUMPI PUSH2 0x15B4 PUSH2 0x1E40 JUMP JUMPDEST JUMPDEST PUSH1 0x0 PUSH2 0x15C3 DUP6 DUP3 DUP7 ADD PUSH2 0x1314 JUMP JUMPDEST SWAP3 POP POP PUSH1 0x20 PUSH2 0x15D4 DUP6 DUP3 DUP7 ADD PUSH2 0x13C4 JUMP JUMPDEST SWAP2 POP POP SWAP3 POP SWAP3 SWAP1 POP JUMP JUMPDEST PUSH1 0x0 PUSH1 0x20 DUP3 DUP5 SUB SLT ISZERO PUSH2 0x15F4 JUMPI PUSH2 0x15F3 PUSH2 0x1E40 JUMP JUMPDEST JUMPDEST PUSH1 0x0 PUSH2 0x1602 DUP5 DUP3 DUP6 ADD PUSH2 0x1353 JUMP JUMPDEST SWAP2 POP POP SWAP3 SWAP2 POP POP JUMP JUMPDEST PUSH1 0x0 PUSH1 0x20 DUP3 DUP5 SUB SLT ISZERO PUSH2 0x1621 JUMPI PUSH2 0x1620 PUSH2 0x1E40 JUMP JUMPDEST JUMPDEST PUSH1 0x0 PUSH2 0x162F DUP5 DUP3 DUP6 ADD PUSH2 0x13C4 JUMP JUMPDEST SWAP2 POP POP SWAP3 SWAP2 POP POP JUMP JUMPDEST PUSH1 0x0 PUSH1 0x20 DUP3 DUP5 SUB SLT ISZERO PUSH2 0x164E JUMPI PUSH2 0x164D PUSH2 0x1E40 JUMP JUMPDEST JUMPDEST PUSH1 0x0 PUSH2 0x165C DUP5 DUP3 DUP6 ADD PUSH2 0x13D9 JUMP JUMPDEST SWAP2 POP POP SWAP3 SWAP2 POP POP JUMP JUMPDEST PUSH1 0x0 DUP1 PUSH1 0x40 DUP4 DUP6 SUB SLT ISZERO PUSH2 0x167C JUMPI PUSH2 0x167B PUSH2 0x1E40 JUMP JUMPDEST JUMPDEST PUSH1 0x0 PUSH2 0x168A DUP6 DUP3 DUP7 ADD PUSH2 0x13C4 JUMP JUMPDEST SWAP3 POP POP PUSH1 0x20 DUP4 ADD CALLDATALOAD PUSH8 0xFFFFFFFFFFFFFFFF DUP2 GT ISZERO PUSH2 0x16AB JUMPI PUSH2 0x16AA PUSH2 0x1E3B JUMP JUMPDEST JUMPDEST PUSH2 0x16B7 DUP6 DUP3 DUP7 ADD PUSH2 0x1396 JUMP JUMPDEST SWAP2 POP POP SWAP3 POP SWAP3 SWAP1 POP JUMP JUMPDEST PUSH2 0x16CA DUP2 PUSH2 0x1BB3 JUMP JUMPDEST DUP3 MSTORE POP POP JUMP JUMPDEST PUSH2 0x16D9 DUP2 PUSH2 0x1BC5 JUMP JUMPDEST DUP3 MSTORE POP POP JUMP JUMPDEST PUSH1 0x0 PUSH2 0x16EA DUP3 PUSH2 0x1AD1 JUMP JUMPDEST PUSH2 0x16F4 DUP2 DUP6 PUSH2 0x1ADC JUMP JUMPDEST SWAP4 POP PUSH2 0x1704 DUP2 DUP6 PUSH1 0x20 DUP7 ADD PUSH2 0x1C36 JUMP JUMPDEST PUSH2 0x170D DUP2 PUSH2 0x1E45 JUMP JUMPDEST DUP5 ADD SWAP2 POP POP SWAP3 SWAP2 POP POP JUMP JUMPDEST PUSH1 0x0 PUSH2 0x1723 DUP3 PUSH2 0x1AD1 JUMP JUMPDEST PUSH2 0x172D DUP2 DUP6 PUSH2 0x1AED JUMP JUMPDEST SWAP4 POP PUSH2 0x173D DUP2 DUP6 PUSH1 0x20 DUP7 ADD PUSH2 0x1C36 JUMP JUMPDEST DUP1 DUP5 ADD SWAP2 POP POP SWAP3 SWAP2 POP POP JUMP JUMPDEST PUSH1 0x0 PUSH2 0x1756 PUSH1 0x25 DUP4 PUSH2 0x1ADC JUMP JUMPDEST SWAP2 POP PUSH2 0x1761 DUP3 PUSH2 0x1E56 JUMP JUMPDEST PUSH1 0x40 DUP3 ADD SWAP1 POP SWAP2 SWAP1 POP JUMP JUMPDEST PUSH1 0x0 PUSH2 0x1779 PUSH1 0x1C DUP4 PUSH2 0x1ADC JUMP JUMPDEST SWAP2 POP PUSH2 0x1784 DUP3 PUSH2 0x1EA5 JUMP JUMPDEST PUSH1 0x20 DUP3 ADD SWAP1 POP SWAP2 SWAP1 POP JUMP JUMPDEST PUSH1 0x0 PUSH2 0x179C PUSH1 0x24 DUP4 PUSH2 0x1ADC JUMP JUMPDEST SWAP2 POP PUSH2 0x17A7 DUP3 PUSH2 0x1ECE JUMP JUMPDEST PUSH1 0x40 DUP3 ADD SWAP1 POP SWAP2 SWAP1 POP JUMP JUMPDEST PUSH1 0x0 PUSH2 0x17BF PUSH1 0x19 DUP4 PUSH2 0x1ADC JUMP JUMPDEST SWAP2 POP PUSH2 0x17CA DUP3 PUSH2 0x1F1D JUMP JUMPDEST PUSH1 0x20 DUP3 ADD SWAP1 POP SWAP2 SWAP1 POP JUMP JUMPDEST PUSH1 0x0 PUSH2 0x17E2 PUSH1 0x29 DUP4 PUSH2 0x1ADC JUMP JUMPDEST SWAP2 POP PUSH2 0x17ED DUP3 PUSH2 0x1F46 JUMP JUMPDEST PUSH1 0x40 DUP3 ADD SWAP1 POP SWAP2 SWAP1 POP JUMP JUMPDEST PUSH1 0x0 PUSH2 0x1805 PUSH1 0x3E DUP4 PUSH2 0x1ADC JUMP JUMPDEST SWAP2 POP PUSH2 0x1810 DUP3 PUSH2 0x1F95 JUMP JUMPDEST PUSH1 0x40 DUP3 ADD SWAP1 POP SWAP2 SWAP1 POP JUMP JUMPDEST PUSH1 0x0 PUSH2 0x1828 PUSH1 0x18 DUP4 PUSH2 0x1ADC JUMP JUMPDEST SWAP2 POP PUSH2 0x1833 DUP3 PUSH2 0x1FE4 JUMP JUMPDEST PUSH1 0x20 DUP3 ADD SWAP1 POP SWAP2 SWAP1 POP JUMP JUMPDEST PUSH1 0x0 PUSH2 0x184B PUSH1 0x21 DUP4 PUSH2 0x1ADC JUMP JUMPDEST SWAP2 POP PUSH2 0x1856 DUP3 PUSH2 0x200D JUMP JUMPDEST PUSH1 0x40 DUP3 ADD SWAP1 POP SWAP2 SWAP1 POP JUMP JUMPDEST PUSH1 0x0 PUSH2 0x186E PUSH1 0x2E DUP4 PUSH2 0x1ADC JUMP JUMPDEST SWAP2 POP PUSH2 0x1879 DUP3 PUSH2 0x205C JUMP JUMPDEST PUSH1 0x40 DUP3 ADD SWAP1 POP SWAP2 SWAP1 POP JUMP JUMPDEST PUSH2 0x188D DUP2 PUSH2 0x1C1D JUMP JUMPDEST DUP3 MSTORE POP POP JUMP JUMPDEST PUSH1 0x0 PUSH2 0x189F DUP3 DUP6 PUSH2 0x1718 JUMP JUMPDEST SWAP2 POP PUSH2 0x18AB DUP3 DUP5 PUSH2 0x1718 JUMP JUMPDEST SWAP2 POP DUP2 SWAP1 POP SWAP4 SWAP3 POP POP POP JUMP JUMPDEST PUSH1 0x0 PUSH1 0x20 DUP3 ADD SWAP1 POP PUSH2 0x18CC PUSH1 0x0 DUP4 ADD DUP5 PUSH2 0x16C1 JUMP JUMPDEST SWAP3 SWAP2 POP POP JUMP JUMPDEST PUSH1 0x0 PUSH1 0x20 DUP3 ADD SWAP1 POP PUSH2 0x18E7 PUSH1 0x0 DUP4 ADD DUP5 PUSH2 0x16D0 JUMP JUMPDEST SWAP3 SWAP2 POP POP JUMP JUMPDEST PUSH1 0x0 PUSH1 0x20 DUP3 ADD SWAP1 POP DUP2 DUP2 SUB PUSH1 0x0 DUP4 ADD MSTORE PUSH2 0x1907 DUP2 DUP5 PUSH2 0x16DF JUMP JUMPDEST SWAP1 POP SWAP3 SWAP2 POP POP JUMP JUMPDEST PUSH1 0x0 PUSH1 0x20 DUP3 ADD SWAP1 POP DUP2 DUP2 SUB PUSH1 0x0 DUP4 ADD MSTORE PUSH2 0x1928 DUP2 PUSH2 0x1749 JUMP JUMPDEST SWAP1 POP SWAP2 SWAP1 POP JUMP JUMPDEST PUSH1 0x0 PUSH1 0x20 DUP3 ADD SWAP1 POP DUP2 DUP2 SUB PUSH1 0x0 DUP4 ADD MSTORE PUSH2 0x1948 DUP2 PUSH2 0x176C JUMP JUMPDEST SWAP1 POP SWAP2 SWAP1 POP JUMP JUMPDEST PUSH1 0x0 PUSH1 0x20 DUP3 ADD SWAP1 POP DUP2 DUP2 SUB PUSH1 0x0 DUP4 ADD MSTORE PUSH2 0x1968 DUP2 PUSH2 0x178F JUMP JUMPDEST SWAP1 POP SWAP2 SWAP1 POP JUMP JUMPDEST PUSH1 0x0 PUSH1 0x20 DUP3 ADD SWAP1 POP DUP2 DUP2 SUB PUSH1 0x0 DUP4 ADD MSTORE PUSH2 0x1988 DUP2 PUSH2 0x17B2 JUMP JUMPDEST SWAP1 POP SWAP2 SWAP1 POP JUMP JUMPDEST PUSH1 0x0 PUSH1 0x20 DUP3 ADD SWAP1 POP DUP2 DUP2 SUB PUSH1 0x0 DUP4 ADD MSTORE PUSH2 0x19A8 DUP2 PUSH2 0x17D5 JUMP JUMPDEST SWAP1 POP SWAP2 SWAP1 POP JUMP JUMPDEST PUSH1 0x0 PUSH1 0x20 DUP3 ADD SWAP1 POP DUP2 DUP2 SUB PUSH1 0x0 DUP4 ADD MSTORE PUSH2 0x19C8 DUP2 PUSH2 0x17F8 JUMP JUMPDEST SWAP1 POP SWAP2 SWAP1 POP JUMP JUMPDEST PUSH1 0x0 PUSH1 0x20 DUP3 ADD SWAP1 POP DUP2 DUP2 SUB PUSH1 0x0 DUP4 ADD MSTORE PUSH2 0x19E8 DUP2 PUSH2 0x181B JUMP JUMPDEST SWAP1 POP SWAP2 SWAP1 POP JUMP JUMPDEST PUSH1 0x0 PUSH1 0x20 DUP3 ADD SWAP1 POP DUP2 DUP2 SUB PUSH1 0x0 DUP4 ADD MSTORE PUSH2 0x1A08 DUP2 PUSH2 0x183E JUMP JUMPDEST SWAP1 POP SWAP2 SWAP1 POP JUMP JUMPDEST PUSH1 0x0 PUSH1 0x20 DUP3 ADD SWAP1 POP DUP2 DUP2 SUB PUSH1 0x0 DUP4 ADD MSTORE PUSH2 0x1A28 DUP2 PUSH2 0x1861 JUMP JUMPDEST SWAP1 POP SWAP2 SWAP1 POP JUMP JUMPDEST PUSH1 0x0 PUSH1 0x20 DUP3 ADD SWAP1 POP PUSH2 0x1A44 PUSH1 0x0 DUP4 ADD DUP5 PUSH2 0x1884 JUMP JUMPDEST SWAP3 SWAP2 POP POP JUMP JUMPDEST PUSH1 0x0 PUSH2 0x1A54 PUSH2 0x1A65 JUMP JUMPDEST SWAP1 POP PUSH2 0x1A60 DUP3 DUP3 PUSH2 0x1C9B JUMP JUMPDEST SWAP2 SWAP1 POP JUMP JUMPDEST PUSH1 0x0 PUSH1 0x40 MLOAD SWAP1 POP SWAP1 JUMP JUMPDEST PUSH1 0x0 PUSH8 0xFFFFFFFFFFFFFFFF DUP3 GT ISZERO PUSH2 0x1A8A JUMPI PUSH2 0x1A89 PUSH2 0x1E02 JUMP JUMPDEST JUMPDEST PUSH2 0x1A93 DUP3 PUSH2 0x1E45 JUMP JUMPDEST SWAP1 POP PUSH1 0x20 DUP2 ADD SWAP1 POP SWAP2 SWAP1 POP JUMP JUMPDEST PUSH1 0x0 PUSH8 0xFFFFFFFFFFFFFFFF DUP3 GT ISZERO PUSH2 0x1ABB JUMPI PUSH2 0x1ABA PUSH2 0x1E02 JUMP JUMPDEST JUMPDEST PUSH2 0x1AC4 DUP3 PUSH2 0x1E45 JUMP JUMPDEST SWAP1 POP PUSH1 0x20 DUP2 ADD SWAP1 POP SWAP2 SWAP1 POP JUMP JUMPDEST PUSH1 0x0 DUP2 MLOAD SWAP1 POP SWAP2 SWAP1 POP JUMP JUMPDEST PUSH1 0x0 DUP3 DUP3 MSTORE PUSH1 0x20 DUP3 ADD SWAP1 POP SWAP3 SWAP2 POP POP JUMP JUMPDEST PUSH1 0x0 DUP2 SWAP1 POP SWAP3 SWAP2 POP POP JUMP JUMPDEST PUSH1 0x0 PUSH2 0x1B03 DUP3 PUSH2 0x1C1D JUMP JUMPDEST SWAP2 POP PUSH2 0x1B0E DUP4 PUSH2 0x1C1D JUMP JUMPDEST SWAP3 POP DUP3 PUSH32 0xFFFFFFFFFFFFFFFFFFFFFFFFFFFFFFFFFFFFFFFFFFFFFFFFFFFFFFFFFFFFFFFF SUB DUP3 GT ISZERO PUSH2 0x1B43 JUMPI PUSH2 0x1B42 PUSH2 0x1D46 JUMP JUMPDEST JUMPDEST DUP3 DUP3 ADD SWAP1 POP SWAP3 SWAP2 POP POP JUMP JUMPDEST PUSH1 0x0 PUSH2 0x1B59 DUP3 PUSH2 0x1C1D JUMP JUMPDEST SWAP2 POP PUSH2 0x1B64 DUP4 PUSH2 0x1C1D JUMP JUMPDEST SWAP3 POP DUP3 PUSH2 0x1B74 JUMPI PUSH2 0x1B73 PUSH2 0x1D75 JUMP JUMPDEST JUMPDEST DUP3 DUP3 DIV SWAP1 POP SWAP3 SWAP2 POP POP JUMP JUMPDEST PUSH1 0x0 PUSH2 0x1B8A DUP3 PUSH2 0x1C1D JUMP JUMPDEST SWAP2 POP PUSH2 0x1B95 DUP4 PUSH2 0x1C1D JUMP JUMPDEST SWAP3 POP DUP3 DUP3 LT ISZERO PUSH2 0x1BA8 JUMPI PUSH2 0x1BA7 PUSH2 0x1D46 JUMP JUMPDEST JUMPDEST DUP3 DUP3 SUB SWAP1 POP SWAP3 SWAP2 POP POP JUMP JUMPDEST PUSH1 0x0 PUSH2 0x1BBE DUP3 PUSH2 0x1BFD JUMP JUMPDEST SWAP1 POP SWAP2 SWAP1 POP JUMP JUMPDEST PUSH1 0x0 DUP2 ISZERO ISZERO SWAP1 POP SWAP2 SWAP1 POP JUMP JUMPDEST PUSH1 0x0 PUSH32 0xFFFFFFFF00000000000000000000000000000000000000000000000000000000 DUP3 AND SWAP1 POP SWAP2 SWAP1 POP JUMP JUMPDEST PUSH1 0x0 PUSH20 0xFFFFFFFFFFFFFFFFFFFFFFFFFFFFFFFFFFFFFFFF DUP3 AND SWAP1 POP SWAP2 SWAP1 POP JUMP JUMPDEST PUSH1 0x0 DUP2 SWAP1 POP SWAP2 SWAP1 POP JUMP JUMPDEST DUP3 DUP2 DUP4 CALLDATACOPY PUSH1 0x0 DUP4 DUP4 ADD MSTORE POP POP POP JUMP JUMPDEST PUSH1 0x0 JUMPDEST DUP4 DUP2 LT ISZERO PUSH2 0x1C54 JUMPI DUP1 DUP3 ADD MLOAD DUP2 DUP5 ADD MSTORE PUSH1 0x20 DUP2 ADD SWAP1 POP PUSH2 0x1C39 JUMP JUMPDEST DUP4 DUP2 GT ISZERO PUSH2 0x1C63 JUMPI PUSH1 0x0 DUP5 DUP5 ADD MSTORE JUMPDEST POP POP POP POP JUMP JUMPDEST PUSH1 0x0 PUSH1 0x2 DUP3 DIV SWAP1 POP PUSH1 0x1 DUP3 AND DUP1 PUSH2 0x1C81 JUMPI PUSH1 0x7F DUP3 AND SWAP2 POP JUMPDEST PUSH1 0x20 DUP3 LT DUP2 EQ ISZERO PUSH2 0x1C95 JUMPI PUSH2 0x1C94 PUSH2 0x1DA4 JUMP JUMPDEST JUMPDEST POP SWAP2 SWAP1 POP JUMP JUMPDEST PUSH2 0x1CA4 DUP3 PUSH2 0x1E45 JUMP JUMPDEST DUP2 ADD DUP2 DUP2 LT PUSH8 0xFFFFFFFFFFFFFFFF DUP3 GT OR ISZERO PUSH2 0x1CC3 JUMPI PUSH2 0x1CC2 PUSH2 0x1E02 JUMP JUMPDEST JUMPDEST DUP1 PUSH1 0x40 MSTORE POP POP POP JUMP JUMPDEST PUSH1 0x0 PUSH2 0x1CD7 DUP3 PUSH2 0x1C1D JUMP JUMPDEST SWAP2 POP PUSH32 0xFFFFFFFFFFFFFFFFFFFFFFFFFFFFFFFFFFFFFFFFFFFFFFFFFFFFFFFFFFFFFFFF DUP3 EQ ISZERO PUSH2 0x1D0A JUMPI PUSH2 0x1D09 PUSH2 0x1D46 JUMP JUMPDEST JUMPDEST PUSH1 0x1 DUP3 ADD SWAP1 POP SWAP2 SWAP1 POP JUMP JUMPDEST PUSH1 0x0 PUSH2 0x1D20 DUP3 PUSH2 0x1C1D JUMP JUMPDEST SWAP2 POP PUSH2 0x1D2B DUP4 PUSH2 0x1C1D JUMP JUMPDEST SWAP3 POP DUP3 PUSH2 0x1D3B JUMPI PUSH2 0x1D3A PUSH2 0x1D75 JUMP JUMPDEST JUMPDEST DUP3 DUP3 MOD SWAP1 POP SWAP3 SWAP2 POP POP JUMP JUMPDEST PUSH32 0x4E487B7100000000000000000000000000000000000000000000000000000000 PUSH1 0x0 MSTORE PUSH1 0x11 PUSH1 0x4 MSTORE PUSH1 0x24 PUSH1 0x0 REVERT JUMPDEST PUSH32 0x4E487B7100000000000000000000000000000000000000000000000000000000 PUSH1 0x0 MSTORE PUSH1 0x12 PUSH1 0x4 MSTORE PUSH1 0x24 PUSH1 0x0 REVERT JUMPDEST PUSH32 0x4E487B7100000000000000000000000000000000000000000000000000000000 PUSH1 0x0 MSTORE PUSH1 0x22 PUSH1 0x4 MSTORE PUSH1 0x24 PUSH1 0x0 REVERT JUMPDEST PUSH32 0x4E487B7100000000000000000000000000000000000000000000000000000000 PUSH1 0x0 MSTORE PUSH1 0x32 PUSH1 0x4 MSTORE PUSH1 0x24 PUSH1 0x0 REVERT JUMPDEST PUSH32 0x4E487B7100000000000000000000000000000000000000000000000000000000 PUSH1 0x0 MSTORE PUSH1 0x41 PUSH1 0x4 MSTORE PUSH1 0x24 PUSH1 0x0 REVERT JUMPDEST PUSH1 0x0 DUP1 REVERT JUMPDEST PUSH1 0x0 DUP1 REVERT JUMPDEST PUSH1 0x0 DUP1 REVERT JUMPDEST PUSH1 0x0 DUP1 REVERT JUMPDEST PUSH1 0x0 PUSH1 0x1F NOT PUSH1 0x1F DUP4 ADD AND SWAP1 POP SWAP2 SWAP1 POP JUMP JUMPDEST PUSH32 0x4552433732313A207472616E736665722066726F6D20696E636F727265637420 PUSH1 0x0 DUP3 ADD MSTORE PUSH32 0x6F776E6572000000000000000000000000000000000000000000000000000000 PUSH1 0x20 DUP3 ADD MSTORE POP JUMP JUMPDEST PUSH32 0x4552433732313A20746F6B656E20616C7265616479206D696E74656400000000 PUSH1 0x0 DUP3 ADD MSTORE POP JUMP JUMPDEST PUSH32 0x4552433732313A207472616E7366657220746F20746865207A65726F20616464 PUSH1 0x0 DUP3 ADD MSTORE PUSH32 0x7265737300000000000000000000000000000000000000000000000000000000 PUSH1 0x20 DUP3 ADD MSTORE POP JUMP JUMPDEST PUSH32 0x4552433732313A20617070726F766520746F2063616C6C657200000000000000 PUSH1 0x0 DUP3 ADD MSTORE POP JUMP JUMPDEST PUSH32 0x4552433732313A2061646472657373207A65726F206973206E6F742061207661 PUSH1 0x0 DUP3 ADD MSTORE PUSH32 0x6C6964206F776E65720000000000000000000000000000000000000000000000 PUSH1 0x20 DUP3 ADD MSTORE POP JUMP JUMPDEST PUSH32 0x4552433732313A20617070726F76652063616C6C6572206973206E6F7420746F PUSH1 0x0 DUP3 ADD MSTORE PUSH32 0x6B656E206F776E6572206E6F7220617070726F76656420666F7220616C6C0000 PUSH1 0x20 DUP3 ADD MSTORE POP JUMP JUMPDEST PUSH32 0x4552433732313A20696E76616C696420746F6B656E2049440000000000000000 PUSH1 0x0 DUP3 ADD MSTORE POP JUMP JUMPDEST PUSH32 0x4552433732313A20617070726F76616C20746F2063757272656E74206F776E65 PUSH1 0x0 DUP3 ADD MSTORE PUSH32 0x7200000000000000000000000000000000000000000000000000000000000000 PUSH1 0x20 DUP3 ADD MSTORE POP JUMP JUMPDEST PUSH32 0x4552433732313A2063616C6C6572206973206E6F7420746F6B656E206F776E65 PUSH1 0x0 DUP3 ADD MSTORE PUSH32 0x72206E6F7220617070726F766564000000000000000000000000000000000000 PUSH1 0x20 DUP3 ADD MSTORE POP JUMP JUMPDEST PUSH2 0x20B4 DUP2 PUSH2 0x1BB3 JUMP JUMPDEST DUP2 EQ PUSH2 0x20BF JUMPI PUSH1 0x0 DUP1 REVERT JUMPDEST POP JUMP JUMPDEST PUSH2 0x20CB DUP2 PUSH2 0x1BC5 JUMP JUMPDEST DUP2 EQ PUSH2 0x20D6 JUMPI PUSH1 0x0 DUP1 REVERT JUMPDEST POP JUMP JUMPDEST PUSH2 0x20E2 DUP2 PUSH2 0x1BD1 JUMP JUMPDEST DUP2 EQ PUSH2 0x20ED JUMPI PUSH1 0x0 DUP1 REVERT JUMPDEST POP JUMP JUMPDEST PUSH2 0x20F9 DUP2 PUSH2 0x1C1D JUMP JUMPDEST DUP2 EQ PUSH2 0x2104 JUMPI PUSH1 0x0 DUP1 REVERT JUMPDEST POP JUMP INVALID LOG2 PUSH5 0x6970667358 0x22 SLT KECCAK256 DUP8 0xF6 0x23 0xC2 0x4E 0xCE SWAP10 0x4A DUP5 0xDB DUP14 0xB4 0xCF CALLDATALOAD 0x4B EXTCODEHASH PUSH9 0xC7E131C463A67FF4A4 SELFBALANCE 0xB2 0xDA 0xE9 0xD7 ADDMOD PUSH5 0x736F6C6343 STOP ADDMOD SMOD STOP CALLER "
				},
				"gasEstimates": {
					"creation": {
						"codeDepositCost": "1701800",
						"executionCost": "infinite",
						"totalCost": "infinite"
					},
					"external": {
						"approve(address,uint256)": "infinite",
						"balanceOf(address)": "infinite",
						"getApproved(uint256)": "711",
						"isApprovedForAll(address,address)": "infinite",
						"mint()": "infinite",
						"name()": "infinite",
						"ownerOf(uint256)": "infinite",
						"safeTransferFrom(address,address,uint256)": "infinite",
						"safeTransferFrom(address,address,uint256,bytes)": "infinite",
						"setApprovalForAll(address,bool)": "infinite",
						"setTokenURI(uint256,string)": "infinite",
						"supportsInterface(bytes4)": "797",
						"symbol()": "infinite",
						"tokenURI(uint256)": "infinite",
						"transferFrom(address,address,uint256)": "infinite"
					}
				},
				"methodIdentifiers": {
					"approve(address,uint256)": "095ea7b3",
					"balanceOf(address)": "70a08231",
					"getApproved(uint256)": "081812fc",
					"isApprovedForAll(address,address)": "e985e9c5",
					"mint()": "1249c58b",
					"name()": "06fdde03",
					"ownerOf(uint256)": "6352211e",
					"safeTransferFrom(address,address,uint256)": "42842e0e",
					"safeTransferFrom(address,address,uint256,bytes)": "b88d4fde",
					"setApprovalForAll(address,bool)": "a22cb465",
					"setTokenURI(uint256,string)": "162094c4",
					"supportsInterface(bytes4)": "01ffc9a7",
					"symbol()": "95d89b41",
					"tokenURI(uint256)": "c87b56dd",
					"transferFrom(address,address,uint256)": "23b872dd"
				}
			},
			"storageLayout": {
				"storage": [
					{
						"astId": 745,
						"contract": "contracts/SampleERC721Attachment.sol:SampleERC721Attachment",
						"label": "_name",
						"offset": 0,
						"slot": "0",
						"type": "t_string_storage"
					},
					{
						"astId": 747,
						"contract": "contracts/SampleERC721Attachment.sol:SampleERC721Attachment",
						"label": "_symbol",
						"offset": 0,
						"slot": "1",
						"type": "t_string_storage"
					},
					{
						"astId": 749,
						"contract": "contracts/SampleERC721Attachment.sol:SampleERC721Attachment",
						"label": "_refreeToken",
						"offset": 0,
						"slot": "2",
						"type": "t_address"
					},
					{
						"astId": 753,
						"contract": "contracts/SampleERC721Attachment.sol:SampleERC721Attachment",
						"label": "tokenURIs",
						"offset": 0,
						"slot": "3",
						"type": "t_mapping(t_uint256,t_string_storage)"
					},
					{
						"astId": 1412,
						"contract": "contracts/SampleERC721Attachment.sol:SampleERC721Attachment",
						"label": "nextTokenId",
						"offset": 0,
						"slot": "4",
						"type": "t_uint256"
					}
				],
				"types": {
					"t_address": {
						"encoding": "inplace",
						"label": "address",
						"numberOfBytes": "20"
					},
					"t_mapping(t_uint256,t_string_storage)": {
						"encoding": "mapping",
						"key": "t_uint256",
						"label": "mapping(uint256 => string)",
						"numberOfBytes": "32",
						"value": "t_string_storage"
					},
					"t_string_storage": {
						"encoding": "bytes",
						"label": "string",
						"numberOfBytes": "32"
					},
					"t_uint256": {
						"encoding": "inplace",
						"label": "uint256",
						"numberOfBytes": "32"
					}
				}
			},
			"userdoc": {
				"kind": "user",
				"methods": {},
				"version": 1
			}
		}
	}
}